:100000000C94C91F0C94F61F0C94F61F0C94F61F49
:100010000C94F61F0C94F61F0C94F61F0C94F61F0C
:100020000C94F61F0C94F61F0C94F61F0C94F61FFC
:100030000C94F61F0D943A810C94F61F0C94F61F45
:100040000C94F61F0D9451680C94F61F0C94F61F37
:100050000C94F61F0C94F61F0D94C3710D941E861C
:100060000C94F61F0C9427340C94F61F0C94F61F76
:100070000C94F61F0C94F61F0C94F61F0C94F53696
:100080000C94F61F0C94F61F0C94F61F0C94F61F9C
:100090000C94F61F0C94F61F0C94F61F0C9491917F
:1000A0000C94F61F0C94F61F0C94F61F0C94F61F7C
:1000B0000C94F61F0C94F61F0C94F61F0C94F61F6C
:1000C0000C94F61F0C94F61F0C94F61F0C94F61F5C
:1000D0000C94F61F0C94F61F0C94F61F0C94F61F4C
:1000E0000C94F61FA21FA61F941FAA1F1E1F541FA9
:1000F000441F5C1FBE1FB41F441F401F7E1F501FA4
:10010000BC1F9A1FC41F441F921F581FB01F441FBB
:100110004E1F821F2E1F4A1F9E1FC21F3E1FA81F59
:100120003C1F361F281F341F4C1FAC1F521F5E1F61
:100130006A1F084AD73B3BCE016E84BCBFFDC12F6E
:100140003D6C74319ABD56833DDA3D00C77F11BEC8
:10015000D9E4BB4C3E916BAAAABE000000803F05CB
:10016000A84CCDB2D44EB93836A9020C50B99186FC
:1001700088083CA6AAAA2ABE000000803F656368E2
:100180006F3A0048617264636F6465642044656619
:1001900061756C742053657474696E6773204C6F5D
:1001A000616465640048617264636F6465642044DF
:1001B000656661756C742053657474696E6773202D
:1001C00073746F7265640053697A65206F6620747A
:1001D00068652073657474696E6720696E20656553
:1001E00070726F6D3A0053746F726564207365743A
:1001F00074696E67732072657472696576656400F0
:100200002044002049002020204D33303120500070
:100210005049442073657474696E67733A00205ABC
:100220000020590020204D323036205800486F6D94
:1002300065206F666673657420286D6D293A00200D
:100240004500205A00205800204200205400202061
:100250004D323035205300416476616E6365642011
:100260007661726961626C65733A20533D4D696EC7
:1002700020666565647261746520286D6D2F732931
:100280002C20543D4D696E2074726176656C206639
:100290006565647261746520286D6D2F73292C204B
:1002A000423D6D696E696D756D207365676D656E34
:1002B000742074696D6520286D73292C20583D6D5C
:1002C0006178696D756D205859206A65726B2028B8
:1002D0006D6D2F73292C20205A3D6D6178696D75E5
:1002E0006D205A206A65726B20286D6D2F73292C42
:1002F0002020453D6D6178696D756D2045206A65EA
:10030000726B20286D6D2F73290020540020204D22
:10031000323034205300416363656C6572617469E7
:100320006F6E3A20533D616363656C6572617469F9
:100330006F6E2C20543D726574726163742061632A
:1003400063656C65726174696F6E00204500205AA8
:100350000020590020204D3230312058004D617866
:10036000696D756D20416363656C65726174696F59
:100370006E20286D6D2F7332293A00204500205AD7
:100380000020590020204D3230332058004D617834
:10039000696D756D2066656564726174657320288A
:1003A0006D6D2F73293A00204500205A0020590016
:1003B00020204D39322058005374657073207065C9
:1003C0007220756E69743A0053657474696E677350
:1003D0002053746F726564006563686F3A004572FC
:1003E000726F723A005072696E7465722073746F26
:1003F000707065642064756520746F206572726F1B
:1004000072732E2046697820746865206572726F59
:100410007220616E6420757365204D3939392074FE
:100420006F20726573746172742E202854656D702C
:100430006572617475726520697320726573657485
:100440002E20536574206974206166746572207271
:10045000657374617274696E6729005072696E7495
:1004600065722068616C7465642E206B696C6C2801
:10047000292063616C6C656421006F6B00526573A9
:10048000656E643A20002200556E6B6E6F776E20A9
:10049000636F6D6D616E643A202200456C65637414
:1004A000726F6E6963735F746573740020423A30D3
:1004B0000020423A31006F6B20523A002200556E04
:1004C0006B6E6F776E20636F6D6D616E643A202284
:1004D000007A5F6D61783A2000795F6D61783A202B
:1004E00000785F6D61783A20005A3A00593A00204E
:1004F000436F756E7420583A20005A3A00593A00FA
:1005000020436F756E7420583A2000453A005A3ADD
:1005100000593A00583A004649524D574152455FFA
:100520004E414D453A4D61726C696E20556C74694F
:100530006D616B6572323B20537072696E746572C7
:100540002F6772626C206D617368757020666F72C0
:100550002067656E36204649524D574152455F55DA
:10056000524C3A687474703A2F2F7777772E6D65F6
:100570006E64656C2D70617274732E636F6D2050A4
:10058000524F544F434F4C5F56455253494F4E3A8A
:10059000312E30204D414348494E455F5459504516
:1005A0003A4F7665724C6F726420455854525544E8
:1005B00045525F434F554E543A310A0020423A00AB
:1005C00020453A00543A0020573A0020453A00545A
:1005D0003A002042403A0020403A00202F002042BA
:1005E0003A00202F006F6B20543A002569206D6976
:1005F0006E2C2025692073656300456E6420666952
:100600006C65206C69737400426567696E20666969
:100610006C65206C6973740066697474696E6742F6
:1006200065645570646174654B41667465723A0027
:1006300066697474696E6742656455706461746557
:100640004B4265666F72653A006164645F686F6D06
:1006500065696E675B5A5F415849535D006669740E
:1006600074696E67426564006164645F686F6D659C
:10067000696E675B5A5F415849535D0066697474DF
:10068000696E67426564417272617900636865638F
:100690006B486974456E6473746F70730000002A50
:1006A0004300002A43000082430000E0400000E0D5
:1006B000400000E0400101010000000000000000D7
:1006C000008089430000AAC20000AAC20000000006
:1006D0000000AA420000AA4200008243456E6473F3
:1006E000746F70207374696C6C20707265737365BD
:1006F00064206166746572206261636B696E672055
:100700006F66662E20456E6473746F702073747507
:10071000636B3F00456E6473746F70206E6F74205E
:100720007072657373656420616674657220686FAA
:100730006D696E6720646F776E2E20456E647374EA
:100740006F702062726F6B656E3F00256920686F65
:10075000757273202569206D696E75746573004428
:100760006F6E65207072696E74696E672066696C61
:1007700065007364206572726F72004D32323020F2
:10078000532569004D31303620532569003B4C41DB
:100790005945523A004D3235207265636569766578
:1007A00064004D3235007364206572726F720050C0
:1007B00072696E7465722073746F70706564206402
:1007C000756520746F206572726F72732E20466992
:1007D0007820746865206572726F7220616E642083
:1007E000757365204D39393920746F2072657374C3
:1007F0006172742E202854656D7065726174757213
:10080000652069732072657365742E2053657420AA
:1008100069742061667465722072657374617274A4
:10082000696E6729006F6B004E6F204C696E652002
:100830004E756D62657220776974682063686563C0
:100840006B73756D2C204C617374204C696E653A26
:1008500020004E6F20436865636B73756D20776968
:100860007468206C696E65206E756D6265722C20EF
:100870004C617374204C696E653A2000636865634F
:100880006B73756D206D69736D617463682C204C9A
:10089000617374204C696E653A20004C696E652066
:1008A0004E756D626572206973206E6F74204C61A5
:1008B0007374204C696E65204E756D6265722B31C4
:1008C0002C204C617374204C696E653A20004D31C8
:1008D000313000446F6E6520736176696E67206603
:1008E000696C652E006F6B004D323900706C616968
:1008F0006E466163746F723A00706C61696E466136
:1009000063746F723A002020506C616E6E657242A3
:10091000756666657242797465733A200020467286
:100920006565204D656D6F72793A200041707220C7
:100930003238203230313500436F6D70696C656438
:100940003A200056657273696F6E20322E312E3355
:100950005000207C20417574686F723A200041700D
:100960007220323820323031352031323A31383A43
:10097000333200204C617374205570646174656477
:100980003A2000312E302E30004D61726C696E209D
:100990000020536F667477617265205265736574C9
:1009A00000205761746368646F67205265736574D3
:1009B000002042726F776E206F75742052657365E8
:1009C00074002045787465726E616C2052657365A1
:1009D0007400506F776572557000737461727400A3
:1009E000656E717565696E672066756C6C002200B6
:1009F000656E717565696E67202200656E7175653B
:100A0000696E672066756C6C002200656E71756595
:100A1000696E672022004F7574206F66206D656DCA
:100A20006F727900534455505352657472696576FC
:100A300065436C6173733A0053445550535363617B
:100A40006E506F736974696F6E3A0053445550531A
:100A50005363616E496E6465780074686520466909
:100A60006C65506F736974696F6E3A0053445550EA
:100A700053506F736974696F6E496E6465783A009C
:100A800000002110422063308440A550C660E7700A
:100A9000088129914AA16BB18CC1ADD1CEE1EFF1B2
:100AA0003112100273325222B5529442F772D6625A
:100AB000399318837BB35AA3BDD39CC3FFF3DEE302
:100AC0006224433420040114E664C774A4448554AA
:100AD0006AA54BB528850995EEE5CFF5ACC58DD552
:100AE0005336722611163006D776F6669556B446FA
:100AF0005BB77AA719973887DFF7FEE79DD7BCC7A2
:100B0000C448E5588668A778400861180228233849
:100B1000CCC9EDD98EE9AFF9488969990AA92BB9F1
:100B2000F55AD44AB77A966A711A500A333A122A99
:100B3000FDDBDCCBBFFB9EEB799B588B3BBB1AAB41
:100B4000A66C877CE44CC55C222C033C600C411CE9
:100B5000AEED8FFDECCDCDDD2AAD0BBD688D499D91
:100B6000977EB66ED55EF44E133E322E511E700E39
:100B70009FFFBEEFDDDFFCCF1BBF3AAF599F788FE1
:100B80008891A981CAB1EBA10CD12DC14EF16FE1C1
:100B90008010A100C230E3200450254046706760F9
:100BA000B9839893FBA3DAB33DC31CD37FE35EF311
:100BB000B1029012F322D232354214527762567249
:100BC000EAB5CBA5A89589856EF54FE52CD50DC561
:100BD000E234C324A0148104667447642454054499
:100BE000DBA7FAB79987B8975FE77EF71DC73CD7B1
:100BF000D326F2369106B0165766767615463456E9
:100C00004CD96DC90EF92FE9C899E9898AB9ABA900
:100C10004458654806782768C018E1088238A32838
:100C20007DCB5CDB3FEB1EFBF98BD89BBBAB9ABB50
:100C3000754A545A376A167AF10AD01AB32A923A88
:100C40002EFD0FED6CDD4DCDAABD8BADE89DC98DA0
:100C5000267C076C645C454CA23C832CE01CC10CD8
:100C60001FEF3EFF5DCF7CDF9BAFBABFD98FF89FF0
:100C7000176E367E554E745E932EB23ED10EF01E28
:100C80007C3C3E5E2B3D3F2F5B5D3B2C2A225C0073
:100C90006F7220737769746368206F666600436FB4
:100CA0006E6E6563742074686520506F776572009E
:100CB0004D61696E204D656E75005072696E7420CD
:100CC00066726F6D20534420636172642E003F3F53
:100CD0003F00835072696E7400737570706F727428
:100CE00040647265616D6D616B65722E6363004374
:100CF0006F6E746163743A00526564756E64616E00
:100D0000742054656D700058206F722059207377DD
:100D10006974636820737475636B0058206F722068
:100D200059207377697463682062726F6B656E0017
:100D30005A2073776974636820737475636B005A03
:100D4000207377697463682062726F6B656E0053FD
:100D500061666574792063697263756974004865BA
:100D600061746572206572726F720054656D7020D7
:100D700073656E736F72204245440054656D702038
:100D800073656E736F72004552524F52202D20537F
:100D9000544F50504544008015000000000080C0B2
:100DA000C0E0E0E0E0E0E0C0C0800000E0E0E0E0C3
:100DB000E0E00000E0E0E0E0E00000E0E0E0E0E0B3
:100DC000E0E0E0E0E0E0E00000E0E0E0E0E0E06063
:100DD00060E0E0E0C080000000E0E0E0E0E0E0E0B3
:100DE000000000000000000080C0C0E0E0E0E0E0A3
:100DF000E0C0C080000000E0E0E0E0E0E06060E033
:100E0000E0E0C0800000E0E0E0E0E0E0E0E0E0E022
:100E1000C0C080000000000000000000001E7FFF36
:100E2000FFFFE1C0C0E1FFFFFF7F1E0000030F3F97
:100E3000FFFFFCF0FC3F0F03000000C0FFFFFFFFBF
:100E4000FFCCCCC0E1E1E10000C0FFFFFFFFFFCC21
:100E50001C7FFFFFF7E3C00000C0FFFFFFFFFFC0E4
:100E6000C0C0F0F0F000001E7FFFFFFFE1C0C0E156
:100E7000FFFFFF7F1E0000C0FFFFFFFFFFCC1C7FB6
:100E8000FFFFF7E3C000C0FFFFFFFFFFC0C0E1FFAF
:100E9000FFFF7F3E00000000000000000000000097
:100EA000000101010101010000000000000000003C
:100EB000000101010000000000000001010101012A
:100EC0000101010101010100000101010101010114
:100ED0000000010101010100000101010101010106
:100EE00001010101010000000000000101010101F8
:100EF00001000000000000010101010101010000EA
:100F000001010101010001010101010101010101D2
:100F1000010000000000000000323200000000006C
:100F2000C0C04040404040404040404040404040C1
:100F300040404040404040404040404040404040B1
:100F40004040404040C0C0000000000000000000E1
:100F50000000FF0000000000000000000080808012
:100F60008080808080FC8080808080808080000005
:100F70000000000000000000FF0000000000000072
:100F800000000000FF00000000000000000000035F
:100F9000FFFFFFFFFFFF01FF01FFFFFFFFFFFF0359
:100FA00000000000000000000000FF000000000042
:100FB000000000000000FF00000000000000000032
:100FC0000000000103070F1F387F381F0F070301C0
:100FD000000000000000000000000000FF00000012
:100FE0000000000000000000FF000000E0E0E0E082
:100FF000C0F0FCFCFEFEFFFFFFFFFFFFFFFFFFFF57
:10100000FFFEFEFCFCF0C0E0E0E0E0000000FF00BE
:10101000000000000000000000001F181010111157
:1010200011111010101010101010101010101010BE
:1010300010101010101010101011111111101018A4
:101040001F00000000000000000000000000000081
:101050000000000000000000000000000000000090
:101060000000000000000000000000000000000080
:10107000000000000000000000323200000000000C
:10108000E060202020202020202020202020202060
:101090002020202020202020202020202020202050
:1010A000202020202060E000000000000000000060
:1010B0000000FF0000000000000000000002060E1B
:1010C0001E3E7EFEFEFCF8F0E0C080000000000046
:1010D0000000000000000000FF0000000000000011
:1010E00000000000FF000000FEFCF8F0E0C08000FF
:1010F00000000000000001FFFFFFFFFFFF80000075
:1011000000000000000000000000FF0000000000E0
:10111000000000000000FF000000000103070F1F97
:101120003F3F3F3F3F3F3F3F7FFFFFFFFFFFFFFF4F
:10113000FFFEFCF8F0E0C08000000000FF000000AF
:101140000000000000000000FF00000000000000A0
:101150000000000000000000000000000103070F75
:101160001F3F7FFFF7E3C1E3F77F3F000000FF0071
:10117000000000000000000000000F0C0808080834
:1011800008080808080808080808080808080808DF
:101190000808080808080808080808080808080CCB
:1011A0000F00000000000000000000000000000030
:1011B000000000000000000000000000000000002F
:1011C000000000000000000000000000000000001F
:1011D00000000000000000000032320000000000AB
:1011E00000C0C0404040404040404040404040403F
:1011F00040404040404040404040404040404040EF
:10120000404040404040C0C00000000000000000DE
:10121000000000FF000000000000C0C0C0C0C0C04F
:10122000C0C0C0C0C0C0C0C0C0C0C0C0C0C0E0203E
:10123000E0C0C0000000000000FF0000000000004F
:101240000000000000FF000000000000010101019B
:1012500001010101010101818181010101010101FE
:101260000302030101000000000000FF0000000075
:1012700000000000000000FF000000000000070761
:101280000707070707070707070F080F07070707DD
:1012900007070707070707000000000000FF00001E
:1012A000000000000000000000FF0000000000003F
:1012B0001C1C1C3E223E1C1C1C1C1C1C1C1C1C1C24
:1012C0001C1C1C1C1C1C1C1C1C000000000000FF23
:1012D00000000000000000000000001F18101010A7
:1012E00010101010101010101010101010101010FE
:1012F00010101010101010101010101010101010EE
:10130000181F0000000000000000000000000000A6
:1013100000000000000000000000000000000000CD
:1013200000000000000000000000000000000000BD
:1013300000000000000000000043414E43454C0007
:101340007761726E696E673A20696E7369646520B1
:1013500074686520737769667400000000000000FF
:10136000005F00000007000700147F147F14242A88
:101370007F2A122313086462364955225000050360
:101380000000001C2241000041221C00082A1C2AE7
:101390000808083E0808005030000008080808083F
:1013A000006060000020100804023E5149453E00E4
:1013B000427F400042615149462141454B3118145A
:1013C000127F1027454545393C4A4949300171098A
:1013D00005033649494936064949291E0036360073
:1013E000000056360000000814224114141414148E
:1013F00041221408000201510906324979413E7E1A
:101400001111117E7F494949363E414141227F41B8
:1014100041221C7F494949417F090901013E41415F
:1014200051327F0808087F00417F41002040413F42
:10143000017F081422417F404040407F0204027F28
:101440007F0408107F3E4141413E7F090909063E65
:101450004151215E7F091929464649494931010117
:101460007F01013F4040403F1F2040201F7F201848
:10147000207F631408146303047804036151494511
:101480004300007F4141020408102041417F0000D9
:1014900004020102044040404040000102040020D8
:1014A000545454787F4844443838444444203844A1
:1014B00044487F3854545418087E090102081454D3
:1014C000543C7F0804047800447D40002040443DA3
:1014D00000007F10284400417F40007C04180478FD
:1014E0007C0804047838444444387C1414140808F4
:1014F0001414187C7C080404084854545420043FF5
:101500004440203C4040207C1C2040201C3C40307B
:10151000403C44281028440C5050503C4464544CE7
:1015200044000836410000007F00000041360800FA
:1015300008082A1C08081C2A0808081C3E1C080069
:101540000609090610181C181008183818084C63EA
:10155000645570646174654E6F726D616C004C63AC
:101560006455706461746557616974696E67004C95
:1015700063645570646174654572726F72496E4937
:101580006E74657272757074004C6364557064613A
:1015900074654572726F720064656661756C740083
:1015A0006969632064617461206572726F720054AE
:1015B000575F4D525F4152425F4C4F53540069692F
:1015C000632064617461206572726F72006461747B
:1015D000610069326354696D654F757400693263E7
:1015E0002054696D654F7574006E6F74206E6F7254
:1015F0006D616C20656E64006932632054696D65AD
:101600004F75740064656661756C74006969632068
:101610007374617274206572726F720054575F4DFB
:10162000525F4152425F4C4F5354006969632073CB
:1016300074617274206572726F720054575F425504
:10164000535F4552524F520069696320737461724F
:1016500074206572726F720064656661756C7400E7
:101660006969632061646472657373206572726F67
:10167000720054575F4D525F4152425F4C4F53547A
:1016800000696963206164647265737320657272B6
:101690006F720054575F4D525F534C415F4E414350
:1016A0004B006969632061646472657373206572BD
:1016B000726F72006932632054575F4D525F44412C
:1016C00054415F4E41434B00693263206C63645662
:1016D000657273696F6E0054575F4D525F534C4192
:1016E0005F41434B006932632054696D654F7574E7
:1016F00000696E746F2054575F4D525F534C415FC9
:1017000041434B0054575F4255535F4552524F522D
:101710000069696320616464726573732065727225
:101720006F720054575F4D545F534C415F4E4143BD
:101730004B0069696320616464726573732065722C
:10174000726F720054575F535441525400693263B0
:101750002054696D654F757400693263207374613C
:1017600072742054575F5245505F53544152540095
:101770006932632054696D654F757400746F20631E
:101780006F6E74696E7565005072657373206D6954
:1017900064646C6520627574746F6E00737461723A
:1017A000747570206F66204F7665724C6F7264217D
:1017B0000057656C636F6D6520746F2074686520D9
:1017C000666972737400312F3130004445464155CB
:1017D0004C5400434F4E54494E5545006973206C9C
:1017E0006566742061726F756E642069742E006383
:1017F0006173652074686174206D617465726961DC
:101800006C005072696E746865616420686561740B
:10181000696E6720696E00322F31300043414E43BC
:10182000454C0047323900746F20636F6E74696EE7
:1018300075652E0070757368206D6964646C652031
:10184000627574746F6E00696E73657274206D6179
:1018500074657269616C2E004E65787420737465CE
:101860007020697320746F00342F313000534B495E
:101870005000434F4E54494E5545006D616B6520F5
:1018800061203344205072696E74210049276D2015
:1018900072656164792E206C6574277300392F316D
:1018A0003000534B495000434F4E54494E5545006C
:1018B000746F207072696E742069742100616E64A7
:1018C0002070726573732074686520627574746F1C
:1018D0006E006F6E207468652053442D63617264DE
:1018E0000053656C6563742061207072696E7420AA
:1018F00066696C650031302F3130004C45542753F8
:10190000205052494E540052656164696E672063ED
:101910006172642E2E2E0031302F313000796F75B8
:1019200072204F7665724C6F72642E2E2E00746892
:1019300061742063616D65207769746800506C651F
:1019400061736520696E736572742053442D636101
:1019500072640031302F3130006D617465726961DD
:101960006C206C6F6164696E67007072696E746878
:101970006561642068656174696E6720666F7200D6
:10198000506C6561736520776169742C00352F3167
:101990003000616E64207468656E20707573682015
:1019A000627574746F6E2E0064726976656420626D
:1019B00079206578747275646572006578747275E3
:1019C00064657220756E74696C2069742069730097
:1019D000496E73657274206D6174657269616C2003
:1019E000696E746F00362F313000434F4E54494EAC
:1019F0005545004C6F6164696E67206D6174657256
:101A000069616C2E2E2E00372F31300066726F6D9B
:101A1000206E6F7A7A6C652E2E2E006D6174657261
:101A200069616C2065786974730050757368206211
:101A30007574746F6E207768656E00382F313000D2
:101A4000434F4E54494E5545004D38340063616C48
:101A50006962726174696F6E2070726F636573730F
:101A60002E0067656E746C7920746F20646F20742B
:101A7000686500746F7563682074686520627569B5
:101A80006C64706C61746500546865204E6F7A7A7E
:101A90006C652077696C6C00332F31300041424F08
:101AA00052540053657474696E6773006D6D2F73C3
:101AB0006563005265636F76657220737065656457
:101AC000006D6D2F736563005265747261637420DD
:101AD0007370656564006D6D005265747261637446
:101AE000206C656E677468005245545241435449F6
:101AF0004F4E006D6D2F736563006D6D2F736563C1
:101B0000006D6D003F3F3F005265636F7665722048
:101B100073706565640052657472616374207370DC
:101B20006565640052657472616374206C656E67EC
:101B300074680052657475726E004D61696E7465EB
:101B40006E616E6365204D656E7500250046616EA1
:101B50002073706565640054656D7061747572659D
:101B60000081430081432F00436C69636B20746FD5
:101B70002072657475726E004E6F7A7A6C6520748F
:101B8000656D70657261747572653A003F3F3F0024
:101B90002500814300814300814300814300526559
:101BA0007475726E20746F20416476616E63656433
:101BB0002E003F3F3F0046616E20737065656400F4
:101BC000486561747570206275696C64706C6174CD
:101BD0006500486561747570206E6F7A7A6C650077
:101BE00052657475726E003F3F3F0041626F7574BD
:101BF0002E0053657474696E67732E004D6F7665A1
:101C00006D656E742E004368616E6765207468654B
:101C10002054656D70657261747572652E003F3F6A
:101C20003F008041626F7574008053657474696E03
:101C3000677300804D6F76656D656E7400825465C4
:101C40006D70657261747572650041626F757400C4
:101C500056657273696F6E20322E312E33500041FB
:101C6000707220323820323031352031323A3138FA
:101C70003A33390052657475726E00830082004FEA
:101C800000830082004F00830082004F002000206C
:101C9000002000444F4E45006D004D61746572692F
:101CA000616C3A003A005072696E742074696D6517
:101CB0003A003A004C6966652074696D653A0042E5
:101CC0006174746572793A20202020204368617223
:101CD00067656400426174746572793A202020203F
:101CE0004368617267696E670052657475726E0051
:101CF000746F2064656661756C743F00526573652E
:101D0000742065766572797468696E67004E4F005D
:101D1000594553003F3F3F0056657273696F6E200F
:101D2000322E312E3350004D616368696E65205349
:101D3000746174652E00466163746F727920526518
:101D40007365742E0052657475726E20746F204135
:101D50006476616E6365642E003F3F3F0056657296
:101D600073696F6E004D616368696E6520537461BD
:101D7000746500466163746F72792052657365748F
:101D80000052657475726E004732380A4D3834005F
:101D90004D6F76656D656E740081430081432F0041
:101DA000436C69636B20746F2072657475726E008A
:101DB000507265737320446F776E20746F2065785E
:101DC0007472756465005072657373205550207489
:101DD0006F2072657472616374004E6F7A7A6C65FD
:101DE0002074656D70657261747572653A003F3F6D
:101DF0003F004D6F766520746865204D6174657293
:101E000069616C2E00486F6D6520746865204865B7
:101E100061642E0052657475726E20746F20416487
:101E200076616E6365642E003F3F3F004D6F7665BF
:101E3000204D6174657269616C00486F6D65204862
:101E40006561640052657475726E003F3F3F004DDE
:101E50006174657269616C2073657474696E67730F
:101E60002E0052657472616374696F6E20736574BD
:101E700074696E67732E0052657475726E20746F8C
:101E800020416476616E6365642E003F3F3F004DE4
:101E90006174657269616C2073657474696E6773CF
:101EA0000052657472616374696F6E207365747437
:101EB000696E67730052657475726E0081430081AC
:101EC000432F00436C69636B20746F2072657475D7
:101ED000726E004275696C64706C61746520746523
:101EE0006D702E3A004D61696E74656E616E63654A
:101EF000204D656E75006D616E75616C6C79206C3E
:101F00006576656C20706C6174652E0053656C6538
:101F10006374204D616E75616C20746F006175741F
:101F20006F206C6576656C206275696C64706C619D
:101F300074650053656C656374204155544F20747B
:101F40006F004D414E55414C004155544F00746156
:101F5000726765745F74656D7065726174757265C2
:101F60005F6265640048656174696E672075702EF4
:101F70002E2E0041424F5254004731205838352010
:101F80005930205A302E3320463330303000473914
:101F900032204525690A4731204530204625690011
:101FA000473932204525690A4731204525692046B1
:101FB00025690A47312045302046256900473238D7
:101FC0000A4731205A35302046353030300A473103
:101FD00020583020592D3835205A323000776F7212
:101FE0006B732077656C6C2E00756E74696C207451
:101FF0006865207072696E7400746F206D6F76650D
:102000002074686520686F74656E64005072657333
:102010007320446F776E206F7220555000444F4EEE
:102020004500706C61696E466163746F72206E6505
:10203000773A00706C61696E466163746F72206FED
:102040006C643A0066697474696E674265644172D3
:1020500072617900473238006973206C65667420BC
:1020600061726F756E642069742E00636173652000
:1020700074686174206D6174657269616C0050727E
:10208000696E74686561642068656174696E672053
:10209000696E0043414E43454C004732390063614D
:1020A0006C6962726174696F6E2070726F636573C0
:1020B000732E0067656E746C7920746F20646F20D6
:1020C00074686500746F7563682074686520627554
:1020D000696C64706C61746500546865204E6F7A39
:1020E0007A6C652077696C6C0041424F5254003F16
:1020F0003F3F004C6576656C2074686520506C61CC
:1021000074666F726D2E004368616E676520746837
:1021100065204D6174657269616C2E003F3F3F0020
:10212000834C6576656C00824D6174657269616C83
:102130000041425300504C41004D61746572696129
:102140006C2053657474696E67730053656C6563C6
:10215000746564206D6174657269616C3A004F4BFF
:102160000025004D6174657269616C20666C6F7743
:1021700000250046616E207370656564006D6D001A
:102180004D6174657269616C204469616D65746547
:1021900072008143004275696C64706C61746520E3
:1021A00054656D702E0081430054656D70657261D9
:1021B00074757265004D6174657269616C20446567
:1021C0007461696C7300250025006D6D008143000A
:1021D0008143003F3F3F0053746F7265206173205D
:1021E00070726573657400466C6F772025004661D8
:1021F0006E004469616D657465720048656174655F
:1022000064206275696C64706C6174650054656DFE
:1022100070657261747572650052657475726E00D6
:102220004D6F64696679207468652073657474699C
:102230006E67730025002046616E3A00814300817D
:1022400043002500466C6F773A006D6D004C6F615E
:10225000642044656661756C7400437573746F6DBA
:10226000697A650052657475726E006D617465728D
:1022700069616C206368616E67696E67005072699E
:102280006E74686561642068656174696E67206654
:102290006F7200506C6561736520776169742C0002
:1022A00062652072656D6F7665642E0054686520E6
:1022B0006D6174657269616C2077696C6C0048654A
:1022C0006174696E672066696E69736865642E0063
:1022D000534B495000434F4E54494E554500616E93
:1022E00064207468656E20707573682062757474FC
:1022F0006F6E2E006472697665642062792065785D
:1023000074727564657200657874727564657220A4
:10231000756E74696C20697420697300496E736509
:102320007274206D6174657269616C20696E746F7E
:102330000043414E43454C00524541445900466FCD
:102340007277617264696E67206D6174657269612C
:102350006C0066726F6D206E6F7A7A6C652E2E2E11
:10236000006D6174657269616C20657869747300D1
:102370005075736820627574746F6E207768656E2F
:102380000043414E43454C005245414459004D41A4
:1023900054455249414C0025002046616E3A008167
:1023A00043008143002500466C6F773A006D6D0055
:1023B000526576657273696E67206D6174657269C6
:1023C000616C0065787472756465722E006D61745D
:1023D000657269616C2066726F6D00506C65617327
:1023E000652072656D6F76650043414E43454C0034
:1023F00052454144590053442043415244003B4616
:102400004C41564F523A556C746947436F646500AE
:102410003B464C41564F523A556C746947436F6482
:1024200065004E6F2066696C657320666F756E641B
:1024300021004F4B004F4B0052656164696E67206D
:10244000636172642E2E2E00506C65617365206985
:102450006E736572742063617264004E6F20534422
:102460002D4341524421004E6F20696E666F2061FA
:102470007661696C61626C65006D006D004D617420
:10248000657269616C3A200054696D653A20003BC1
:102490004D4154455249414C3A003B54494D453A0F
:1024A00000466F6C646572004261636B0052657434
:1024B00075726E00556C746947636F6465004743BD
:1024C0006F646520466C61766F723E3E00437572A4
:1024D000613E3E4D616368696E6520736574746921
:1024E0006E6700506C656173652055736520556C8F
:1024F000746947476F63646500434F4E54494E55B6
:10250000450043414E43454C00556C746947636F29
:1025100064650047436F646520466C61766F723E68
:102520003E00437572613E3E4D616368696E652091
:1025300073657474696E6700506C656173652055CE
:10254000736520556C746947476F63646500434F3A
:102550004E54494E55450043414E43454C0047318A
:10256000204633303030205A300A4731204634304C
:1025700030205A3230004D3130370A4D323230205F
:102580005334300A4D37383020533235350A4D3701
:1025900038312053313030000A47312046000A4795
:1025A00031204600205A00205A00205900205900AE
:1025B0000A47312046333030302058000A47312056
:1025C00046333030302058004739322045004739F3
:1025D000322045002045300A0047393220452D324F
:1025E000300A473120460047393220452D32300A23
:1025F00047312046002045300A0020452D32300A60
:10260000473120460020452D32300A473120460010
:102610000A47312046000A47312046004739322018
:1026200045004739322045004731204636303030AA
:10263000205A35300A473120583020592D36352060
:102640005A3530000A473120583020592D36352070
:102650005A000A473120583020592D3635205A006B
:102660004731204636303030205A00473120463638
:10267000303030205A00436F64653A0053442D6374
:10268000617264210072656164696E6700457272EF
:102690006F72207768696C650052455455524E2020
:1026A000544F204D41494E0081430081432020205A
:1026B000005072696E74657220636F6F6C696E672B
:1026C00020646F776E004241434B20544F204D45AC
:1026D0004E5500746865206D6F64656C2E00596FEF
:1026E000752063616E2072656D6F7665005072694A
:1026F0006E742066696E6973686564004241434B7D
:1027000020544F204D454E55004D3737342053252A
:102710006C640D0A004D3737332053256C640D0A65
:10272000004D373732205025690D0A002D2D3A2DE6
:102730002D3A2D2D00814300814300486561746965
:102740006E67206275696C64706C617465008143AA
:102750000081430048656174696E6700746F20638F
:102760006F6E74696E756500507265737320627563
:1027700074746F6E005072696E74696E673A0050BF
:10278000415553450054554E450050617573696E6F
:10279000672E2E2E0057616974696E67005061754F
:1027A000736520746865207072696E743F004E4FC7
:1027B000005945530025004D6174657269616C20B4
:1027C000666C6F7700250046616E207370656564E6
:1027D0000025005072696E74207370656564005442
:1027E000554E45006D6D00726574726163745F7A59
:1027F0006C696674006D6D2F736563005265747249
:10280000616374207370656564006D6D005265745A
:1028100072616374206C656E67746800524554522F
:10282000414354494F4E006D6D006D6D2F736563CC
:10283000006D6D003F3F3F0052657472616374200C
:102840005A6C6966740052657472616374207370A7
:102850006565640052657472616374206C656E67AF
:1028600074680052657475726E0081430081432F55
:1028700000436C69636B20746F2072657475726EAF
:10288000004E6F7A7A6C652074656D706572617444
:102890007572653A0025002500814300814300815F
:1028A0004300814300250052657472616374696F4F
:1028B0006E004D6174657269616C20666C6F7700A3
:1028C00046616E207370656564004275696C647062
:1028D0006C6174652074656D702E0054656D706553
:1028E0007261747572650053706565640052657439
:1028F00075726E00507265706172696E6720746FD8
:10290000207072696E743A0048656174696E672060
:1029100075702E2E2E0041424F525400473238001F
:10292000505245504152455F5052494E54494E47CE
:102930005F53544F52455F46494E495348005052E9
:1029400045504152455F5052494E54494E475F539E
:10295000544F52455F4C43445F4341434845005008
:102960005245504152455F5052494E54494E475F7F
:1029700053544F52455F53445F434C4153535F564A
:10298000414C494441544500505245504152455FE5
:102990005052494E54494E475F53544F52455F532E
:1029A000445F434C41535300505245504152455FA0
:1029B0005052494E54494E475F434C4541525F5334
:1029C000445550535F504F534954494F4E5F564101
:1029D0004C494441544500505245504152455F5086
:1029E00052494E54494E475F434C4541525F534410
:1029F0005550535F504F534954494F4E0050524524
:102A0000504152455F5052494E54494E475F494EDE
:102A100049540050726570617265205072696E741D
:102A2000696E673A0057414954494E4700707269D0
:102A30006E743F0077616E7420746F2072657375D9
:102A40006D650066696E69736865642E20446F2049
:102A5000796F75004C617374207072696E742069AF
:102A600073206E6F74004E4F0059455300526561DC
:102A700064696E6720636172642E2E2E00506C654F
:102A800061736520696E736572742063617264009E
:102A90004E6F2053442D43415244210068656967BD
:102AA00068742E006F72206D616E75616C6C792098
:102AB0007365742074686500436F6E74696E756524
:102AC00020746F20726573756D65004D414E5541E0
:102AD0004C00434F4E54494E554500437572726544
:102AE0006E74205A3A0043757272656E74205A3AB9
:102AF00000507265737320446F776E206F7220559B
:102B000050004C617374205072696E746564205A71
:102B10003A004C617374205072696E746564205A77
:102B20003A00434F4E54494E554500434F4E544989
:102B30004E554500473238006D616E75616C5F73AC
:102B400065617263685F73645F63617264003B4CCC
:102B5000415945523A004C617965723A003B4C410B
:102B60005945523A003B4C415945523A0053656130
:102B7000726368696E6720534420636172642E2E0D
:102B80002E0041424F52540072656C65617365209E
:102B9000437573746F6D00666F756E642043757353
:102BA000746F6D003B545950453A435553544F4D43
:102BB000003B545950453A435553544F4D003B54F4
:102BC0005950453A003B545950453A00666F756E6E
:102BD00064206600666F756E64206500666F756EB2
:102BE00064207A00666F756E64207900666F756E7A
:102BF000642078007364206572726F720053442001
:102C000073656172636820746F6F206C6F6E67000C
:102C100053442072656164206572726F720045458D
:102C200050524F4D2066696C6520706F73697469EE
:102C30006F6E0053445550532056616C6964617443
:102C4000652077726F6E670053445550535374611B
:102C500074652077726F6E67004D323520666F7530
:102C60006E64005A20646F65736E2774206D617402
:102C700063680043414E43454C004D323500534498
:102C80005550534C6173745A005344555053437517
:102C90007272656E74506F736974696F6E003B4C2D
:102CA000415945523A004C617965723A003B4C41BA
:102CB0005945523A007364206572726F7200536511
:102CC00061726368696E6720534420636172642E89
:102CD0002E2E0041424F5254003B4C415945523A2E
:102CE000004C617965723A00526574726976654983
:102CF0006E6465783A003B4C415945523A003B4C72
:102D0000415945523A00205A00205A0020590020CB
:102D100059000A47312058000A47312058004731EE
:102D2000205A004731205A004732380A4731310AC9
:102D30004731204636303030205A3230300072650C
:102D40006C6561736520437573746F6D00666F7594
:102D50006E6420437573746F6D003B545950453A4F
:102D6000435553544F4D003B545950453A435553E6
:102D7000544F4D003B545950453A003B545950452F
:102D80003A00666F756E64206600666F756E64202B
:102D90006500666F756E64207900666F756E6420DD
:102DA00078007364206572726F72004732380A4D82
:102DB000383400473932204525690A4731204625F5
:102DC00069204530004D383420582059205A20457C
:102DD000006563686F3A0043616E6E6F7420656EC4
:102DE000746572207375626469723A20004D3234E2
:102DF000004D3233202573006175746F25692E678D
:102E0000004572726F723A006572726F722077724B
:102E10006974696E6720746F2066696C6500436130
:102E20007264206572726F723A004E6F7420534460
:102E3000207072696E74696E67002F0053442070B1
:102E400072696E74696E67206279746520002E0065
:102E500044656C6574696F6E206661696C65642C8D
:102E60002046696C653A200046696C652064656C93
:102E7000657465643A002E006F70656E2066616946
:102E80006C65642C2046696C653A20005772697441
:102E9000696E6720746F2066696C653A20002E00A9
:102EA0006F70656E206661696C65642C2046696C84
:102EB000653A20002E006F70656E206661696C6552
:102EC000642C2046696C653A200046696C65207365
:102ED000656C6563746564002053697A653A200007
:102EE00046696C65206F70656E65643A20002E003F
:102EF0006F70656E206661696C65642C2046696C34
:102F0000653A200053442063617264206F6B006F48
:102F100070656E526F6F74206661696C65640076CF
:102F20006F6C756D652E696E6974206661696C657C
:102F30006400534420696E6974206661696C0054B2
:102F40004553540D0A000D0A00556E6B6E6F776E77
:102F500020636F6D6D616E643A20000D0A003F00C2
:102F600056657273696F6E20322E312E33500066B3
:102F7000697474696E67206572726F72207265661B
:102F8000696E6465643A0066697474696E67206589
:102F900072726F723A0073696E67756C6172206D40
:102FA0006174726978006563686F3A0020746F6FAE
:102FB000206C6F6E6720657874727573696F6E2010
:102FC00070726576656E7465640020636F6C642052
:102FD000657874727573696F6E2070726576656E50
:102FE0007465640020746F6F206C6F6E6720657865
:102FF00074727573696F6E2070726576656E746534
:10300000640020636F6C6420657874727573696FF7
:103010006E2070726576656E7465640045313A2085
:103020000045303A20005A3A2000593A2000583AD8
:1030300020004D53312C4D53322050696E730A00DD
:1030400024F404D9201BC40C5C0E9804C4095F024C
:1030500065077101F405F900FB04B300480487001B
:10306000C10369005803550003034500BE023A003E
:103070008402310053022A002902250004022000A4
:10308000E4011C00C8011900AF01170098011400E9
:1030900084011300710110006101100051010E0044
:1030A00043010D0036010B002B010B0020010B002A
:1030B000150109000C01090003010800FB000800CC
:1030C000F3000800EB000700E4000600DE00060045
:1030D000D8000600D2000600CC000500C70005009D
:1030E000C2000500BD000400B9000400B5000400E2
:1030F000B1000400AD000400A9000400A500030015
:10310000A20003009F0004009B000300980003003E
:103110009500020093000300900003008D00020060
:103120008B00030088000200860002008400030078
:10313000810002007F0002007D0002007B0002008F
:10314000790002007700010076000200740002009E
:1031500072000100710002006F0002006D000100AA
:103160006C0002006A0001006900020067000100B3
:1031700066000100650001006400020062000100B9
:1031800061000100600001005F0002005D000100BD
:103190005C0001005B0001005A00010059000100C1
:1031A00058000100570001005600010055000100C1
:1031B00054000100530000005300010052000100C0
:1031C00051000100500001004F0001004E000000BE
:1031D0004E0001004D0001004C0001004B000000BA
:1031E0004B0001004A0001004900010048000000B6
:1031F00048000100470001004600000046000100B1
:1032000045000000450001004400010043000000AB
:1032100043000100420000004200010041000000A4
:1032200041000100400001003F0000003F0001009C
:103230003E0000003E0001003D0000003D00010096
:103240003C0000003C0000003C0001003B0000008E
:103250003B0001003A0000003A0001003900000084
:10326000390001003800000038000000380001007B
:103270003700000037000100360000003600000073
:103280003600010035000000350000003500010067
:10329000340000003400000034000100330000005E
:1032A0003300000033000100320000003200000053
:1032B0003200010031000000310000003100010047
:1032C0003000000030000000300001002F0000003E
:1032D0002F0000002F0000002F0001002E00000032
:1032E0002E0000002E0001002D0000002D00000027
:1032F0002D0000002D0001002C0000002C0000001B
:103300002C0000002C0001002B0000002B0000000E
:103310002B0000002B0001002A0000002A00000002
:103320002A0000002A0001002900000029000000F6
:1033300029000000290000002900010028000000E9
:1033400028000000280000002800000028000100DC
:1033500027000000270000002700000027000000D1
:1033600027000100260000002600000026000000C3
:1033700026000000260001002500000025000000B6
:1033800025000000250000002500000025000100A8
:10339000240000002400000024000000240000009D
:1033A000240001002300000023000000230000008F
:1033B0002300000023000000230000002300010080
:1033C0002200000022000000220000002200000075
:1033D0002200000022000100210000002100000066
:1033E0002100000021000000210000002100000059
:1033F000210001002000000020000000200000004B
:10340000200000002000000020000000200000003C
:10341000200001001F0000001F0000001F0000002E
:103420001F0000001F0000001F0000001F0001001F
:103430001E0000001E0000001E0000001E00000014
:1034400024F4D43050C38E20C2A24017828B701156
:10345000127A910D816CD90AA861E108C7586607F4
:10346000615143061E4B5D05C145A7041A41110475
:10347000093D9803713931034036DB02653391020F
:10348000D4305402802E1D02632CEE01752AC50132
:10349000B028A001102781018F2564012B244B0146
:1034A000E0223401AC211F018D200D01801FFC00A2
:1034B000841EED00971DDF00B81CD200E61BC6007D
:1034C000201BBC00641AB200B219A8000A19A0009F
:1034D0006A189900D117910040178B00B516840027
:1034E00031167E00B31579003A157300C7146F00CA
:1034F00058146A00EE1366008813630025135E00FB
:10350000C7125B006C12570015125400C111510014
:1035100070114F0021114B00D61049008D1047004B
:103520004610440002104200C00F4000800F3E00D1
:10353000420F3C00060F3B00CB0E3800930E3700C5
:103540005C0E3500270E3400F30D3200C10D310042
:10355000900D3000600D2E00320D2D00050D2C0059
:10356000D90C2B00AE0C2900850C29005C0C27001F
:10357000350C27000E0C2600E80B2400C40B240099
:10358000A00B23007D0B23005A0B2100390B2100D7
:10359000180B2000F80A1F00D90A1E00BB0A1E00E3
:1035A0009D0A1D00800A1D00630A1C00470A1B00BB
:1035B0002C0A1B00110A1A00F7091A00DD0919006C
:1035C000C4091900AB091900920917007B091800FA
:1035D000630917004C091600360916002009160069
:1035E0000A091500F5081500E0081400CC081400BD
:1035F000B8081400A4081400900813007D081200F5
:103600006B08130058081200460812003408110015
:10361000230811001208110001081100F007100022
:10362000E0071000D0071000C0071000B0070F001F
:10363000A107100091070E0083070F0074070F0009
:1036400065070E0057070E0049070E003B070D00E7
:103650002E070E0020070D0013070D0006070D00B2
:10366000F9060C00ED060D00E0060C00D4060C0077
:10367000C8060C00BC060C00B0060C00A4060B002B
:1036800099060C008D060B0082060B0077060B00D6
:103690006C060B0061060A0057060B004C060A0078
:1036A00042060A0038060A002E060A0024060A000E
:1036B0001A060A001006090007060A00FD0509009F
:1036C000F4050900EB050900E2050900D905090028
:1036D000D0050900C7050900BE050900B5050800A9
:1036E000AD050800A50509009C0508009405080023
:1036F0008C050800840508007C0508007405080096
:103700006C050700650508005D0507005605080003
:103710004E0507004705070040050800380507006B
:10372000310507002A050700230507001C050600D0
:10373000160507000F05070008050600020507002B
:10374000FB040600F5040700EE040600E80406008A
:10375000E2040700DB040600D5040600CF040600DF
:10376000C9040600C3040600BD040600B704060031
:10377000B1040500AC040600A6040600A004050080
:103780009B04060095040500900406008A040500C9
:1037900085040500800406007A0405007504050010
:1037A000700405006B040500660405006104050053
:1037B0005C04050057040500520405004D04050093
:1037C00048040500430405003E0404003A040500D3
:1037D00035040500300404002C040500270404000F
:1037E000230405001E0404001A0404001604050046
:1037F000110404000D04040009040500040404007D
:1038000000040400FC030400F8030400F4030400B3
:10381000F0030400EC030400E8030400E4030400E4
:10382000E0030400DC030400D8030400D403040014
:10383000D0030400CC030400C8030300C503030045
:103840006563686F3A00205A3A0020593A002058C0
:103850003A00656E6473746F7073206869743A20FF
:10386000004572726F723A0054656D7065726174D2
:103870007572652068656174656420626564207393
:1038800077697463686564206F66662E204D4158C1
:1038900054454D50207472696767657265642021D4
:1038A00021003A20457874727564657220737769D7
:1038B0007463686564206F66662E204D494E5445DA
:1038C0004D50207472696767657265642021003A03
:1038D00020457874727564657220737769746368C3
:1038E0006564206F66662E204D415854454D50202A
:1038F000747269676765726564202100202D204914
:103900006E76616C69642065787472756465722086
:103910006E756D62657220210070012C0190012787
:1039200001B0012201C0011D01F0011801100213B4
:103930000130020E016002090190020401C002FF81
:10394000000003FA004003F5008003F000D003EB11
:10395000002004E6007004E100E004DC004005D72C
:1039600000C005D2004006CD00D006C8008007C3C5
:10397000003008BE00F008B900C009B400B00AAFBA
:1039800000B00BAA00D00CA500000EA000500F9BA9
:1039900000C01096005012910000148C00C01587D2
:1039A00000B0178200B0197D00D01B7800001E7394
:1039B0000040206E0090226900F024640040275FE0
:1039C0000090295A00E02B5500102E500020304B5B
:1039D0000010324600E033410090353C001037378C
:1039E0000070383200A0392D00B03A2800A03B23E7
:1039F00000603C1E00103D1900903D1400103E0F69
:103A000000703E0A00C03E0500003F00004578748B
:103A10007275646572207377697463686564206F7A
:103A200066662E2054656D706572617475726520CE
:103A3000646966666572656E636520626574776544
:103A4000656E2074656D702073656E736F72732080
:103A5000697320746F6F20686967682021004D3793
:103A60003737205025690D0A004D3737362050254D
:103A7000690D0A004D373735205025690D0A004D74
:103A8000373731205325690D0A004D373730205321
:103A900025690D0A00504944204175746F74756E94
:103AA000652066696E6973686564212050757420AD
:103AB000746865204B702C204B6920616E64204B2C
:103AC0006420636F6E7374616E747320696E746FBB
:103AD00020436F6E66696775726174696F6E2E68D8
:103AE00000504944204175746F74756E652066619D
:103AF000696C6564212074696D656F757400204080
:103B00003A006F6B20543A006F6B20423A005049E4
:103B100044204175746F74756E65206661696C65CB
:103B200064212054656D70657261747572652074CE
:103B30006F6F206869676800204B643A2000204B53
:103B4000693A2000204B703A200020436C61736971
:103B5000632050494420002054753A2000204B75C2
:103B60003A2000206D61783A2000206D696E3A207D
:103B70000020643A200020626961733A200000004E
:103B800000006700010054010700DD010F009402EE
:103B90001500C1031C00EC042400FC083E002011A9
:103BA0006E00A31278001514820095158C00E9169A
:103BB00096007518A000E519AA00661BB400C11C88
:103BC000BE00311EC800921FD2000321DC0041223A
:103BD000E600C723F0003D48F40102000021002464
:103BE0000027002A002D00300033000101000004EE
:103BF0000107010A0100002200250028002B002EE9
:103C0000003100340002010000050108010B010031
:103C10000020002300260029002C002F0032000085
:103C20000100000301060109010505050507050856
:103C3000080808020202020A0A080804040404012F
:103C40000101010101010103030303030303030451
:103C50000707070C0C0C0C0C0C0C0C0202020206E1
:103C6000060606060606060B0B0B0B0B0B0B0B01D1
:103C7000021020200808102040102040800201027D
:103C80000108040201010204081020408080402045
:103C90001008040201800402018040201008040280
:103CA00001080402010102040810204080010204FE
:103CB00008102040800000090A02080B0C0D0706BE
:103CC00003040100000000000000000000000000EC
:103CD00000000000000000000000000000000000E4
:103CE0000011100F000000000000000000000000A4
:103CF0000000000000000000000000494E46494E50
:103D00004954594E414ECDCCCC3D0AD7233C17B730
:103D1000D13877CC2B329595E6241FB14F0A00009D
:103D200020410000C84200401C4620BCBE4CCA1BBB
:103D30000E5AAEC59D7400407A10F35A00A0724E20
:103D400018090010A5D4E80000E87648170000E440
:103D50000B54020000CA9A3B000000E1F505000088
:103D600080969800000040420F000000A0860100ED
:103D70000000102700000000E803000000006400BD
:103D8000000000000A000000000001000000000028
:103D90002C76D888DC674F0823DFC1DFAE59E1B14C
:103DA000B796E5E3E453C63AE651997696E8E6C25B
:103DB0008426EB898C9B62ED407C6FFCEFBC9C9F62
:103DC00040F2BAA56FA5F490055A2AF75C936B6C84
:103DD000F9676DC11BFCE0E40D47FEF520E6B50078
:103DE000D0ED902E0300943577050080841E0800E6
:103DF00000204E0A000000C80C333333330F986E96
:103E000012831141EF8D2114893BE65516CFFEE652
:103E1000DB18D1844B381BF77C1D901DA4BBE42418
:103E2000203284725E228100C9F124ECA1E53D2795
:103E30000D941D030D945F060D9488050D94D633E3
:103E40000D9487200D947B230D94EF050D946F2323
:103E50000D9457340D946E070D94220E0D94473433
:103E60000D94981D0D9421020D9459340D945534E0
:103E70000D940F190D9472080D9453340D944F3412
:103E80000D94EC330D9499190D94B9330D944A1097
:103E90000D9421270D9449340D945B340D943834DE
:103EA0000D94FA330D945F340D94DA330D94C903F5
:103EB0000D9422340D947A0E0D94DE330D946134FA
:103EC0000D94C5170D944A270D9499180D947302FB
:103ED0000D947D120D9463340D9416010D94D20E41
:103EE0000D94620F0D948E040D949B140D945F132A
:103EF0000D94970D0D94DC060D9402070D94F2338A
:103F00000D94C4060D9445340D94FE060D945E0781
:103F10000D948D020D944F040D941B0C0D94CB1237
:103F20000D944F250D941A340D94CE330D947226B2
:103F30000D945A1B0D940A340D944F000D944B347C
:103F40000D94660B0D94BC330D94BE0B0D94CA33C7
:103F50000D9451340D94D2330D945D340D949A0F19
:103F60000D942D340D94D8060D94E7330D94C8802C
:103F70000D94E9010D948B0B0D9402340D94E233F2
:103F80000D94E2010D944D340D941234BB34783805
:103F9000733811241FBECFEFD1E2DEBFCDBF00E0EA
:103FA0000CBF14E0A0E0B2E0EEEEFCE103E00BBFDA
:103FB00002C007900D92A03AB107D9F71BBE1AE1D3
:103FC000A0EAB4E001C01D92AE3FB107E1F71FE3E4
:103FD000C0E9DFE304C02297FE010F941D8ECC38A8
:103FE000D107C9F70F9486400D946B8E0C94000096
:103FF000EF92FF920F931F93F22FF02E47FD02C016
:10400000E4E001C0E4E1242F332727FD309537FF9A
:1040100003C0309521953F4F4F2D512F0F2FEE2E7E
:1040200000D68F2D912F1F910F91FF90EF90089543
:10403000A0E0B0E0EEE1F0E20D943A8EEC015B011D
:104040006115710519F0FB0191838083F9908F2D23
:1040500090E00F94218E892BC9F7FDE2FF1621F421
:10406000F990EE24E39405C02BE2F21609F4F990DE
:10407000EE248E0101501040C8016BEF7CE343E059
:1040800050E0C9D2892BF9F48E010E5F1F4FC80191
:104090006EEF7CE345E050E0BED2892B19F48E012F
:1040A000095F1F4FA114B10419F0F50111830083BA
:1040B000E0FC04C070E090E080E813C070E090E0A5
:1040C00080E86FEF07C1C80163E07DE343E050E0A3
:1040D000A2D2892B69F4A114B10429F470E090E014
:1040E00080EC6FE7F7C02296F501D183C083F6CF4D
:1040F0008824992440E050E060E070E0EF2DE05328
:10410000EA30A0F5F2E0EF2A8E2D90E09C012870B5
:104110003070E2FE06C0232B79F50894811C911CB7
:104120002BC0232B19F0089481089108DB01CA01E8
:1041300012E0880F991FAA1FBB1F1A95D1F7480FCD
:10414000591F6A1F7B1F440F551F661F771F4E0F95
:10415000511D611D711D483929E9520729E962077E
:1041600029E1720748F084E0E82A06C0EE3F31F406
:10417000E3FC39C098E0E92AF990C0CFE53311F0AB
:10418000E53189F529912D3219F4E0E1EE2A05C0D7
:104190002B3219F081E090E003C0299182E090E099
:1041A000E22FE053EA3018F0C81BD90B1CC020E006
:1041B00030E0FCE020383F075CF4C901880F991F0C
:1041C000880F991F280F391F220F331F2E0F311D03
:1041D000E991E053EA3068F3E4FE03C0309521959D
:1041E0003F4F820E931ECE2CDD24E1FE07C0A114AA
:1041F000B10421F02197F501D183C083CB01BA012D
:104200000F94768A7B018C01F3E0CF22DD2423E03A
:10421000C216D10421F417FB109517F91095570118
:104220006801C801B70120E030E040E050E00F94A1
:10423000D689882309F44AC097FE0DC02AE1E22EF0
:104240002DE3F22E9094819491089394C0E2D0E0F3
:1042500000E010E012C092E3E92E9DE3F92EF6CFC4
:10426000F7012591359145915491C601B5010F94FF
:10427000B68C5B016C018C1A9D0A8C169D0684F726
:10428000D595C7950F5F1F4F0630110529F08CEFAC
:104290009FEFE80EF91EF1CFC501D6017C018D011B
:1042A0008C2D880F8D2D881F8F3F51F0C601B501D1
:1042B00020E030E040E050E00F94D689882331F4CC
:1042C00082E290E09093FD1A8093FC1A7E2D9F2D40
:1042D000802F612F272F392F482F562FB901CA0160
:1042E000CDB7DEB7ECE00D94568E2F923F925F92E1
:1042F0006F927F928F929F92AF92BF92CF92DF92F6
:10430000EF92FF920F931F93CF93DF938C011B01CA
:10431000EA016115710519F0FB01918380832097F3
:1043200049F0CE010297839728F020E030E040E08A
:1043300050E0F6C0F801A1908F018A2D90E00F9413
:10434000218E892BB9F7FDE2AF1631F4F801A19067
:104350008F015524539407C0FBE2AF1619F4F801FE
:10436000A1908F015524209719F0C031D105C1F4D7
:10437000F0E3AF1679F4F8018081883711F08835C1
:1043800049F4F801A1800E5F1F4FF2E05F2AC0E1FF
:10439000D0E006C0209721F480E3A816E9F427C0F6
:1043A000C830D10531F1C930D10524F4C230D1056E
:1043B00031F50CC0CA30D10589F0C031D105F9F40E
:1043C000C12CD12CE12CB8E0FB2E28C0C12CD12C63
:1043D000E12CA0E4FA2E22C0CAE0D0E0FCECCF2E03
:1043E000FCECDF2EFCECEF2EFCE0FF2E17C0C8E04B
:1043F000D0E0C12CD12CE12CE0E1FE2E0FC09E01BB
:10440000442737FD4095542F60E070E080E090E84D
:104410000F94CA8DC901DA016C017D0120E030E002
:1044200040E050E060E03E01882477FC8094982CC6
:1044300070EDB72EBA0CE9E0EB1570F48A2D8154BB
:104440008A3118F499ECB92E06C08A2D81568A312A
:1044500050F589EAB82EBA0C8B2D90E08C179D0789
:1044600014F56F3FE1F0C216D306E406F506B0F08E
:10447000CA01B901A40193010F948C8D9B01AC0179
:104480002B0D311D411D511D2130F0E03F07F0E0A3
:104490004F07F0E85F0710F461E001C06FEFF8012B
:1044A000A1908F01C5CF2114310481F0662331F032
:1044B00001501040F1011183008308C051FE1AC061
:1044C00002501040F1011183008314C067FF12C035
:1044D00050FC05C02FEF3FEF4FEF5FE704C020E037
:1044E00030E040E050E882E290E09093FD1A809343
:1044F000FC1A16C050FE08C0509540953095219585
:104500003F4F4F4F5F4F0CC057FF0AC082E290E011
:104510009093FD1A8093FC1A2FEF3FEF4FEF5FE768
:10452000B901CA01DF91CF911F910F91FF90EF90D8
:10453000DF90CF90BF90AF909F908F907F906F90C3
:104540005F903F902F900895FC0188279927E89469
:1045500021912032E9F3293010F02E30C8F32B32AC
:1045600039F02D3231F4689403C060D1820F911D6F
:10457000219120532A30C8F31EF4909581959F4FC6
:1045800008951F93FC0199278827BC01E894119195
:104590001032E9F3193010F01E30C8F31B3249F025
:1045A0001D3241F4689405C02CD1610F711D811D2D
:1045B000911D119110531A30B8F33EF490958095E7
:1045C000709561957F4F8F4F9F4F1F910895FC010C
:1045D0000590061621F00020D9F7C0010895319703
:1045E000CF010895FB01DC018D9105908019011028
:1045F000D9F3990B0895FB01DC0105900D92002081
:10460000E1F70895FC0105900020E9F78095909569
:104610008E0F9F1F0895FB01DC014150504088F030
:104620008D9181341CF08B350CF4805E6591613482
:104630001CF06B350CF4605E861B611171F3990BF5
:104640000895881BFCCFFB01DC014150504030F045
:104650008D910590801919F40020B9F7881B990BEA
:104660000895FB01DC014150504048F005900D9247
:104670000020C9F701C01D9241505040E0F7089555
:10468000FB0155915523A9F0BF01DC014D91451760
:104690004111E1F759F4CD010590002049F04D9109
:1046A00040154111C9F3FB014111EFCF81E090E0CA
:1046B00001970895FB01DC012150304030F001905A
:1046C0000D920416C9F7CD010895882799270895FA
:1046D000FB01DC0104C08D910190801921F441504F
:1046E0005040C8F7881B990B0895FB01DC0102C0FC
:1046F00001900D9241505040D8F70895FB01DC0124
:104700000D900020E9F7119701900D920020E1F73C
:104710000895FC018191861721F08823D9F7992704
:1047200008953197CF010895FB01DC0101900D92AE
:104730000020E1F70895FB01DC014150504030F0CA
:104740008D910190801919F40020B9F7881B990BFD
:104750000895FB01DC014150504048F001900D925A
:104760000020C9F701C01D9241505040E0F7089564
:10477000FC016150704001900110D8F78095909530
:104780008E0F9F1F0895FC0181E090E001900616B6
:1047900009F4CF010020D1F701970895FA01CF93D2
:1047A000FF93EF93223044F1253234F5C22FE89481
:1047B000CA3049F497FB3EF49095809570956195C9
:1047C0007F4F8F4F9F4F2C2F332744275527FF9321
:1047D000EF930F94CA8DEF91FF91605D6A330CF0F7
:1047E000695D6193B901CA0160507040804090409A
:1047F00051F716F4CDE2C19310828F919F91CF9122
:1048000054C4592F482F372F262F660F771F881F24
:10481000991F660F771F881F991F620F731F841FD0
:10482000951F660F771F881F991F08957AE0979F3D
:10483000902D879F802D910D11240895AEE0B0E05A
:10484000E4E2F4E20D94428E0E891F898EE08C839F
:104850001A8309838FEF9FE79E838D839E01265ED7
:104860003F4FCE010196688D798DA9010AD02F8125
:104870003885020F131FF80110822E96E4E00D9484
:104880005E8EABE0B0E0E7E4F4E20D94348E3C01E0
:104890002B015A01FC0117821682838181FD03C01E
:1048A0006FEF7FEFB9C19AE0892E1E010894211C99
:1048B000311CF3012381F20123FD859123FF8191B6
:1048C0002F01882309F4A5C1853239F423FD859190
:1048D00023FF81912F01853221F490E0B301F5D3BC
:1048E000E8CF982FFF24EE249924FFE1FF15D0F0A4
:1048F0009B3269F09C3228F4903259F0933291F453
:104900000EC09D3249F0903369F441E024C052E07A
:10491000F52A84E0F82A28C098E0F92A25C0E0E1C9
:10492000FE2A22C0F7FC29C0892F80538A3070F4F8
:10493000F6FE05C0989C902C1124980E15C0E89C9A
:10494000E02C1124E80EF0E2FF2A0EC09E3229F47A
:10495000F6FC5FC140E4F42A07C09C3619F450E825
:10496000F52A02C0983649F4F20123FD959123FF00
:1049700091912F01992309F0B8CF892F8554833065
:1049800018F08052833038F444E050E0A40EB51E95
:104990005FE359830FC0933631F0933779F0933545
:1049A00009F052C01FC0F5018081898342E050E0C8
:1049B000A40EB51E610101E010E011C0F501C08038
:1049C000D180F6FC03C06FEF7FEF02C0692D70E06D
:1049D00042E050E0A40EB51EC601CADE8C015FE7BE
:1049E000F52213C0F501C080D180F6FC03C06FEF43
:1049F0007FEF02C0692D70E042E050E0A40EB51ECA
:104A0000C60148D38C0150E8F52AF3FE06C018C051
:104A100080E290E0B30159D3EA948E2D90E008171C
:104A20001907B0F30DC0F601F7FC8591F7FE8191EF
:104A30006F0190E0B30149D3E110EA9401501040B6
:104A40000115110581F7E2C0943611F0993661F530
:104A5000F7FE08C0F501208131814281538184E055
:104A600090E00AC0F501808191819C01442737FDC7
:104A70004095542F82E090E0A80EB91E9FE6F922DF
:104A800057FF09C050954095309521953F4F4F4FA6
:104A90005F4FE0E8FE2ACA01B901A1012AE030E037
:104AA00040D3D82ED2183FC0953729F41F2D1F7E32
:104AB0002AE030E01DC01F2D197F9F3661F090372E
:104AC00020F4983509F0A5C00FC0903739F0983719
:104AD00009F09FC004C028E030E00AC0106114FD56
:104AE000146020E130E004C014FD166020E132E0E3
:104AF00017FF08C0F501608171818281938144E0D4
:104B000050E008C0F50180819181BC0180E090E017
:104B100042E050E0A40EB51EA10103D3D82ED21856
:104B20008FE7F82EF122F6FE0BC05EEFF522D914C6
:104B300038F4F4FE07C0F2FC05C08FEEF82202C084
:104B40001D2D01C0192DF4FE0DC0FE01ED0DF11D4E
:104B50008081803319F499EEF92208C01F5FF2FEBC
:104B600005C003C08F2D867809F01F5F0F2DF3FC61
:104B700013C0F0FE0EC01E1510F09D2C0AC09D2C17
:104B80009E0C911A1E2D05C080E290E0B3019DD2CB
:104B90001F5F1E15C8F304C01E1510F4E11A01C0F2
:104BA000EE2404FF0EC080E390E0B3018ED202FF3A
:104BB0001BC001FD03C088E790E00EC088E590E0CF
:104BC0000BC0802F867881F001FF02C08BE201C00C
:104BD00080E2F7FC8DE290E0B30177D205C080E37C
:104BE00090E0B30172D29A94D914C8F3DA94F10127
:104BF000ED0DF11D808190E0B30167D2DD20B1F7AA
:104C000005C080E290E0B30160D2EA94EE20C9F7DB
:104C100050CEF30166817781CB012B96E2E10D94B2
:104C2000508EA9E0B0E0E7E1F6E20D94388E6A011B
:104C3000122FA02EBE2C2BE3201718F42CE3922E5B
:104C400002C0902E9394AE014F5F5F4F27E0092D75
:104C500049D1BC018981E82EFF24C7018970907079
:104C6000019711F4ADE209C0B1FE02C0ABE205C08C
:104C7000B0FC02C0A0E001C0A0E2E3FE3BC0AA235A
:104C800011F423E001C024E0211710F020E002C05D
:104C9000121B212FEB2CB4FE02C0322F0AC0F601EA
:104CA000322F80E202C0819331503323E1F7C20EEC
:104CB000D11CAA2319F0F601A1936F01F6013196D8
:104CC000E2FE05C09EE4D6019C9381E404C09EE60A
:104CD000D6019C9381E611968C9391833296DF01E5
:104CE000832F90E202C09D9381508823E1F7E30F68
:104CF000F11D40C0E2FE42C0AA2311F423E001C02E
:104D000024E0211710F020E002C0121B212FEB2C11
:104D1000B4FE02C0922F0AC0F601922F80E202C0B8
:104D2000819391509923E1F7C20ED11CAA2319F067
:104D3000F601A1936F01F6013196E2FE08C089E405
:104D4000D6018C938EE411968C9386E407C089E695
:104D5000D6018C938EE611968C9386E681833296EB
:104D6000DF01892F20E202C02D9381508823E1F7D3
:104D7000E90FF11D10822EEF3FEFAFC01616170698
:104D80001CF041E050E003C0AB014F5F5F4FAA2031
:104D900019F480E090E003C08A2D90E0019620E0B5
:104DA00030E0AA2311F021E030E0240F351F280F56
:104DB000391F812F90E02817390714F020E002C036
:104DC000121B212F4B2D50E0CA0180719070B4FC52
:104DD0000DC0B3FC0BC0F601322F40E202C041937C
:104DE00031503323E1F7C20ED11C01C0322FAA2368
:104DF00019F0F601A1936F01892B11F0132F0AC04E
:104E0000F601132F80E302C0819311501123E1F7C3
:104E1000C30ED11C092D060FBA8090E1892E912C6A
:104E20008E209F20E4FE04C0F1E3BF1609F4015078
:104E3000101614F001E003C0093008F008E09B01EF
:104E400077FF02C020E030E0CB010196821B930B7C
:104E5000FE013196E80FF91F8EE2F82E3B01601A31
:104E600071088A2D90E044275527481B590B8FEF76
:104E70002F3F380719F4D601FD926D0162177307B1
:104E80002CF06216730614F4808101C080E3215077
:104E9000304031962417350724F0D6018D936D01EB
:104EA000E6CF2617370749F4B5E3BB1528F0BB1644
:104EB00021F48114910409F481E3F6018193D60170
:104EC000812F90E202C09C93815011968823D9F7DC
:104ED000E10FF11D108220E030E0C9012996EEE0DB
:104EE0000D94548E283008F027E03327DA01990F0B
:104EF000311D87FD916000966105710539F43260BE
:104F00002E5F3D9330E32A95E1F708959F3F30F0FF
:104F100080387105610509F03C5F3C5F3D9391303D
:104F200008F08068911DDF93CF931F930F93FF923A
:104F3000EF92192F987F9695E92F96959695E90F00
:104F4000FF27E057F24C99273327EE24FF24A701CF
:104F5000E70105900894079428F4360FE71EF81E21
:104F6000491F511D660F771F881F991F0694A1F7CF
:104F70000590079428F4E70EF81E491F561FC11D1F
:104F8000770F881F991F661F0694A1F70590079455
:104F900028F4F80E491F561FC71FD11D880F991FEF
:104FA000661F771F0694A1F70590079420F4490F18
:104FB000561FC71FD81F990F661F771F881F06949B
:104FC000A9F784911095177041F0D695C79557951C
:104FD0004795F794E7941A95C1F7E6E3FDE36894E3
:104FE0001590159135916591959105907FE2739596
:104FF000E118F10A430B560BC90BD009C0F7E10CBD
:10500000F11E431F561FC91FD01D7EF4703311F4CB
:105010008A95E6CFE894015030F0080F0AF4002793
:10502000021708F4202F2395022F7A3328F079E312
:105030007D932A95E9F710C07D932A9589F6069409
:1050400097956795379517951794E118F10A430BD3
:10505000560BC90BD00998F023957E9173957A333E
:1050600008F070E37C932013B8F77E9170617D9314
:1050700030F0839571E37D9370E32A95E1F7112475
:10508000EF90FF900F911F91CF91DF91992787FDAE
:1050900090950895FC010590615070400110D8F77B
:1050A000809590958E0F9F1F0895DC01FC01672F5E
:1050B00071917723E1F7329704C07C916D937083EF
:1050C0006291AE17BF07C8F308950F931F93CF9354
:1050D000DF938C01EB018B8181FF1BC082FF0DC030
:1050E0002E813F818C819D812817390764F4E881E6
:1050F000F9810193F983E88306C0E885F985802F5B
:105100001995892B31F48E819F8101969F838E831F
:1051100002C00FEF1FEFC801DF91CF911F910F91D8
:105120000895FA01AA27283051F1203181F1E8943D
:105130006F936E7F6E5F7F4F8F4F9F4FAF4FB1E08A
:105140003ED0B4E03CD0670F781F891F9A1FA11D85
:10515000680F791F8A1F911DA11D6A0F711D811D86
:10516000911DA11D20D009F468943F912AE0269F4B
:1051700011243019305D3193DEF6CF010895462FAA
:105180004770405D4193B3E00FD0C9F7F6CF462F8B
:105190004F70405D4A3318F0495D31FD40524193F4
:1051A00002D0A9F7EACFB4E0A695979587957795B1
:1051B0006795BA95C9F700976105710508959B0138
:1051C000AC010A2E06945795479537952795BA95C1
:1051D000C9F7620F731F841F951FA01D0895DC017E
:1051E000FB018D919C9111972081F999FECF1FBAF7
:1051F00092BD81BD20BD0FB6F894FA9AF99A0FBE00
:10520000019611969C938E934150504011F0319627
:10521000E8CF0895FC01DB0120813181F999FECFAF
:1052200032BD21BDF89A80B58C9380819181019621
:10523000918380834150504011F01196EDCF089535
:10524000DF93CF93CDB7DEB764970FB6F894DEBF88
:105250000FBECDBF8091000290910102A091020289
:10526000B09103028D879E87AF87B88BFE013D9674
:1052700024E630E08081F999FECF1FBA32BD21BD0E
:1052800080BD0FB6F894FA9AF99A0FBE2F5F3F4F80
:105290002836310511F03196EDCFEDEBF4E1808148
:1052A000F999FECF1FBA32BD21BD80BD0FB6F8946B
:1052B000FA9AF99A0FBE2F5F3F4F2837310511F048
:1052C0003196EDCFEDEAF4E18081F999FECF1FBA76
:1052D00032BD21BD80BD0FB6F894FA9AF99A0FBE7F
:1052E0002F5F3F4F2838310511F03196EDCFE1EDBA
:1052F000F4E18081F999FECF1FBA32BD21BD80BD96
:105300000FB6F894FA9AF99A0FBE2F5F3F4F2839DB
:10531000310511F03196EDCFE5EEF4E18081F99998
:10532000FECF1FBA32BD21BD80BD0FB6F894FA9AE8
:10533000F99A0FBE2F5F3F4F2C39310511F031968E
:10534000EDCFE9EEF4E18081F999FECF1FBA32BDCD
:1053500021BD80BD0FB6F894FA9AF99A0FBE2F5F5F
:105360003F4F203A310511F03196EDCFE1EEF4E1F7
:105370008081F999FECF1FBA32BD21BD80BD0FB625
:10538000F894FA9AF99A0FBE2F5F3F4F243A3105ED
:1053900011F03196EDCFE9EFF4E18081F999FECF7C
:1053A0001FBA32BD21BD80BD0FB6F894FA9AF99AA2
:1053B0000FBE2F5F3F4F283A310511F03196EDCFE8
:1053C000E9EAF4E18081F999FECF1FBA32BD21BD2F
:1053D00080BD0FB6F894FA9AF99A0FBE2F5F3F4F2F
:1053E0002C3A310511F03196EDCFEDEEF4E18081EC
:1053F000F999FECF1FBA32BD21BD80BD0FB6F8941A
:10540000FA9AF99A0FBE2F5F3F4F203B310511F0FA
:105410003196EDCFE1EFF4E18081F999FECF1FBA2B
:1054200032BD21BD80BD0FB6F894FA9AF99A0FBE2D
:105430002F5F3F4F243B310511F03196EDCFE5EF63
:10544000F4E18081F999FECF1FBA32BD21BD80BD44
:105450000FB6F894FA9AF99A0FBE2F5F3F4F283B88
:10546000310511F03196EDCFE9E3F7E08081F9994C
:10547000FECF1FBA32BD21BD80BD0FB6F894FA9A97
:10548000F99A0FBE2F5F3F4F243C310511F0319642
:10549000EDCF8CED90E09A83898386E490E09C8345
:1054A0008B831E821D8280EF90E098878F8384E635
:1054B00090E09A8789871C861B86FE013196808141
:1054C000F999FECF1FBA32BD21BD80BD0FB6F89449
:1054D000FA9AF99A0FBE2F5F3F4F263C310571F7BC
:1054E000FE0133968081F999FECF1FBA32BD21BDEE
:1054F00080BD0FB6F894FA9AF99A0FBE2F5F3F4F0E
:10550000283C310511F03196EDCFFE0135968081B2
:10551000F999FECF1FBA32BD21BD80BD0FB6F894F8
:10552000FA9AF99A0FBE2F5F3F4F2A3C310511F0CE
:105530003196EDCFFE0137968081F999FECF1FBAE3
:1055400032BD21BD80BD0FB6F894FA9AF99A0FBE0C
:105550002F5F3F4F2C3C310511F03196EDCFFE010E
:1055600039968081F999FECF1FBA32BD21BD80BD29
:105570000FB6F894FA9AF99A0FBE2F5F3F4F2E3C60
:10558000310511F03196EDCFFE013B968081F999FE
:10559000FECF1FBA32BD21BD80BD0FB6F894FA9A76
:1055A000F99A0FBE2F5F3F4F203D310511F0319624
:1055B000EDCFE8E0F4E08081F999FECF1FBA32BD6B
:1055C00021BD80BD0FB6F894FA9AF99A0FBE2F5FED
:1055D0003F4F243D310511F03196EDCFECE0F4E082
:1055E0008081F999FECF1FBA32BD21BD80BD0FB6B3
:1055F000F894FA9AF99A0FBE2F5F3F4F283D310574
:1056000011F03196EDCFE0E1F4E08081F999FECF21
:105610001FBA32BD21BD80BD0FB6F894FA9AF99A2F
:105620000FBE2B3D310521F02F5F3F4F3196EDCF5F
:105630002091E103F999FECF1FBA8CED90E092BD65
:1056400081BD20BD0FB6F894FA9AF99A0FBE209149
:105650006E0EF999FECF1FBA8DED90E092BD81BD1F
:1056600020BD0FB6F894FA9AF99A0FBEE4EEF3E172
:105670008EED90E02081F999FECF1FBA92BD81BDD9
:1056800020BD0FB6F894FA9AF99A0FBE0196823EA1
:10569000910511F03196EECFE8EEF3E12081F99912
:1056A000FECF1FBA92BD81BD20BD0FB6F894FA9A05
:1056B000F99A0FBE0196863E910511F03196EECF14
:1056C000EFEEF3E02081F999FECF1FBA92BD81BDC4
:1056D00020BD0FB6F894FA9AF99A0FBE01968A3E49
:1056E000910511F03196EECFE2E1FAE02081F999CF
:1056F000FECF1FBA92BD81BD20BD0FB6F894FA9AB5
:10570000F99A0FBE01968E3E910511F03196EECFBB
:10571000ECEEF3E12081F999FECF1FBA92BD81BD75
:1057200020BD0FB6F894FA9AF99A0FBE0196823FFF
:10573000910511F03196EECFE0EFF3E12081F99978
:10574000FECF1FBA92BD81BD20BD0FB6F894FA9A64
:10575000F99A0FBE0196863F910511F03196EECF72
:10576000E3EFF3E02081F999FECF1FBA92BD81BD2E
:1057700020BD0FB6F894FA9AF99A0FBE01968A3FA7
:10578000910511F03196EECFECEFF3E12081F9991C
:10579000FECF1FBA92BD81BD20BD0FB6F894FA9A14
:1057A000F99A0FBE019621E08A31920711F03196E5
:1057B000EDCFE6ECF3E02081F999FECF1FBA92BD60
:1057C00081BD20BD0FB6F894FA9AF99A0FBE0196E2
:1057D00021E08E31920711F03196EDCFEAECF3E043
:1057E0002081F999FECF1FBA92BD81BD20BD0FB6B1
:1057F000F894FA9AF99A0FBE019621E08232920744
:1058000011F03196EDCFE2EDF3E02081F999FECF72
:105810001FBA92BD81BD20BD0FB6F894FA9AF99ACD
:105820000FBE21E08532920719F001963196EDCF37
:105830008091040290910502A0910602B0910702A6
:10584000898B9A8BAB8BBC8BFE01719684E690E0C2
:105850002081F999FECF1FBA92BD81BD20BD0FB640
:10586000F894FA9AF99A0FBE8736910519F00196C5
:105870003196EECFEDE7F1E0949108C08091C00041
:1058800085FFFCCF9093C600319694919923B1F790
:10589000E8ECF3E0949108C08091C00085FFFCCF54
:1058A0009093C600319694919923B1F78091C000EE
:1058B00085FFFCCF8AE08093C60064960FB6F8940B
:1058C000DEBF0FBECDBFCF91DF910895DF93CF93A1
:1058D000CDB7DEB7E0970FB6F894DEBF0FBECDBFF1
:1058E000DE011196E5E4F4E080E101900D92815033
:1058F000E1F7DE015196E5E3F4E080E101900D92DD
:105900008150E1F7DE019196E5E2F4E080E101905B
:105910000D928150E1F789819A81AB81BC8180939E
:10592000BD149093BE14A093BF14B093C014898982
:105930009A89AB89BC898093AD149093AE14A093DF
:10594000AF14B093B01489A19AA1ABA1BCA180936C
:10595000D1149093D214A093D314B093D4148D8106
:105960009E81AF81B8858093C1149093C214A09397
:10597000C314B093C4148D899E89AF89B88D809368
:10598000B1149093B214A093B314B093B4148DA136
:105990009EA1AFA1B8A58093D5149093D614A093DF
:1059A000D714B093D81489859A85AB85BC8580932C
:1059B000C5149093C614A093C714B093C814898DCE
:1059C0009A8DAB8DBC8D8093B5149093B614A09333
:1059D000B714B093B81489A59AA5ABA5BCA58093BC
:1059E000D9149093DA14A093DB14B093DC148D8552
:1059F0009E85AF85B8898093C9149093CA14A093EB
:105A0000CB14B093CC148D8D9E8DAF8DB8A18093A7
:105A1000B9149093BA14A093BB14B093BC148DA581
:105A20009EA5AFA5B8A98093DD149093DE14A09332
:105A3000DF14B093E0140F947C4580E090E0AAEF6F
:105A4000B4E48093E5149093E614A093E714B09324
:105A5000E81480E090E8ABE3B5E48093E914909318
:105A6000EA14A093EB14B093EC1420E030E040E093
:105A700050E02093E1143093E2144093E3145093E8
:105A8000E41480E29EE4A0E0B0E08093A914909337
:105A9000AA14A093AB14B093AC142093F9143093D0
:105AA000FA144093FB145093FC1480E090E0A0E2C1
:105AB000B1E48093ED149093EE14A093EF14B0939F
:105AC000F0148093F1149093F214A093F314B09314
:105AD000F41480E090E0A0EAB0E48093F514909391
