:100000000C94D44F0D946E9A0D94999A0D94C49AB1
:100010000D94EF9A0D941A9B0D94459B0D94709B33
:100020000D949B9B0C9405500C9405500C9405501A
:100030000C9405500C9405500C9405500C940550EC
:100040000C9405500D9473820C9405500C9405503B
:100050000C9405500C9405500D945A970D94C69B22
:100060000C9405500C94E6570C9405500C940550D4
:100070000C9405500C9405500C9405500C9493600E
:100080000C9405500C9405500C9405500C9405509C
:100090000C9405500C9405500C9405500C9481CB95
:1000A0000C9405500C9405500C9405500C9405507C
:1000B0000C9405500C9405500C9405500C9405506C
:1000C0000C9405500C9405500C9405500C9405505C
:1000D0000C9405500C9405500C9405500C9405504C
:1000E0000C9405505B5B7F5B715B495B6B5B615B99
:1000F000335B3D5B8C5B905BA05B8FB19AB1A5B12C
:10010000B0B116B216B216B216B216B2BBB116B272
:1001100016B216B216B216B216B216B216B216B29F
:1001200008B216B216B216B216B216B216B216B29D
:1001300016B216B2DCB1E7B1F2B1FDB1C6B1D1B1C0
:100140009FF4ABF4A8F49CF4A5F4A2F496F499F40B
:10015000AEF4B1F4B4F459F965F962F956F95FF9FE
:100160005CF950F953F968F96BF96EF922027202E1
:10017000AC01D2018602C002CE03FA02F0013A03BA
:10018000CE036A03F6039A027A023402CA02CE034D
:10019000E801DC028401CE03F002DE021C038803C6
:1001A000E8033E037601D802B002F4012E02600299
:1001B00080020802C4027801B6012202F203F203AF
:1001C000F203F203F203CE03F203F203F203CE03CF
:1001D000F203D0022A021A02CC019001CE0374036A
:1001E0005602BA03CE035E03DE021C038803E80353
:1001F0003E037601D802B002F4012E0260028002B2
:100200000802C4027801B6018A03E203B001DA03EE
:10021000D801D801D801D801D801D8017A039E02AB
:100220009602C802BE02D0014A0340020C02220319
:100230000A03C00150028C023E0226027E03B6036E
:1002400014037203EA0268025A03BA022403620327
:100250005C03FE01AE03F402C2011C02080310029B
:10026000A201360304036402C60184031C0268036E
:1002700028022E033002640332027803D00378028E
:10028000EC028001A2035603C6021E038A01E003AA
:1002900078029E03DA01F602084AD73B3BCE016E94
:1002A00084BCBFFDC12F3D6C74319ABD56833DDACD
:1002B0003D00C77F11BED9E4BB4C3E916BAAAABEDC
:1002C000000000803F05A84CCDB2D44EB93836A905
:1002D000020C50B9918688083CA6AAAA2ABE000042
:1002E00000803F000C9497E40D9476100D94A25179
:1002F0000D94B4510D94A4990D94C0010C941AE07E
:100300000D94D99D0D9439000D948C510D94852F29
:100310000C947F5B0D94F19D0D9453190D94101C5A
:100320000D9480510D94E4440D9471290C94FDB109
:100330000C94B0DD0C94B0B10C94D1B10C9450F984
:100340000C9483FE0D944B9D0D94723D0C945B5B5D
:100350000D9470000C9461E20D9448510C94ADE83A
:100360000D94D5920C9440F40C94CAF10D94B651AE
:100370000C947AAE0D94CA080C94CAE80D94E93036
:100380000D9481980D94319D0C946EF90D94789D87
:100390000D9448180C9463E80D947C510C948DDFF7
:1003A0000D9406980D944C510C94A5F40C94BFFE3A
:1003B0000D9484920D94FF9D0D94220F0D944A2E5E
:1003C0000C946BF90D9465170D942E1D0D94D54169
:1003D0000D9482510D944C380D94620C0D9448424A
:1003E0000D945C510C9498DF0D94A8510C9408B2B4
:1003F0000C94CEDD0C9413990C9420BD0D94189D93
:100400000D943C350D94680C0D94142D0D945312DD
:100410000D94B0510C94BDDD0D943A980D94F42FC9
:100420000D94439D0C945FF90D9490030C94C4B00B
:100430000C94BAFF0D9478510D94AA9D0C94ADFDC7
:100440000C9454FD0D9441510C94A2F40D94FC991C
:100450000D94969D0D9472510C943BF60D94AA51F7
:100460000D94CE9D0D94C09D0D947A510C9479BE3F
:100470000C9462B40C94B1F40C94F7E00D94F099E0
:100480000D942D980D948C330C943D5B0C9420E3CB
:100490000C9409EA0D94003F0D9473140C94DCB194
:1004A0000D941E9A0D946E1A0C9477F20D94895146
:1004B0000C949FE90C9459F90C94EEEA0D94CF99A1
:1004C0000D94AC510C94DBEE0D94699D0D946C1C55
:1004D0000D94569A0D94B8070D94520C0D94070E76
:1004E0000D94550C0D9444510D94A7000C9465F98E
:1004F0000D94089E0D9476510C94C6E60C94F1FF71
:100500000D94AE510D947F230C94BCE60D94505184
:100510000D94FC3E0D9416160D94E8990D94FD2A49
:100520000D94E5320C94D5B20C9456F90D94F193D8
:100530000D9432230D9470510D94731B0D94CD9333
:100540000D94BA0A0D94CF3F0C94D3EE0C94B5DD04
:100550000D94311B0D94C0130D946F2C0D941F3B03
:100560000D94A6510D9436230C94A05B0C94615B02
:100570000C94BDDE0D945A9A0C94CDF40D94EA9728
:100580000D9454510D94C7220D94B2510D94E79DD2
:100590000D94D8970D947E510C94BFE80C9418FDDF
:1005A0000D946E510C945CF90D9415040C94CBFCD5
:1005B0000D94A4510C94B1B00D9486510D949851A2
:1005C0000D940B0E0D94420C0D94E7280D945802D7
:1005D0000D94A10D0D94549A0D94D59D0D94DC218C
:1005E0000D9492510C9453F90D94279D0D94039EF4
:1005F0000D941E2C0D9458510D940C220C94A8F4BB
:100600000C945ADE0C9462F90D945F9D0C9483EA6D
:100610000D943B9D0D9461980C946B5B0C9407E1D9
:100620000C9497F90C9448E70D94379A0C9458BEA3
:100630000C9416B30C94FAFD0D949A510D94ED9D03
:100640000C94715B0D9454980D94609A0C949CF4E6
:100650000D94EF230C948C5B0C94B9A90D94A09D80
:100660000C9468F90D94A3050D94820C0D94559D7E
:100670000D94F5070D9461510D9426250D94A0510C
:100680000C94A6E80C9438990C9461B00D945525FF
:100690000C94E7B10D9413980D9492110C9422F4DC
:1006A0000D947B2A0C945BE70C948AB20D94E39D25
:1006B0000D94F80F0D94589A0D94139D0D94955127
:1006C0000D940C120D94629A0D94D19D0C94A5B1C9
:1006D0000D948C9D0D9466510C9416B20C9425EBE0
:1006E0000C948FB10D945E9A0D9484510C9462FC1D
:1006F0000D94C49D0D9481930C94AEF40D94099ABD
:100700000C94B4F40C949FF40D94829D0C94BBB1A2
:100710000D949C510D9406920C94F2B10D94DF2F20
:100720000C9435F80D949A0C0C94495B0C94ABF432
:100730000C94B9E80D94391F0D94222C0D94FB9D57
:100740000C949AB10D94DF9D0C9409B50C94F0E0D3
:100750000C9499F40D943C0D0C9464FC0D941D9D27
:100760000D94793D0D9469390D940D2B0D942A9AB1
:100770000D946C0C0D948F510C94DAE10D948D0F47
:100780000D94EB0C0C949FE80C9436FE0D941E1205
:100790000C94335B0D94E5000C94905B0D94BD516B
:1007A0000D94CA9D0C9416E50C9435E90C94C6B1D1
:1007B0000C947BE50D9405930C94005D0C9404FF60
:1007C0000D94F59D0D946A920C9458F70D94A30E18
:1007D0000D949E510C9496F40C946FBE0C94BDB382
:1007E0000C9463FF0D94C1510D944F010D946C5105
:1007F0000D94331648617264636F646564204465C8
:100800006661756C742053657474696E6773204CEF
:100810006F616465640048617264636F646564203D
:1008200044656661756C742053657474696E677392
:100830002073746F7265640053746F726564207303
:10084000657474696E677320726574726965766524
:1008500064002044002049002020204D3330312006
:1008600050005049442073657474696E67733A0090
:10087000205A0020590020204D32303620580048A0
:100880006F6D65206F666673657420286D6D293AFB
:1008900000204500205A002058002042002054002B
:1008A00020204D323035205300416476616E6365FF
:1008B00064207661726961626C65733A20533D4DC4
:1008C000696E20666565647261746520286D6D2FA0
:1008D00073292C20543D4D696E2074726176656CCD
:1008E00020666565647261746520286D6D2F7329BB
:1008F0002C20423D6D696E696D756D207365676D65
:10090000656E742074696D6520286D73292C2058DC
:100910003D6D6178696D756D205859206A65726BFF
:1009200020286D6D2F73292C20205A3D6D61786928
:100930006D756D205A206A65726B20286D6D2F735E
:10094000292C2020453D6D6178696D756D2045200D
:100950006A65726B20286D6D2F732900205400206A
:10096000204D323034205300416363656C65726101
:1009700074696F6E3A20533D616363656C657261A3
:1009800074696F6E2C20543D7265747261637420BB
:10099000616363656C65726174696F6E0020450008
:1009A000205A0020590020204D3230312058004D6F
:1009B0006178696D756D20416363656C6572617402
:1009C000696F6E20286D6D2F7332293A0020450023
:1009D000205A0020590020204D3230332058004D3D
:1009E0006178696D756D20666565647261746573A3
:1009F00020286D6D2F73293A00204500205A0020D1
:100A0000590020204D3932205800537465707320EE
:100A100070657220756E69743A0053657474696EFE
:100A200067732053746F726564006563686F3A0082
:100A30005072696E7465722073746F707065642093
:100A400064756520746F206572726F72732E204614
:100A5000697820746865206572726F7220616E64B7
:100A600020757365204D39393920746F2072657394
:100A7000746172742E202854656D7065726174758E
:100A800072652069732072657365742E20536574D6
:100A90002069742061667465722072657374617276
:100AA00074696E6729005072696E7465722068619E
:100AB0006C7465642E206B696C6C28292063616CF2
:100AC0006C656421004D32323020532569004D3170
:100AD000303620532569006F6B00526573656E6474
:100AE0003A2000456E6473746F70207374696C6C87
:100AF000207072657373656420616674657220622C
:100B000061636B696E67206F66662E20456E647345
:100B1000746F7020737475636B3F00456E647374FB
:100B20006F70206E6F7420707265737365642061DE
:100B30006674657220686F6D696E6720646F776E8A
:100B40002E20456E6473746F702062726F6B656ED9
:100B50003F002200556E6B6E6F776E20636F6D6D78
:100B6000616E643A202200456C656374726F6E6931
:100B700063735F746573740020423A300020423A18
:100B800031006F6B20523A005665722E322E332E92
:100B900035004D37363920004D373637004D373662
:100BA000352050313031004D37363520503130301E
:100BB000004D3736352050004D3736382050300044
:100BC0004D373638205031003B4D41544552494154
:100BD0004C3A003B54494D453A004D37363420508D
:100BE00030004D373634205031004D3736332050E9
:100BF00031004D373633205030004D3736322050DB
:100C000030004D373632205031004D373631004DEF
:100C1000373630002200556E6B6E6F776E20636F33
:100C20006D6D616E643A2022007A5F6D61783A20C2
:100C300000795F6D61783A2000785F6D61783A20C5
:100C400000785F6D696E3A20005A3A00593A0020E8
:100C5000436F756E7420583A20005A3A00593A0092
:100C600020436F756E7420583A2000453A005A3A76
:100C700000593A00583A004649524D574152455F93
:100C80004E414D453A4D61726C696E20556C7469E8
:100C90006D616B6572323B20537072696E74657260
:100CA0002F6772626C206D617368757020666F7259
:100CB0002067656E36204649524D574152455F5573
:100CC000524C3A687474703A2F2F7777772E6D658F
:100CD0006E64656C2D70617274732E636F6D20503D
:100CE000524F544F434F4C5F56455253494F4E3A23
:100CF000312E30204D414348494E455F54595045AF
:100D00003A4F7665724C6F72642045585452554480
:100D100045525F434F554E543A310A0020423A0043
:100D200020453A00543A0020573A0020453A0054F2
:100D30003A002042403A0020403A00202F00204252
:100D40003A00202F006F6B20543A002569206D690E
:100D50006E2C2025692073656300456E64206669EA
:100D60006C65206C69737400426567696E20666902
:100D70006C65206C6973740066697474696E67428F
:100D800065645570646174654B41667465723A00C0
:100D900066697474696E67426564557064617465F0
:100DA0004B4265666F72653A006164645F686F6D9F
:100DB00065696E675B5A5F415849535D00666974A7
:100DC00074696E67426564006164645F686F6D6535
:100DD000696E675B5A5F415849535D006669747478
:100DE000696E674265644172726179004732380A00
:100DF0004D3834005072696E7465722073746F7070
:100E00007065642064756520746F206572726F72FE
:100E1000732E2046697820746865206572726F723F
:100E200020616E6420757365204D39393920746FE7
:100E300020726573746172742E202854656D70651C
:100E40007261747572652069732072657365742EA2
:100E50002053657420697420616674657220726520
:100E60007374617274696E6729006F6B004E6F2036
:100E70004C696E65204E756D626572207769746885
:100E800020636865636B73756D2C204C61737420EF
:100E90004C696E653A20004E6F20436865636B7342
:100EA000756D2077697468206C696E65206E756D4C
:100EB0006265722C204C617374204C696E653A2017
:100EC00000636865636B73756D206D69736D617424
:100ED00063682C204C617374204C696E653A200065
:100EE0004C696E65204E756D626572206973206E67
:100EF0006F74204C617374204C696E65204E756D63
:100F00006265722B312C204C617374204C696E65C4
:100F10003A20004D31313000446F6E6520736176A8
:100F2000696E672066696C652E006F6B004D323903
:100F3000005043422056455253494F4E3A00706C80
:100F400061696E466163746F723A00706C61696EBC
:100F5000466163746F723A002020506C616E6E655A
:100F60007242756666657242797465733A20002034
:100F700046726565204D656D6F72793A2000446553
:100F800063203133203230313600436F6D70696C2D
:100F900065643A20005665722E322E332E350020BD
:100FA0007C20417574686F723A200044656320317B
:100FB0003320323031362031313A33303A33390050
:100FC000204C61737420557064617465643A20002C
:100FD000312E302E30004D61726C696E200020532E
:100FE0006F6674776172652052657365740020576F
:100FF00061746368646F6720526573657400204292
:10100000726F776E206F757420526573657400205F
:1010100045787465726E616C20526573657400501A
:101020006F77657255700073746172740022006589
:101030006E717565696E672022000101010000E094
:10104000400000E0400000E04000002A4300002A89
:101050004300008C43000000000000000000808E70
:10106000430000AA420000AA42000082430000AAF6
:10107000C20000AAC20000A0C10000164300001672
:101080004300003443000000000000000000003274
:101090004300009642000096420000204300009664
:1010A000C2000096C20000A0C100002A4300002A2E
:1010B0004300008C43000000000000000000008C92
:1010C000430000AA420000AA42000082430000AA96
:1010D000C20000AAC20000A0C10000FC420000FC47
:1010E0004200008C43000000000000000000808EE1
:1010F0004300007C4200007C420000824300007CF0
:10110000C200007CC20000A0C16563686F3A004560
:1011100072726F723A00636172642063616E6E6F07
:1011200074206F70656E0066696C65206E6F742048
:1011300073616D6500656570726F6D5265616442C3
:1011400075666665723A00000021104220633084A3
:1011500040A550C660E770088129914AA16BB18C07
:10116000C1ADD1CEE1EFF13112100273325222B58E
:10117000529442F772D662399318837BB35AA3BD57
:10118000D39CC3FFF3DEE36224433420040114E65E
:1011900064C774A44485546AA54BB528850995EEA7
:1011A000E5CFF5ACC58DD55336722611163006D76E
:1011B00076F6669556B4465BB77AA719973887DFF7
:1011C000F7FEE79DD7BCC7C448E5588668A77840B6
:1011D00008611802282338CCC9EDD98EE9AFF94847
:1011E0008969990AA92BB9F55AD44AB77A966A71CE
:1011F0001A500A333A122AFDDBDCCBBFFB9EEB7997
:101200009B588B3BBB1AABA66C877CE44CC55C221D
:101210002C033C600C411CAEED8FFDECCDCDDD2AE6
:10122000AD0BBD688D499D977EB66ED55EF44E13AD
:101230003E322E511E700E9FFFBEEFDDDFFCCF1B36
:10124000BF3AAF599F788F8891A981CAB1EBA10CA1
:10125000D12DC14EF16FE18010A100C230E3200416
:1012600050254046706760B9839893FBA3DAB33D7D
:10127000C31CD37FE35EF3B1029012F322D2323566
:1012800042145277625672EAB5CBA5A89589856E4D
:10129000F54FE52CD50DC5E234C324A014810466B6
:1012A00074476424540544DBA7FAB79987B8975F5D
:1012B000E77EF71DC73CD7D326F2369106B0165706
:1012C000667676154634564CD96DC90EF92FE9C8A5
:1012D00099E9898AB9ABA94458654806782768C056
:1012E00018E1088238A3287DCB5CDB3FEB1EFBF9BD
:1012F0008BD89BBBAB9ABB754A545A376A167AF1A6
:101300000AD01AB32A923A2EFD0FED6CDD4DCDAA0C
:10131000BD8BADE89DC98D267C076C645C454CA2F5
:101320003C832CE01CC10C1FEF3EFF5DCF7CDF9B9C
:10133000AFBABFD98FF89F176E367E554E745E9345
:101340002EB23ED10EF01E7C3C3E5E2B3D3F2F5B0D
:101350005D3B2C2A225C00FD82FE82204F46460027
:10136000D580D6809B80D7809A809B80006F72202A
:10137000737769746368206F666600CE82FC822092
:10138000E382E48200BA80D280AA80AB80D38095C9
:1013900080D48000436F6E6E65637420746865202E
:1013A000506F776572003F3F3F00B684A983A784E2
:1013B00000B684AA80AB80001F5072696E7400531F
:1013C00044EB82EC82988320A884C78320ED82EED0
:1013D0008220A983A78400AA80AB8053449E80C149
:1013E00080C280C380005072696E742066726F6D17
:1013F00020534420636172642E00FB82F18200CF8F
:1014000080D080D180004D61696E204D656E750081
:10141000E382E48220E582E68200B980BA80BB8064
:10142000BC8000436F6E6E65637465642100E0826A
:10143000E182E282D08200B780B88000426C75748D
:101440006F6F7468008083D0829A84D08200B580E8
:10145000B680004449534D49535300737570706F03
:10146000727440647265616D6D616B65722E636349
:1014700000737570706F727440647265616D6D6138
:101480006B65722E636300737570706F7274406465
:101490007265616D6D616B65722E636300D982DA6E
:1014A00082DB8200A480A5803A00436F6E74616382
:1014B000743A00D582D68220C482C58220D782D8D1
:1014C0008200A080A18088808980A280A3800054AF
:1014D000656D7020526564756E64616E740059208C
:1014E000D082D182D28220D382D482005997809830
:1014F0008099809A809B809E809F8000592073777E
:101500006974636820737475636B005920D082D14D
:1015100082D28220CB82CC82005997809880998099
:101520009A809B809C809D800059207377697463AA
:10153000682062726F6B656E005820D082D182D2B3
:101540008220D382D48200589780988099809A8094
:101550009B809E809F800058207377697463682009
:10156000737475636B005820D082D182D28220CBF5
:1015700082CC8200589780988099809A809B809C2A
:10158000809D800058207377697463682062726F51
:101590006B656E005A20D082D182D28220D382D451
:1015A00082005A9780988099809A809B809E809F25
:1015B00080005A2073776974636820737475636B55
:1015C000005A20D082D182D28220CB82CC82005A93
:1015D0009780988099809A809B809C809D80005AFB
:1015E000207377697463682062726F6B656E00CDDB
:1015F00082CE8220CE82CF82009380948095809686
:1016000080005361666574792063697263756974DB
:1016100000C982CA8220CB82CC820090808B808FCE
:101620008091809280004865617465722065727255
:101630006F7200424544C482C58220C782C88200BE
:101640008B808C80888089808D808E808F800054F4
:10165000656D702073656E736F722042454400C2E1
:1016600082C682C482C5820086808A808880898002
:101670000054656D70204D494D00C282C382C48202
:10168000C5820086808780888089800054656D705F
:10169000204D617800BE82BF82202D20C082C18291
:1016A0000080808180202D208280838084808580BE
:1016B000004552524F52202D2053544F5050454414
:1016C000003232000000000000C0C04040404040F6
:1016D000404040404040404040404040404040400A
:1016E0004040404040404040404040404040C0C0FA
:1016F0000000000000000000000000FF00000000EB
:101700000000C0C0C0C0C0C0C0C0C0C0C0C0C0C059
:10171000C0C0C0C0C0C0E020E0C0C00000000000E9
:1017200000FF0000000000000000000000FF0000BB
:10173000000000000101010101010101010101811D
:101740008181010101010101030203010100000087
:10175000000000FF0000000000000000000000FF8B
:101760000000000000000707070707070707070733
:10177000070F080F070707070707070707070700EF
:101780000000000000FF000000000000000000005A
:1017900000FF0000000000001C1C1C3E223E1C1C20
:1017A0001C1C1C1C1C1C1C1C1C1C1C1C1C1C1C1C79
:1017B0001C000000000000FF00000000000000000E
:1017C0000000001F18101010101010101010101032
:1017D0001010101010101010101010101010101009
:1017E0001010101010101010181F00000000000042
:1017F00000000000000000000000000000000000E9
:1018000000000000000000000000000000000000D8
:1018100000000000000000000000000000000000C8
:101820000032320000000000E06020202020202054
:1018300020202020202020202020202020202020A8
:101840002020202020202020202020202060E000B8
:1018500000000000000000000000FF000000000089
:10186000000000000002060E1E3E7EFEFEFCF8F0A8
:10187000E0C0800000000000000000000000000048
:10188000FF0000000000000000000000FF0000005A
:10189000FEFCF8F0E0C0800000000000000001FF46
:1018A000FFFFFFFFFF8000000000000000000000BD
:1018B0000000FF0000000000000000000000FF002A
:1018C0000000000103070F1F3F3F3F3F3F3F3F3FE7
:1018D0007FFFFFFFFFFFFFFFFFFEFCF8F0E0C0808F
:1018E00000000000FF0000000000000000000000F9
:1018F000FF000000000000000000000000000000E9
:10190000000000000103070F1F3F7FFFF7E3C1E363
:10191000F77F3F000000FF00000000000000000013
:1019200000000F0C0808080808080808080808083C
:101930000808080808080808080808080808080827
:10194000080808080808080C0F0000000000000044
:101950000000000000000000000000000000000087
:101960000000000000000000000000000000000077
:101970000000000000000000000000000000000067
:101980000032320000000000C0C0404040404040F3
:101990004040404040404040404040404040404047
:1019A00040404040404040404040404040C0C00077
:1019B00000000000000000000000FF000000000028
:1019C00000000000008080808080808080FC80801B
:1019D0008080808080800000000000000000000007
:1019E000FF0000000000000000000000FF000000F9
:1019F0000000000000000003FFFFFFFFFFFF01FFEA
:101A000001FFFFFFFFFFFF030000000000000000D8
:101A10000000FF0000000000000000000000FF00C8
:101A200000000000000000000000000103070F1F7D
:101A3000387F381F0F07030100000000000000007E
:101A400000000000FF000000000000000000000097
:101A5000FF000000E0E0E0E0C0F0FCFCFEFEFFFF65
:101A6000FFFFFFFFFFFFFFFFFFFEFEFCFCF0C0E0FB
:101A7000E0E0E0000000FF000000000000000000C7
:101A800000001F181010111111111010101010105B
:101A90001010101010101010101010101010101046
:101AA00010111111111010181F000000000000008B
:101AB0000000000000000000000000000000000026
:101AC0000000000000000000000000000000000016
:101AD0000000000000000000000000000000000006
:101AE000008015000000000080C0C0E0E0E0E0E001
:101AF000E0C0C0800000E0E0E0E0E0E00000E0E006
:101B0000E0E0E00000E0E0E0E0E0E0E0E0E0E0E095
:101B1000E00000E0E0E0E0E0E06060E0E0E0C08005
:101B2000000000E0E0E0E0E0E0E000000000000095
:101B3000000080C0C0E0E0E0E0E0E0C0C080000065
:101B400000E0E0E0E0E0E06060E0E0E0C0800000B5
:101B5000E0E0E0E0E0E0E0E0E0E0C0C080000000C5
:101B6000000000000000001E7FFFFFFFE1C0C0E199
:101B7000FFFFFF7F1E0000030F3FFFFFFCF0FC3F55
:101B80000F03000000C0FFFFFFFFFFCCCCC0E1E16E
:101B9000E10000C0FFFFFFFFFFCC1C7FFFFFF7E36A
:101BA000C00000C0FFFFFFFFFFC0C0C0F0F0F000AA
:101BB000001E7FFFFFFFE1C0C0E1FFFFFF7F1E00AF
:101BC00000C0FFFFFFFFFFCC1C7FFFFFF7E3C0005B
:101BD000C0FFFFFFFFFFC0C0E1FFFFFF7F3E00002F
:101BE00000000000000000000000000101010101F0
:101BF00001000000000000000000000101010000E1
:101C000000000000000101010101010101010101C9
:101C100001000001010101010101000001010101B8
:101C200001000001010101010101010101010100A7
:101C3000000000000001010101010100000000009E
:101C40000001010101010101000001010101010088
:101C50000101010101010101010101000000000079
:101C6000000000FF82C68200D880D9800043414E28
:101C700043454C00696E73696465207377696674C7
:101C8000006C636456657200081C3E1C080006095F
:101C9000090610181C181008183818080000000051
:101CA0000000005F00000007000700147F147F148D
:101CB000242A7F2A122313086462364955225000D1
:101CC00005030000001C2241000041221C00082ADC
:101CD0001C2A0808083E08080050300000080808C0
:101CE0000808006060000020100804023E514945C9
:101CF0003E00427F400042615149462141454B31FF
:101D00001814127F1027454545393C4A494930018E
:101D1000710905033649494936064949291E0036E5
:101D20003600000056360000000814224114141436
:101D30001414412214080002015109063249794164
:101D40003E7E1111117E7F494949363E4141412273
:101D50007F4141221C7F494949417F090901013ED8
:101D6000414151327F0808087F00417F41002040F7
:101D7000413F017F081422417F404040407F0204E0
:101D8000027F7F0408107F3E4141413E7F090909DF
:101D9000063E4151215E7F0919294646494949318C
:101DA00001017F01013F4040403F1F2040201F7F35
:101DB0002018207F6314081463030478040361511E
:101DC00049454300007F4141020408102041417F02
:101DD000000004020102044040404040000609099E
:101DE0000620545454787F484444383844444420AE
:101DF000384444487F3854545418087E0901020876
:101E00001454543C7F0804047800447D4000204072
:101E1000443D00007F10284400417F40007C0418AE
:101E200004787C0804047838444444387C1414143E
:101E300008081414187C7C080404084854545420DE
:101E4000043F4440203C4040207C1C2040201C3C5F
:101E50004030403C44281028440C5050503C4464CE
:101E6000544C44000836410000007F000000413619
:101E7000080008082A1C08081C2A080894F3920085
:101E8000D2525F52525FD2000007040007050505D9
:101E90000505070009FA0080AFA9A9E9A9AF8000EC
:101EA00004070200040402010204040010FC030001
:101EB00062AEAAABAAAE62000007000000040407ED
:101EC0000000000000FC000000FF101010100000D7
:101ED00004070404040704040404040011F20008C5
:101EE0008969190909C908000403040505050505E0
:101EF0000504050084E3180010111111F111100000
:101F000000070000000004040700000010FF555502
:101F1000F515D555555FD0000203010107000405F2
:101F200002050400040404C4340F34C4040404008F
:101F30000402010000000000010204000992009F59
:101F400095959595959F00000403040704070407E1
:101F50000407040000FE0A8ABEAAABAABE8A0A00D1
:101F6000060100040502020202050400C038000058
:101F700000FF00000038C00000000004040700005B
:101F80000000000092FF0A806A1E63827E8070005B
:101F900004020002040002040002040000FE022207
:101FA000E222FB22E22202000601040300000700F5
:101FB0000003040010FC031052725E535252D20010
:101FC000000700000000010206010000FE02EAAA6C
:101FD000AAEA029F629BC2000402000605040406EE
:101FE00000020400A0AFE9A9AF30AFA9E9AFA0009B
:101FF00000070404070007040407000004847F04AA
:1020000004FC00FE0202FE000601000404070003B7
:1020100002020300C4447F44C4201867847C040087
:10202000070404040700040201020400FF0111EF89
:1020300008FAAEABAEFA080007000101020202077F
:10204000020202001692D2B29A1312927212160073
:10205000040404020201010202040400080894942A
:1020600092F1929494080800040404040407040400
:1020700004040400FE121212FF12121212FE0000DB
:102080000101010107050505050506000992001279
:10209000D21AD712D20A120004030004030003006C
:1020A000070407008464FF2444004445FE444400C0
:1020B000000007000000040407040400FF11EF0003
:1020C000FF4949C9497F00000701010407040200D4
:1020D0000102050010FC0300021AE20302FA0200EA
:1020E000000700000404050407040400002121FF88
:1020F00021212121FF212100000403000000000014
:102100000700000040444546C47CC44645444000A6
:1021100004040201000000010204040044FF240042
:10212000F71515D51515F700040700000504020181
:10213000020405000808FF08412111FD0311610098
:102140000202030100000007000000001010101040
:1021500010FF5292921210000000000000070000D1
:102160000001010010FC0300444445FE44444400C7
:10217000000700000404040704040400FE02FE003B
:10218000EA3E2AAF2A3EEA000101010005040201ED
:1021900002040500FE02FE48EE585FDA507FCA00D6
:1021A00001010104030101010105070010FC030006
:1021B00020EF29F929EF20000007000002010007A5
:1021C0000001020044FF2400FC24252624243C00B6
:1021D00004070006010000000000000001FF29FFC5
:1021E0002425A67CA6252400020101070402010083
:1021F0000102040040426A6A56D24A494531C00091
:1022000002020100000700000102020010FC0300AE
:102210007A4A4AFF4A4A7A0000070000040502058C
:10222000040404000000FF494949FF494949FF00EF
:10223000000601000000070000040700DE525252B1
:1022400052FF52525252DE00030202020207020201
:102250000202030000FE0202020202020202FE006B
:102260000003020202020202020203004444FF24AD
:1022700004020202FE02020000040700000004043F
:1022800007000000FE1212111100FF010101FF0002
:10229000010101010100070001010100EF09F94FEF
:1022A0004224FF00FF244200070407020402010049
:1022B0000704070011F2000414640404FF0404007E
:1022C00004030404040405050504040001F10101EC
:1022D00001FF212121212100040704040407040433
:1022E000040404008242E21A474242F2424242009F
:1022F00000000700040404070404040000FE12D2D6
:10230000525352525252DE000601000704040404E4
:10231000040407001012F212921004FF0404FC00DF
:1023200004070404030406010004070009FA00007E
:1023300022EAAABFAAEA220004070200000702025A
:1023400002070000A4ABAAAEAABCABAAEEAAA200E8
:1023500000000102000004040700000044F30C50D8
:10236000D2525F5252F250000007000000010004F8
:10237000040700000827120E22920E42427E00003F
:10238000040300070404050406010600FE22FE22E1
:10239000FE44AB9292AA4600030203020300070424
:1023A000040700007A027A0722121A37521212002A
:1023B00004070505070507050507040010101F1190
:1023C00091513111FF1111000202010100000404BA
:1023D0000700000011F200929A96FB929292000080
:1023E00004030404040405040404040044FF24005A
:1023F000525ED27352DE520004070000040502024E
:102400000304040000FC4444C4041FE405E6040083
:102410000601000407000004030403000202FE0298
:10242000020404FF0404FC0002020301010403008F
:10243000000407001A62827E0807827A82020E0078
:1024400004020102040201000102040011F280FEF4
:10245000824100FF0181FF00040304040404040717
:102460000404040010FC0300847C04FF047C84004A
:102470000007000001000107010001003D21BFE04D
:10248000085492519214C800010504070004050481
:1024900005050400FC84848484FF84848484FC0017
:1024A00000000000000700000000000064FF24821C
:1024B000FAAFAAAAAFFA82000007000404020101E1
:1024C00002040400299F8989BFC9809E80A03F0023
:1024D000040404040407040404040400CCAA99447A
:1024E00004FF9292FF929200040404020007040485
:1024F0000704040010FC03F80014574A2A96100041
:10250000000700030000050505040200CCBB88009D
:10251000FF00D610FF10D6000404020007040404D4
:1025200005040400CCBB8800AADAAAFF8A8A9A00B4
:102530000404020004020100010204004222FA57CE
:102540005252525252F202000000070101010105ED
:1025500005070000101010101010101010101000BF
:10256000000000000000000000000000101008043F
:1025700002E1020408101000000000000007000043
:10258000000000004141211109FD0311112141000A
:102590000000000000070000000000000E82BBAA3F
:1025A000AAEBAAAABB820E000003000000070000ED
:1025B000020300000884BE81AAAAAABFAAAAAA0090
:1025C00000070404040404040404070000FE12923B
:1025D0009292929291911000060100070404040463
:1025E000040700000444444445FE444444440400B9
:1025F00004040404040704040404040092B2D297FF
:10260000B2D29297CAAA8200040402010007000114
:1026100002040400007C555654FC5456557C0000BE
:102620000101010101070101010101000000000099
:1026300000FF101010100000040404040407040438
:10264000040404008464FF2400FF0101FF008000F3
:10265000000007000601000007040700099200FFC0
:10266000017D55D7557D01000403040304030407CD
:1026700000030400027A4A4A4A7A02FF02C3320087
:102680000202020201010402030403009092D252EA
:10269000725F525258D41200000007050505050567
:1026A0000507000044FF2400F8A8AFAAAAAAFA0070
:1026B00004070002020202070202020001FF2929A8
:1026C000FF011A6282621E0002030101030004027C
:1026D00001020400099200F9AAA8A8AFA8AAF9006B
:1026E0000403000700000000040407005F5551FFC9
:1026F00055515F08FF080A000501050105010503A2
:102700000003040009FA00000000E01FE0000000E0
:1027100004070200040300000003040011F2002477
:1027200024FF2424FF2424000403040405040404D7
:1027300005040400000001C1310F30C0000000009A
:102740000402010000000000010204008242E35282
:10275000AE0101FF0101FF000000070000040300BB
:1027600004040700047F847C00D05C53504CD000EC
:1027700004020106000704040404070009FA00002B
:1027800068AF212121AF680004070200040405029C
:1027900005040400D715D557557D555755D5170055
:1027A00007040705050505050507040022FF1200BB
:1027B00096F29A13927216000407000404020201B2
:1027C0000202040001010101FF0109112141010080
:1027D00000000000070000000000000094F39234A5
:1027E000EC88AAFFAABE080000070405030204073C
:1027F0000404040044FF24005F5555D555555F007F
:1028000004070000040304070505050010911111D9
:1028100011F11111119110000201000404070000D0
:1028200000010200419915F3045555FF555F04005E
:1028300004020102050505070505050009FA000067
:102840000E304186601E00000407020404020101EC
:10285000020404001111FF11002111FD0311610098
:1028600002020301000000070000000008FF080A40
:10287000FAAEABAAAEFA0A00020301040403000098
:1028800007040600D45352564ACA4A4A5652D20046
:1028900007050505050705050505070010121411B4
:1028A000D230DF10101010000404020100000001FB
:1028B00002040400404445FE444444FE45444000B4
:1028C0000004020100000007000000003A27FA227D
:1028D0000403C23AC2020E00010107010402010012
:1028E000010204002010FC030000FF101008840007
:1028F00000000700000007040404070000FF01A90E
:10290000A9BDA9A9A901FF00060100030202020254
:1029100003040700FF01555555FF5555D501FF002C
:10292000070404040407040505040700215F8979EE
:10293000012A2AFF2AAB2A00040201000004040233
:10294000030406004848444C4AF94A4C44484800AD
:10295000020201040407000001020200FC44464593
:10296000FC001827C404FC0007040404070000004E
:10297000040407008464FF244400846414FF0400FA
:1029800000000700020100040407000016D0FF50F9
:102990009600122480FF40000100070000000101A2
:1029A000000700004848444CCA494A4CC448480003
:1029B000000406050404020202010600FF11EF00F4
:1029C00024A7AAD2AAA62000070101000203020739
:1029D00002020200322FF22222005151C955530047
:1029E000010107010100040407040400FCABFAAE76
:1029F000F8007C44FF447C00070000040700040446
:102A0000070207004145594141FF4141514D4100F5
:102A100000000000000700000000000010D0585423
:102A2000535048484AC4180000070404040404042E
:102A300004070000404A52C242FF42C2524A4000CC
:102A400002020100000700000102020064FF2400EE
:102A5000126A8203826A1200000700000404020165
:102A60000204040001C610FCA7A4A4FEA5A4A400AF
:102A70000601000704040407040404002020BEA08B
:102A800020FF242424A420000105040404050402DA
:102A90000201000002CCFF00465A465A42F14D00A6
:102AA00003000700000102000407000001FAA8AFBC
:102AB000A8FA0100FE00FF00000700000407000064
:102AC000050407004846404048EF40404046480063
:102AD0000404020201000102020404002AAAFFAA5F
:102AE0002A009292FE4949000201070102000000FB
:102AF0000704070044FF2408CA2A0AFE0A49C9003D
:102B000004070000070504070405070080BFA5A50A
:102B1000A5A5A5E5A5A7B0000000010200000407D7
:102B2000000000003C0BFEAAAAACABAABE8A3A0089
:102B30000000070404040404040700000CF5161444
:102B400015D6141416F50C00040404020100030445
:102B500004040600494D4BF949454900FE00FF00B9
:102B600004040407020202000504070084FF440075
:102B700022E62A132AE622000407000006010000CC
:102B800000070000DE10101010FF10101010DE0003
:102B900007040404040704040404070010D01E10F2
:102BA000907F921212D2100000070505040404055C
:102BB00005070000322EF32212E8848344481000F7
:102BC000010107010107040404040700FE0202FEDC
:102BD000225A8203825A22000302020304040201E1
:102BE00002040400088894949291929494880800B6
:102BF0000007040404040404040700009091969064
:102C0000909F90909493F00004040404040404043E
:102C1000040407000A92629E003F8179013F000090
:102C200002010005040201070404070056725A2A33
:102C30005A434A122A3A26000405030105070101F6
:102C4000030500000000E01FE000E01FE0000000BE
:102C5000040300000403000000030400FC24FF241C
:102C6000FC91492D9B49F800010107010102020175
:102C70000404070008FF0810FE1008FF08447C0049
:102C8000020301000704040404040700FE0202FE1C
:102C9000000808FF080800000302020304040407F8
:102CA0000404040004FF04C43C002121F92523008E
:102CB00004020102040000040700000000010101F9
:102CC0000101E111090503000000000004040700F0
:102CD00000000000FE02FE00FF21213F21213F00F5
:102CE000010101000704040404040700FF11EF00C0
:102CF00013F00AFEABAAFA00070101000403040561
:102D000004040500FD453F4545FD00F111119F00FC
:102D100007050505050700070404070011F2002454
:102D2000A5663C66A524000004030405040404040D
:102D30000405040009FA0000DAAA8AEF8A8A9A00D8
:102D400004070200040402010204040011F200144A
:102D500013F21F12F2129000040304050504040488
:102D60000505050044FF2400535549E94955530022
:102D7000040700000101010701010100415D55D573
:102D80007F555F55D55D410004040505020202052B
:102D90000404040008976A320E0044340F344500DE
:102DA00004020001060001060001060044FF84FC45
:102DB0008685FD8587FC8000040704040202010269
:102DC0000204040001FD555555FF5555557D010080
:102DD00004040502020504040404000009FA0000CA
:102DE000FF11D55FD511FF000407020007000302A1
:102DF0000304070008047E412413427E0212660089
:102E0000040300070405060406010600221A7F8A4F
:102E100032807F5555557F000403000704040504E4
:102E20000601060000FE92929393929292FE000099
:102E30000007040404040404040700000ACAFF494C
:102E4000A0AFA9E9A9AFA00001000700040404078E
:102E50000404040000FE424A4A5AEB6A5A4AC2007D
:102E6000060100000004070000010000FE02FE0051
:102E7000213D2121213FE000010101000101010567
:102E8000050407008092929292FE929191908000A8
:102E900000000004040700000000000000FE00FF26
:102EA000101000FF10088400040704070202000746
:102EB0000404070010FC0300919690FF9094930087
:102EC00000070000000000070000000009924474A1
:102ED0008566044675846400040304060506000440
:102EE0000605060002EAAAAAAAEFAAAAAAEA02000E
:102EF000040300000000000000000000FE0202F3D6
:102F0000131212F20202FE0007000001010101018A
:102F10000404070002121217F212121712F2020032
:102F20000000000007000101010100008098979255
:102F300092929292F2828000000000000404040445
:102F400003000000CF09F9494F00FF898989F90082
:102F500007040702020007040404040082BAA2B6B0
:102F6000EAABAAB6A2BA820007000203020202017B
:102F70000604070011F20004C4340F34C404000036
:102F800004030405040404040405040011FF1100F3
:102F90007F4949FF49497F000203010405050507F0
:102FA00005050500124A836A12000877847C040034
:102FB000040201020400040201020400405F55D52E
:102FC00055FF55D5555F4000020201000007000083
:102FD0000102020044FF2400B8AFBDC5BDAFB80078
:102FE00004070000040201070102040010FC0310A2
:102FF0000C03FE929292920000070000000007006E
:10300000000000002021212121FF21212121200079
:103010000000000404070000000000000404C43C99
:1030200004FF043CC4040400020100010107010183
:103030000001020011F200807F09394989493900F5
:10304000040304050404050504050500FF0101F956
:10305000898989F90101FF000704040404040404B8
:1030600004040700CCBB8801FF8111199770000090
:1030700004040206010405020504040000FF01091E
:1030800091619D01FF008000060100010000030026
:103090000304030001FD55D555D51555D555DD0063
:1030A0000601020205070002020507003A27FA227C
:1030B0000052725F52D2500001010701000001026C
:1030C0000500000011F2003AEA2AFF2AEA3A00005D
:1030D000040304050404050404050400E2222EAAE6
:1030E000AAABAAAA2E22E2000700000302020203F2
:1030F0000404070010FC0300FE12127E92119100DE
:10310000000700010505050405020100202424E450
:1031100024FF24E424242000020201000007000010
:10312000010202002F22FE222200FE020202FE0005
:103130000403000106000302020203000403BEEAC6
:10314000AAAAAAAAAABE82000201040502020202D9
:103150000205040011F20000FF153555955F2000AF
:103160000403040505050504040505007C00FF04AF
:10317000705F755575DF70000000070004040502DC
:1031800005040400CCBB8826FA02EBAABAAAEE001A
:10319000040402000700070404040700C4FF4404F9
:1031A000D412D11112D40400000700040405040550
:1031B00006050400099200FF01F9FF00FE00FF0070
:1031C000040300040201060005040700F4565554E8
:1031D00052F400DF92925900070101010507000730
:1031E00004040600F9021011915131FD1101FF0094
:1031F0000700010100040407000407001010FF107D
:10320000549412121110100000000704040001026F
:10321000020404003800FF0812FF1222FA221200F2
:1032200000000700060104030003040000FF010181
:103230000101010101010100060100000000000080
:103240000000000002CCFF000808C83FC8090A00BF
:1032500003000700040300000003040022A2128AF6
:1032600016A3060A12A222000403000704040504A0
:1032700007000700FF01C949497D4949C901FF000D
:1032800007040505050505050504070010FC0348AE
:10329000474444FF44444400000700000000000786
:1032A0000000000000FF48CF0800FF19698979007D
:1032B000040300070006010006010600CCBB8800DD
:1032C000FD55D555D555DD00040402000701070161
:1032D00007010700202FE9A9A9A9A9A9A9AF2000E2
:1032E0000000000000040404040700004E424ACA23
:1032F0004A4B4ACA4A424E00040402010000000739
:103300000404070009920010FE1008FF08447C0026
:10331000040300000704040404040700222232AE60
:10332000222322A2160A1200040402010000000750
:1033300004040700099200EA2AFF2A2AFF2AEA0069
:1033400004030007010001010005070010FF5555A7
:1033500055F5555555FF10000405050505070505EC
:1033600005050400A2AAAAEABFAAAAAAEAAAA2007C
:1033700002020100020000040700000008E8242CFB
:10338000EA09EA2C24E8080000030202030007000F
:1033900002030000FE2222FE0024C404FF040400F5
:1033A000030202030000040407000000F90200F910
:1033B000494949F90101FF00070000030202020325
:1033C0000404070022AEB2A3B2AE22FF0119E70047
:1033D000000704040407000701010000CCBB8800BB
:1033E000D252525F5252D200040402000704040475
:1033F00004040700027A4ACA4AFF4ACA4A7A02000B
:1034000002020100000700000102020042F32E50F8
:1034100000FE52921F92760000070000060104028F
:10342000010204008464FF4490482784C404FC0023
:103430000000070001010100050407002018678251
:1034400042320E00FF1020000402010001020204BB
:10345000050404008A6AFF294824AB524A46C0008A
:10346000000007000005040502010000824A124224
:103470006AD76A42124A8200010101010107010173
:1034800001010100909456355C34943452949000BC
:1034900000000005050504020100000095CCBF8C6A
:1034A00095201867847C04000405020504000402CA
:1034B0000102040042E21A86939292D2B2928200F2
:1034C000000700000000040700000000008888D406
:1034D000536262524A46C00000000007040404041C
:1034E000040407000ACAFE498910EF02FA02E60046
:1034F000010007000000010407000100CCBB882484
:1035000024243FE425A62400040402000404040249
:103510000304020044F30C0021A395C995A32000E5
:1035200000070000040404070404040044FF24000E
:1035300008087F88690A08000407000004040201E3
:103540000204030001F989898989F90101FF010059
:1035500000000000000004040407000009FA000055
:103560003FA1212121A13F00040702000601000024
:10357000000106002F29F92929EF00FE0000FF00B5
:1035800004030004040700010404070004041C24CD
:10359000448744241C0404000404020201000102C4
:1035A000020404000E12D21212F3929292920E00B2
:1035B000040201020407040404040400000F304064
:1035C00081068040300F0000040404020201020260
:1035D00004040400F212121E00087C87847C04009C
:1035E0000302020304040201010204003A27F2A2CA
:1035F000F45454FF5455F40001010700070101077A
:103600000105070000FF4949FF0404FF0404FC0012
:103610000407040203040300000407000405867C79
:10362000070424C40404FC0000040300000000009C
:10363000040407001115F9153300FD05F705FD0019
:1036400004040700000005020102050001C6100F76
:1036500002827A8202120E000601040402010001B5
:1036600002040400FF24A8FFA824FE1212F1110096
:103670000705040704050300000700001495D5752D
:103680005AF2525555D515000100030000070002FB
:1036900002030000425E535252E05F5555557F00D1
:1036A00004050505050705050505040040424A52C5
:1036B000C27FC2524A4240000404020100000001DD
:1036C00002040400FF0111EF0202FE232222E200A5
:1036D00007000101000601000404070000C745457A
:1036E0007F55575555D71000010101010107010110
:1036F0000101010009920068AF21212121AF68007A
:1037000004030004040502020504040010FC032065
:10371000222222FE212120000007000004040407C9
:103720000404040010FC0300F98989F901FF010079
:10373000000700000000000404070000F20D17F469
:1037400017F417207F847C000700040300070200A1
:10375000060106002AAE7B2A2A403E0A7A89090021
:103760000007050505050505050700008464FF241D
:1037700000FF29C909C93900000007000601040239
:103780000102040044FF24D058545350504CD00040
:1037900004070007040404040404070021FF09F9D6
:1037A00000FE95FD9597FC0000030203040300074B
:1037B00000040700080E8878AF2828292AE80800A6
:1037C00004020504040502020504040018474444E9
:1037D00044FF44444444040004040404040704046F
:1037E00004040400F921212121212121213F00008D
:1037F000070404040404040404040600CCBB880089
:10380000A1A1918995A3A100040402000404040766
:103810000404040000FF0000039C0000807F0000FF
:1038200004030202010404020102040020908F90AC
:10383000A0FFA0908F902000040404040407040457
:10384000040404008464FF24896909F90969890072
:1038500000000700010004070000010011FF111122
:1038600000FF01F901FF0000020301010402010051
:1038700007040600FF0181611F0101FF8181E10052
:1038800007040404040404040404040000FF0929D8
:1038900029494909F90F000006010001010202044B
:1038A00000030400099220EAAAAABFAAAAEA2000FB
:1038B000040300070202020202070000000992004E
:1038C000A4A4A4BFA4A4A400000403000704040447
:1038D0000404070000FF49494949494949FF0000DC
:1038E00004070404040404040407040002FAAAAA56
:1038F000AAAFAAAAAAFA0200040704040404040452
:1039000004070400F9020001010101010101FF00A7
:1039100007000000000000000404070010FC03047E
:103920005555555555550400000700000705050578
:103930000507000000FEAAAAABAAAAAAAAFE0000D8
:1039400004020007040506040600060000FF4949BA
:103950007F0000FF0101FF000407040403060007C5
:10396000000101004E52664A42FF424242424E006E
:103970000404020201000102020404007C00FF00B2
:103980004E4444FF4444440000000700040404077C
:1039900004040400405F555555D55555555F40000A
:1039A0000403020404070505050504001191898933
:1039B00085BD83898991110000070404040404046F
:1039C000040700005D45555545DF455555455D00EB
:1039D00007010107010101070105070009FA0000BD
:1039E000042526FC26250400040702000101010726
:1039F00001010100CCBB8800FF2121FF2121FF0034
:103A0000040402000704040704040700444F4A4E5C
:103A1000535E54574A565200000705050505050533
:103A20000507000014D35252525F525252D2100076
:103A30000007040404040404040700003D21BFE05F
:103A400051DF55FF2991AF00010504070502050765
:103A50000102040005E9213F2121213F2129250000
:103A60000601000000000000000000008464FF2444
:103A700048C4AB92AAC64000000007000007040437
:103A800004070000FF8989FF00E9A9A7A1A9EF00A9
:103A90000402000204000204000204000000FC24EE
:103AA0002425262424243C000006010000000000F8
:103AB0000000000020FF2121FF20FF2121FF200026
:103AC00004030004070007000407000011F200F9D6
:103AD000A9ABFDADABF90000040304050404050423
:103AE0000405040011F20002FAABAEAAABFA020020
:103AF000040304040704040404070400D212FF9220
:103B00009200E9272129EF000701030404040505B9
:103B1000050505001011967010FF10709413100029
:103B200002010000000700000001020011919995B8
:103B300093F191919589110004040404040704048D
:103B40000404040044FF2400DF5252525251D900B1
:103B5000040700000705050505050700CAFF490021
:103B6000F9AAA8AFA8AAF900000700000700000002
:103B700004040700047D555555FF5555557D040037
:103B800004050505050705050505040044FF240097
:103B900004C43FD414D53400040700020100040219
:103BA000010204007A0A1A2B4A7A023B02427A0086
:103BB000050505050301010505050700404444C44A
:103BC000447F4444444440000004060504040404C3
:103BD00003040000124AC27E4243427EC24A1200DF
:103BE00004040405020202050404040021FF21214B
:103BF000FF21004422118800060100000700000494
:103C00000201000044FF2408FCA7A4FCA7A4A40010
:103C10000407000007040407040404008A4AEA1F9A
:103C20008AAEAAAFEA8A8A000000070000000407F3
:103C300000000000FF81413F0101017F4141FF0081
:103C400007040404040404040404070000788484C2
:103C5000781012FE01FF00000000000000000003C9
:103C6000000700000012F212121E001011FF0000E7
:103C700000000101010101010007000000202829C6
:103C8000A9A5E5A7292820000000000304040404D6
:103C90000300000000023E222222222011FF080819
:103CA0000000000107040404040400000040482A46
:103CB000AA3A484001FF0000000202020302020289
:103CC000020700000004FC84848042FE21FF000003
:103CD0000000000000000003000700000040404614
:103CE00049497949464040000000010704040404A2
:103CF000040400000000023E2222E2222200000012
:103D0000000202020202030202020200000020205E
:103D1000100ACE101020000000020202020203026C
:103D2000020202000020100A360809FF00FF00000E
:103D30000000000107040404040400000080403275
:103D40002E40901011FF0000000000000000000055
:103D5000000700000008C82A2A2AC80801FF00003E
:103D60000000000101010000000700000002FE1237
:103D70001212021011FF00000000010101010101F7
:103D8000000700000000000202E20202827E000042
:103D900000020202020302020202020000202212BA
:103DA0000A96A280813F0808000000000304040472
:103DB00004030000001C2222221C000001FF08084E
:103DC0000000000107040404040400000020221283
:103DD0000A162A0809FF0000000000010704040475
:103DE0000404000000808ABAAAAAAAAAAE808000B1
:103DF0000000000007000000070000000000202075
:103E0000100A0E101020000000020202020202023C
:103E10000202020000404C52D2524C4041FF0000CE
:103E200000000000030000000007000000008445BF
:103E3000352D448001FF000000010000000000005B
:103E40000007000000202252524A4E4849DF00007D
:103E500000000001070505050505000000053DA55A
:103E6000A5A7A0A091BF0000000000000704040463
:103E7000040700000000023E2020E0202020000077
:103E80000002020202020302020202000010545564
:103E900055555353D51410000000010705050505BD
:103EA000050000000000027E4848C84A7E0000006D
:103EB00000020202020203020202020000000404E5
:103EC000344DC54D34040400000202020202030214
:103ED0000202020000202025253D2525352F200047
:103EE00000000107040404040400000000013FA5D1
:103EF000A5A091BF88BF00000000000000000000E6
:103F0000000700000000027E4A4A4A4A4A000000B8
:103F1000000202020202020202020200008080404D
:103F2000322E408001FF2020000000000000000031
:103F30000007000000202026B9A9A9B926202000EA
:103F40000000000304040404030000000000424ACF
:103F50007242426A5A420000000202020202020257
:103F60000202020000053D252527202001FF000058
:103F70000000000107040404040400000010515F65
:103F80005A5A5A5ADF1010000000010705050505AE
:103F90000500000000808ABAAAAAAAAAAE80800002
:103FA000000000000000070000000000008082BE4A
:103FB000AAAAAAAAAA8080000000000000000700A8
:103FC00000000000001C2222221C141415FF000017
:103FD0000000000107040404040400000020225231
:103FE000524A565455DF0000000000010705050540
:103FF000050500000020100D0B90A484853F0000F3
:104000000000000003040404040300000020202139
:10401000A1BDA1A12927200000000003040404047D
:1040200003000000001C22A2A29C808081BF00002F
:1040300000000000000000000007000000828AF27B
:1040400082CABA8201FF00000000000000000000E8
:10405000000700000012F212121E008081FF000013
:10406000000001010101010000070000001C2222E4
:10407000221C080809FF00000000000107040404D6
:10408000040400000000129252320E0001FF2020B2
:104090000001010000000000000700000000023ED7
:1040A0002222222222000000000202020202020258
:1040B000020202000000023E2222E2223E00000034
:1040C00000020202020203020202020000011F516A
:1040D0005154455F40DF0000000000010705050561
:1040E0000505000000404A2A2A1A0E0809FF0000B0
:1040F0000000000107040404040400000002FE1292
:104100001212028081FF0000000001010101010084
:10411000000700000080829E909090909090800018
:10412000000000000700000007000000000002027D
:1041300002020202827E0000000202020202020269
:10414000030202000008C82A2A2AC80801FF20200A
:104150000000000101010000000700000002FE80D5
:104160008080804041FF202000000000000000000F
:104170000007000000001C2222221C0001FF00009A
:1041800000010101010101010107000000011F54AC
:1041900054555F4041DF0808000000010705050590
:1041A000050500002020100D13A081BF887F0000AE
:1041B00000000000030404040403000000053DA502
:1041C000A5A7A09091BF0808000000000000000013
:1041D00000070000000080645CA022FE01FF0000D8
:1041E0000001000000000003000700000000001CA8
:1041F000E22222E21C00000000020202030202038B
:104200000202020004FC8484FC1012FE01FF000084
:104210000000000000000003000700000020262925
:10422000E929A6A081FF00000000000107040404A2
:10423000040500000000023E2222FE22222200008D
:1042400000020202020203020202020000202127F1
:104250002424242424202000000001070404040452
:104260000400000000A0A495959DA4A081FF00007B
:104270000000000007000000000700000002FE82AE
:104280008282824041FF0000000000000000000028
:104290000007000000105555575D5557D515100003
:1042A0000000010705050505050000000000404865
:1042B000482A9A2A28480000000202020202030249
:1042C000020202000000028242320E0001FF0000E2
:1042D000000101000000000000070000001010486D
:1042E000454B504445DF000000000001070505056F
:1042F00005050000002022120A96A888893F0000C8
:104300000000000003040404040300000002FE9007
:104310009092FE1011FF000000000000000000005D
:10432000000700000040415F55555555554040007D
:1043300000000107040404040400000000105055AC
:1043400055555555DD1710000000010705050505F9
:104350000500000000053DA5A5A7A0A091BF000095
:104360000000000000000000000700000024E4241A
:104370003C0022FE01FF00000000010101010003DA
:10438000000700000000121212F21212927E0000CA
:10439000000202020203020202020200023E222284
:1043A0003E0809FF00FF00000000000107040404AC
:1043B0000404000000424A5673564A4241FF10105E
:1043C000000000010704040404040000002022127D
:1043D000128A9694953F0000000000000304040434
:1043E000040300000002FE909092FE0001FF000016
:1043F0000000000000000000000700000000028232
:1044000042320E0001FF20200001010000000000E8
:1044100000070000000C1252524C4A4A4ADF0000CA
:1044200000000001070505050505000000809092C9
:10443000928A8A8E9290800000000000000007009F
:104440000000000000023E28282A3E1415FF00004C
:1044500000000001070404040404000000202212EC
:104460000A16220001FF08080000000107040404E6
:1044700004040000007C8282827C242425FF00004A
:1044800000000000000000000007000080844434A9
:104490004C8002FE21FF000000000000000000032D
:1044A0000007000000000A7ACA4A4ACA4E400000CB
:1044B0000002020203020203020202000010555D24
:1044C00055555555D7101000000001070505050585
:1044D000050000000004344DC54D340401FF2020C8
:1044E0000002020203020202020700000080804074
:1044F000322E408001FF000000000000000000009C
:104500000007000000202AAA9A0A060001BF000046
:104510000000000007050505050700000002FE80F9
:104520008080804041FF000000000000000000008B
:10453000000700000002FE828282828041FF20206C
:1045400000000000000000000007000000202026FE
:104550002929E92926202000000001070404040479
:104560000404000000023E22E222220001FF0000BB
:1045700000010101010101010107000000023E22CA
:1045800022223E1415FF000000000001070404046D
:1045900004040000002022928A96A28081BF0808AD
:1045A000000000000000000000070000001C22A224
:1045B000A21C080809BF000000000000070505054F
:1045C0000507000000021E1212525E40013F00006B
:1045D000000000050505030505050000000002E2D6
:1045E0000202E202827E00000002020302020302D3
:1045F000020202000020A0A6A9A9A9A9A6202000C5
:1046000000000007040404040700000000202090BC
:104610008D0B102001BF08080000000007050505EC
:1046200005070000001C22A2A21C000001BF000020
:10463000000000000705050505070000001C22A278
:10464000A21C000001BF08080000000007050505C6
:104650000507000000105A5A5653765ADA10100017
:1046600000000107050505050500000000111755AC
:104670005D55555051DF000000000001070505059C
:10468000050500000004FC84FC8482FE21FF00007C
:10469000000000000000000300070000008042222C
:1046A000122A468001FF0000000000000000000008
:1046B0000007000000424A5673564A4240FF08086D
:1046C0000000000107050505050500000000048441
:1046D000643C22FE01FF0000000101000000000315
:1046E000000700000010505255555D55D2101000C3
:1046F0000000010705050505050000000008C82A9F
:104700002AC80AFE21FF000000000001010000038A
:10471000000700004040201A1620480809FF00004A
:1047200000000001070404040404000000808494D5
:10473000ACA5A5AC94848000000000000000070038
:10474000000000000000001C222222221C000000A9
:1047500000020202020202020202020000000A7AC1
:104760004A4ACA4A4E400000000202020202030204
:10477000020202000000886ADA2822FE01FF00001F
:10478000000100000100000300070000001C2222BD
:10479000221C000001FF00000000000107040404C7
:1047A000040400000080A0A0908A8E9090A0800059
:1047B0000000000000000700000000000022263A70
:1047C00022BEA294953F00000000000003040404F0
:1047D00004030000000020221212CA0E1220000062
:1047E0000002020202020302020202000080808C28
:1047F000929292928C8080000000000007000000DE
:104800000700000000804222122A468001FF20207B
:104810000000000000000000000700000020212F21
:10482000A9A9B9A929202000000000030404040458
:104830000300000000053DA5A7A091BF88BF0000B0
:104840000000000007040404040700000010505298
:1048500055555555D21010000000010705050505F6
:10486000050000000004344D4D34057F087F000032
:1048700000000002050505050502000000202212C7
:104880000A8E093F803F0000000004040201060276
:10489000010204000020A8A824252324A428200025
:1048A0000000000705050505070000000082621EE4
:1048B00082621E0001FF20200000000100000000B5
:1048C00000070000002028292925E52729282000A5
:1048D00000000107040404040400000000001C227E
:1048E000E2221C0001FF2020000101010101010161
:1048F000010700000002FE828282FE0001FF2020EC
:1049000000000000000000000007000000023E223E
:1049100022BEA2A2913F0808000000000304040484
:10492000040300000004344D454D340401FF080821
:1049300000000001070404040404000000000282D7
:1049400042321E1011FF00000001010000000000B3
:1049500000070000007C8282827C000001FF0000D2
:1049600000000000000000000007000000202010F0
:104970000D8B90A0813F0808000000000304040490
:1049800004030000002022928A96A88889BF0000B4
:104990000000000000000000000700000000040408
:1049A000B44D454DB40404000002020203020202A9
:1049B00003020200000002F202423E0001FF20203A
:1049C00000010101010101010107000000021E5266
:1049D0005252525049DF0808000000010705050542
:1049E0000505000000020A5653564A4241DF0808F6
:1049F000000000010705050505050000001C222236
:104A0000229C0000813F0000000004040201060215
:104A10000102040000101149454B504445DF0000DD
:104A200000000001070505050505000000223E22E3
:104A30003E2221FF08FF00000000000107040404DB
:104A400004040000002028A8A4A5B3A4A4282000E2
:104A50000000000000000000070000002020100DF2
:104A600013A8893F007F0000000004040202010235
:104A7000020404000080A0A4A4958D9594A4800055
:104A8000000000000000070000000000008042223B
:104A9000122A569011FF00000000000000000000E4
:104AA0000007000000405054544DC54D5450400084
:104AB0000000000101010101070000000040505406
:104AC000544D454D545040000000000101010101CA
:104AD0000700000000202127A4A4A4A42420200073
:104AE000000000030404040403000000002022521C
:104AF000524A464041FF000000000001070505053D
:104B0000050500000004FC24240482FE21FF0000AF
:104B10000000010101010003000700000020221233
:104B20000A16221415FF0000000000010704040407
:104B300004040000004046497949464041FF080806
:104B400000000001070404040404000004FC909227
:104B5000FE0002FE21FF0000000000000000000334
:104B60000007000000405054544DC54D54504000C3
:104B700000000002050505050200000000202829AC
:104B8000A9A5B5A7292820000000000304040404F7
:104B90000300000000202212120A8E88097F000004
:104BA000000000040402020102020400004042422C
:104BB0004242C2625E404000000000000000070068
:104BC00000000000002028A9A5A7B9A5A729280052
:104BD0000000000000000000070000008084443452
:104BE0004C9012FE01FF00000000000000000003D6
:104BF00000070000007C8282827C101011FF000000
:104C000000000000000000000007000000105157E5
:104C100055557555D710100000000107050505050D
:104C20000500000000202292928A868081BF080839
:104C300000000000070404040407000000105052A4
:104C400075555575D21010000000010705050505C2
:104C50000500000000404042C2424242E25E400085
:104C60000000000007000000070000000020229262
:104C7000928A969495BF000000000000000000009A
:104C80000007000000023E2222A2BE94953F0000D1
:104C900000000000030404040403000000202415A5
:104CA000159DA480813F000000000000030404045F
:104CB00004030000002022928A96A28081BF000097
:104CC000000000000000000000070000002020900D
:104CD0008D8B90A081BF000000000000000000004C
:104CE0000007000000414F497949494041FF000059
:104CF00000000001070404040404000000828AF29A
:104D000082CABA8201FF20200000000000000000DB
:104D100000070000000C1252524C404041DF0000DE
:104D2000000000010705050505050000001CA2A202
:104D3000229C0888893F0000000000070507040244
:104D40000102040000013F2525A5A1A0913F00001C
:104D50000000000003040404040300000012F21227
:104D6000121E008081FF20200000010101010100CE
:104D7000000700000002FE828282FE1011FF000088
:104D80000000000000000000000700000002FE829A
:104D90008282929011FF00000000000000000000DD
:104DA0000007000000023EA2A2A2BE8081BF080848
:104DB000000000000000000000070000008082BE2C
:104DC000A8A8A8AABE80800000000000000007007C
:104DD000000000000020212F2A2AEA2A2F2020008C
:104DE000000001070404040404000000002021AFB7
:104DF000AAAABAAAAF20200000000000000000000C
:104E00000700000000202222E2322E2021FF0000B5
:104E100000000000030000000007000000001292E4
:104E200052321E1011FF00000001010000000000BE
:104E30000007000000023EA2A2A2A29091BF0808B3
:104E4000000000000704040404040000007C8282C7
:104E5000827C000001FF2020000000000000000014
:104E60000007000000023E2222A2A290913F080803
:104E70000000000003040404040300000000424A90
:104E80007242C26A5A420000000202020202030297
:104E9000020202000000202212120A0E122000005C
:104EA00000020202020202020202020000212FA9F5
:104EB000B9A9A9A0A1FF0000000000000704040494
:104EC0000407000000021E909090909089BF08088F
:104ED00000000004040201020204000000405054DB
:104EE000544DC54D5450400000000107050505050F
:104EF000070000000000129252320E0001FF000075
:104F000000010100000000000007000000105157E0
:104F1000555D5555D5101000000001070505050524
:104F200005000000002020908D0B102001BF000024
:104F30000000000007050505050700000000001C33
:104F40002222E2221C0000000002020202020302EE
:104F50000202020000021E10109089BF887F00002C
:104F60000000000003040404040300000020229257
:104F7000928A868081BF08080000000000000000BF
:104F80000007000000202212F20A162001FF202054
:104F900000010101010101010107000000002226BA
:104FA000FA2222F22E220000000202020302020371
:104FB000020202000004344D454D342829FF000050
:104FC000000000010704040404040000001CA2A265
:104FD000221C0040413F08080000000704050305AB
:104FE00005030100001010919191F19997101000A4
:104FF0000000000000000000070000000020241551
:10500000159DA488897F00000000000003040404AB
:105010000403000000424A5673564A42417F080882
:105020000000000101010101010700000004344DEE
:10503000C54D340401FF0000000202020302020217
:10504000020700000020292BADA9E9AD2B29200083
:105050000000000304040404030000000040422296
:1050600022120E0001FF08080000000107040404DA
:105070000404000000023E223E22222809FF000014
:10508000000000010704040404040000002020F4D0
:105090001C2002FE21FF00000001010101010103AB
:1050A0000007000000023E2AEA2A2A2001FF000031
:1050B0000001010101010101010700000000048459
:1050C000645C52FE01FF00000001010000000003CB
:1050D00000070000002021A7A4A4BCA4A4A02000D5
:1050E0000000000405060404070400000002FE821C
:1050F0008282FE0001FF00000000000000000000AE
:1051000000070000002226BAA2B2AEA281BF0000B2
:1051100000000000000000000007000000404C52AA
:10512000D2524C4001FF00000000000003000001CB
:105130000107000000021E1010909090893F0000AF
:10514000000000000304040404030000004C52D2D9
:105150004C4002FE01FF00000000000300010103BB
:10516000000700000080829E929292929E808000B2
:105170000000000000000700000000000000027EA8
:105180004848484A7E000000000202020202020271
:105190000202020000023E2222223E0809FF000015
:1051A00000000001070404040404000000013F257E
:1051B0002525202405FF0000000000010704040449
:1051C000040400000002FE909092FE0001FF2020E7
:1051D0000000000000000000000700000020202662
:1051E00029A9E92926202000000004040202010266
:1051F00002040000002020A1A1BDA1A1A927200038
:105200000000000000000000070000000020221243
:105210000A96A280813F00000000000003040404FD
:105220000403000000053DA5A5A7A08A8ABF0000D1
:105230000000000000000000000700000040415F87
:1052400055557555554040000000000205050505FF
:1052500002000000004042625E40C242625E4000C6
:1052600000000000000007000000000000425E5245
:10527000D252524041FF0000000000000300000035
:10528000000700000020A9ABADA9E9ADAB292000C3
:105290000000000704040404070000000004FC24CC
:1052A000240022FE01FF00000000010101010003B3
:1052B0000007000000053DA5A5A7A0A091BF080814
:1052C00000000000070404040407000000023E2858
:1052D000282A3E0001FF080800000001070404041A
:1052E000040400000004FC80808042FE21FF0000D6
:1052F0000000000000000003000700000020221250
:105300000A16220001FF0000000000010704040447
:1053100004040000001051D9575051515957100042
:105320000000000705050505050500000040455D76
:10533000555575555740400000000001010101011D
:105340000700000000405054544DC54D54504000DB
:105350000000010704040504040000000040484860
:105360004445734444484000000001070404040419
:10537000040000000040415F545474555F404000F9
:10538000000001070404040404040000000060F0AD
:10539000F8FCFCF8F06000000000000001030301CD
:1053A0000000000000003070F0F0F0F070300000FD
:1053B0000000000000010100000000000000C0E04B
:1053C000F0F8F8F0E0C0000000000000000000006D
:1053D00000000000000000000000000000000000CD
:1053E00000007E0000000000030000000006000630
:1053F000000000000000000088FE88FE8800000316
:10540000000300000C12FF428400010207020100A9
:105410001824D8B04C80000300010201CC32D20C19
:10542000C0000102020102000000060000000000AE
:10543000000000000000F806010000000003040066
:10544000000106F8000000040300000020A078A07E
:1054500020000000000000002020F82020000000B4
:10546000000000000000000000000806000000002E
:10547000202020202000000000000000000000008C
:1054800000000000030000000080700E0000000318
:1054900000000000FC020202FC0001020202010006
:1054A0000004FE0000000000030000000C82422205
:1054B0001C000302020202008C022222DC00010214
:1054C00002020100C0B08CFE80000000000300005A
:1054D0003E121212E200010202020100FC1212123C
:1054E000E4000102020201000602C2320E000000C6
:1054F00003000000DC222222DC0001020202010083
:105500003C424242FC0001020202010000008C0009
:105510000000000001000000008C000000000201FB
:10552000000000002050880402000000000102007A
:1055300090909090900000000000000002048850BD
:105540002000020100000000040262120C000000B2
:1055500003000000FC02F28AFC00010202020000CB
:10556000807846788000030000000300FE2222229B
:10557000DC00030202020100FC0202028C000102B4
:1055800002020100FE020202FC000302020201000C
:10559000FE2222222200030202020200FE22222216
:1055A0000200030000000000FC022222EC000102C5
:1055B00002010300FE202020FE0003000000030083
:1055C0000202FE020200020203020200800000004A
:1055D000FE00010202020100FE20508C02000300C6
:1055E00000010200FE0000000000030202020200AF
:1055F000FE186018FE00030000000300FE0C30C01F
:10560000FE00030000000300FC020202FC00010295
:1056100002020100FE2222221C0003000000000002
:10562000FC020202FC00010203020500FE222262CB
:105630009C000300000003008C1222428C00010237
:10564000020201000202FE0202000000030000004C
:10565000FE000000FE000102020201000E708070D8
:105660000E000000030000007E807E807E000003AC
:105670000003000006D820D8060003000000030045
:105680000E30C0300E0000000300000002C2221ADB
:1056900006000302020202000000FF0100000000F9
:1056A00007040000000E70800000000000030000EE
:1056B000000001FF000000000407000004020204D3
:1056C00000000000000000000000000000000808CA
:1056D00008080808000C12120C000000000000006E
:1056E00088484848F000010202020300FE0808084A
:1056F000F000030202020100F00808081000010295
:1057000002020100F0080808FE0001020202030084
:10571000F0484848700001020202010010FC121219
:10572000000000030000000070888888F800020470
:1057300004040300FE080808F00003000000030052
:105740000008FA0000000002030200000008FA004E
:105750000000040403000000FE40A0100800030045
:10576000000102000002FE0000000002030200002F
:10577000F808F008F000030003000300F808080828
:10578000F000030000000300F0080808F000010228
:1057900002020100F8080808F000070101010000FA
:1057A000F0080808F80000010101070000F81008DF
:1057B0000800000300000000304848489000010243
:1057C0000202010008FE08080000000102020000B9
:1057D000F8000000F80001020202030038C000C017
:1057E00038000000030000007880F8807800000393
:1057F0000003000018A040A01800030000000300F0
:1058000038C000C03800040403000000088848289D
:105810001800030202020200000020DE0100000066
:1058200000030400000000FF00000000000F000063
:105830000001DE200000000403000000000062659B
:10584000747765656E203560432D323860432100E2
:1058500032386043BE82C8822084838F8320DC82FA
:10586000DD8200356043898132386043E380A68061
:10587000A780E080EB800074656D7065726174755F
:105880007265206973008D838E8320C482C5822057
:10589000356043C082BE82C88200E780E880E9802C
:1058A000EA8088808980AF80005265636F6D6D6586
:1058B0006E646564009C849D8400E580E6802121FF
:1058C00021005761726E696E67212121004F4B00E4
:1058D0008C82DB80004F4B004F4B008C82DB8000C2
:1058E0004F4B00000063616C6962726174696F6E96
:1058F0002070726F636573732E00A183A283C382CD
:1059000020A483858300FD80DC808580FB80FC8073
:10591000FE80FF800067656E746C7920746F206470
:105920006F2074686500A183A283C38220CA82D2DB
:1059300082A38300ED80F980FA80AA80AB80FB808F
:10594000FC8000746F7563682074686520627569F7
:105950006C64706C61746500D582D682209D839ED4
:10596000839F83A083C88200A080EC80F780E380BF
:10597000F88000546865204E6F7A7A6C65207769EC
:105980006C6C00332F313100E583D782DB8200C19C
:105990008083800041424F5254004D383400000053
:1059A0004D6174657269616C2073657474696E67AA
:1059B0007322009683978320E983EA83208483857A
:1059C000839083D98300C180A781F781F881F58016
:1059D000F68000696E202253657474696E677320C7
:1059E0003E3E0022848385833E3E9683978322C079
:1059F00082BE82C8820022E080E1803E3EAA80AB67
:105A000080F580F680E080E1802200504C412E201D
:105A1000446566696E65206D6174657269616C00CC
:105A200096839783208383B5842084838583205045
:105A30004C4100DA80DB80F580F680FC81504C41DF
:105A40002CF3819182AF800044656661756C74208F
:105A50006D6174657269616C20697300392F313131
:105A600000EF82F082F18200C680C78000434F4E73
:105A700054494E5545004F4B2086838783208883A9
:105A8000898300B280E280E3804F4BE4800066723D
:105A90006F6D206E6F7A7A6C652E2E2E00FC82ADB3
:105AA00083F382AE8320F482AF83AB83009381A023
:105AB00080EC8096809481958196818B81006D61C8
:105AC00074657269616C2065786974730096839758
:105AD00083908320D582D682BE82C8820090819135
