:100000000C944D200C947A200C947A200C947A2035
:100010000C947A200C947A200C947A200C947A20F8
:100020000C947A200C947A200C947A200C947A20E8
:100030000C947A200D94FF850C947A200C947A20ED
:100040000C947A200D94286D0C947A200C947A20CC
:100050000C947A200C947A200D949A760D94E38A6D
:100060000C947A200C94AB340C947A200C947A2063
:100070000C947A200C947A200C947A200C94793782
:100080000C947A200C947A200C947A200C947A2088
:100090000C947A200C947A200C947A200C946A9414
:1000A0000C947A200C947A200C947A200C947A2068
:1000B0000C947A200C947A200C947A200C947A2058
:1000C0000C947A200C947A200C947A200C947A2048
:1000D0000C947A200C947A200C947A200C947A2038
:1000E0000C947A200C20C01FBE1FA61F4020FA1FB0
:1000F000A21F901FC21FE21FA21FCC1FB61FE01F2E
:10010000BC1F3A202420A21FE81F2E204420A21F3B
:100110001A2032203C20981F921FB01F22209A1FC5
:10012000A41FF21FD61FD81FCE1FAA1FB21FFC1F6D
:100130003420084AD73B3BCE016E84BCBFFDC12FA3
:100140003D6C74319ABD56833DDA3D00C77F11BEC8
:10015000D9E4BB4C3E916BAAAABE000000803F05CB
:10016000A84CCDB2D44EB93836A9020C50B99186FC
:1001700088083CA6AAAA2ABE000000803F656368E2
:100180006F3A0048617264636F6465642044656619
:1001900061756C742053657474696E6773204C6F5D
:1001A000616465640048617264636F6465642044DF
:1001B000656661756C742053657474696E6773202D
:1001C00073746F7265640053697A65206F6620747A
:1001D00068652073657474696E6720696E20656553
:1001E00070726F6D3A0053746F726564207365743A
:1001F00074696E67732072657472696576656400F0
:100200002044002049002020204D33303120500070
:100210005049442073657474696E67733A00205ABC
:100220000020590020204D323036205800486F6D94
:1002300065206F666673657420286D6D293A00200D
:100240004500205A00205800204200205400202061
:100250004D323035205300416476616E6365642011
:100260007661726961626C65733A20533D4D696EC7
:1002700020666565647261746520286D6D2F732931
:100280002C20543D4D696E2074726176656C206639
:100290006565647261746520286D6D2F73292C204B
:1002A000423D6D696E696D756D207365676D656E34
:1002B000742074696D6520286D73292C20583D6D5C
:1002C0006178696D756D205859206A65726B2028B8
:1002D0006D6D2F73292C20205A3D6D6178696D75E5
:1002E0006D205A206A65726B20286D6D2F73292C42
:1002F0002020453D6D6178696D756D2045206A65EA
:10030000726B20286D6D2F73290020540020204D22
:10031000323034205300416363656C6572617469E7
:100320006F6E3A20533D616363656C6572617469F9
:100330006F6E2C20543D726574726163742061632A
:1003400063656C65726174696F6E00204500205AA8
:100350000020590020204D3230312058004D617866
:10036000696D756D20416363656C65726174696F59
:100370006E20286D6D2F7332293A00204500205AD7
:100380000020590020204D3230332058004D617834
:10039000696D756D2066656564726174657320288A
:1003A0006D6D2F73293A00204500205A0020590016
:1003B00020204D39322058005374657073207065C9
:1003C0007220756E69743A0053657474696E677350
:1003D0002053746F726564006563686F3A004572FC
:1003E000726F723A005072696E7465722073746F26
:1003F000707065642064756520746F206572726F1B
:1004000072732E2046697820746865206572726F59
:100410007220616E6420757365204D3939392074FE
:100420006F20726573746172742E202854656D702C
:100430006572617475726520697320726573657485
:100440002E20536574206974206166746572207271
:10045000657374617274696E6729005072696E7495
:1004600065722068616C7465642E206B696C6C2801
:10047000292063616C6C656421006F6B00526573A9
:10048000656E643A20002200556E6B6E6F776E20A9
:10049000636F6D6D616E643A202200456C65637414
:1004A000726F6E6963735F746573740020423A30D3
:1004B0000020423A31006F6B20523A004465766961
:1004C00063652049442053746F7265643A002200CA
:1004D000556E6B6E6F776E20636F6D6D616E643AF3
:1004E0002022007A5F6D61783A2000795F6D617833
:1004F0003A2000785F6D61783A20005A3A00593A04
:100500000020436F756E7420583A20005A3A005903
:100510003A0020436F756E7420583A2000453A0027
:100520005A3A00593A00583A004649524D574152FA
:10053000455F4E414D453A4D61726C696E20556C78
:1005400074696D616B6572323B20537072696E74B1
:1005500065722F6772626C206D61736875702066BA
:100560006F722067656E36204649524D574152459D
:100570005F55524C3A687474703A2F2F7777772E04
:100580006D656E64656C2D70617274732E636F6D32
:100590002050524F544F434F4C5F56455253494F92
:1005A0004E3A312E30204D414348494E455F545913
:1005B00050453A4F7665724C6F72642045585452DC
:1005C000554445525F434F554E543A310A0020423C
:1005D0003A0020453A00543A0020573A0020453A64
:1005E00000543A002042403A0020403A00202F00B8
:1005F00020423A00202F006F6B20543A00256920DA
:100600006D696E2C2025692073656300456E64203A
:1006100066696C65206C69737400426567696E2059
:1006200066696C65206C6973740066697474696EC0
:10063000674265645570646174654B4166746572A8
:100640003A0066697474696E6742656455706461E6
:1006500074654B4265666F72653A006164645F68F9
:100660006F6D65696E675B5A5F415849535D0066FF
:10067000697474696E67426564006164645F686F81
:100680006D65696E675B5A5F415849535D006669E5
:100690007474696E6742656441727261790000002A
:1006A0002A4300002A43000082430000E04000008B
:1006B000E0400000E04001010100000000000000F7
:1006C00000008089430000AAC20000AAC200000006
:1006D000000000AA420000AA4200008243456E6466
:1006E00073746F70207374696C6C207072657373AF
:1006F0006564206166746572206261636B696E6710
:10070000206F66662E20456E6473746F702073745C
:1007100075636B3F00456E6473746F70206E6F7409
:1007200020707265737365642061667465722068F9
:100730006F6D696E6720646F776E2E20456E6473EF
:10074000746F702062726F6B656E3F004732380ABB
:100750004D383400256920686F7572732025692033
:100760006D696E7574657300446F6E652070726993
:100770006E74696E672066696C65007364206572CB
:10078000726F72004D32323020532569004D313086
:100790003620532569003B4C415945523A004D32B1
:1007A00035207265636569766564004D3235007386
:1007B00064206572726F72005072696E7465722087
:1007C00073746F707065642064756520746F206544
:1007D00072726F72732E2046697820746865206586
:1007E00072726F7220616E6420757365204D3939A5
:1007F0003920746F20726573746172742E202854CE
:10080000656D7065726174757265206973207265BB
:100810007365742E20536574206974206166746555
:10082000722072657374617274696E6729006F6BF0
:10083000004E6F204C696E65204E756D62657220AA
:100840007769746820636865636B73756D2C204CE1
:10085000617374204C696E653A20004E6F204368C6
:1008600065636B73756D2077697468206C696E655C
:10087000206E756D6265722C204C617374204C691A
:100880006E653A2000636865636B73756D206D69F2
:10089000736D617463682C204C617374204C696EB5
:1008A000653A20004C696E65204E756D6265722058
:1008B0006973206E6F74204C617374204C696E658F
:1008C000204E756D6265722B312C204C6173742043
:1008D0004C696E653A20004D31313000446F6E65D1
:1008E00020736176696E672066696C652E006F6B98
:1008F000004D323900706C61696E466163746F72CD
:100900003A00706C61696E466163746F723A0020E0
:1009100020506C616E6E65724275666665724279D2
:100920007465733A20002046726565204D656D6FD1
:1009300072793A20004A756E2020392032303135E4
:1009400000436F6D70696C65643A20005665727380
:10095000696F6E20322E312E3550202D6265746104
:10096000203200207C20417574686F723A20004A62
:10097000756E20203920323031352032303A32360F
:100980003A303500204C6173742055706461746591
:10099000643A2000312E302E30004D61726C696E49
:1009A000200020536F66747761726520526573650D
:1009B0007400205761746368646F672052657365C3
:1009C00074002042726F776E206F757420526573C9
:1009D0006574002045787465726E616C2052657391
:1009E000657400506F77657255700073746172742E
:1009F00000656E717565696E672066756C6C0022A6
:100A000000656E717565696E67202200656E71758F
:100A100065696E672066756C6C002200656E717585
:100A200065696E672022004F7574206F66206D65C2
:100A30006D6F7279005344555053526574726965F5
:100A40007665436C6173733A005344555053536356
:100A5000616E506F736974696F6E3A0053445550FC
:100A6000535363616E496E6465780074686520460F
:100A7000696C65506F736974696F6E3A00534455C1
:100A80005053506F736974696F6E496E6465783A3C
:100A90000000002110422063308440A550C660E76A
:100AA00070088129914AA16BB18CC1ADD1CEE1EF23
:100AB000F13112100273325222B5529442F772D6BB
:100AC00062399318837BB35AA3BDD39CC3FFF3DE73
:100AD000E36224433420040114E664C774A444850B
:100AE000546AA54BB528850995EEE5CFF5ACC58DC3
:100AF000D55336722611163006D776F6669556B45B
:100B0000465BB77AA719973887DFF7FEE79DD7BC12
:100B1000C7C448E5588668A77840086118022823AA
:100B200038CCC9EDD98EE9AFF9488969990AA92B62
:100B3000B9F55AD44AB77A966A711A500A333A12FA
:100B40002AFDDBDCCBBFFB9EEB799B588B3BBB1AB2
:100B5000ABA66C877CE44CC55C222C033C600C414A
:100B60001CAEED8FFDECCDCDDD2AAD0BBD688D4902
:100B70009D977EB66ED55EF44E133E322E511E709A
:100B80000E9FFFBEEFDDDFFCCF1BBF3AAF599F7852
:100B90008F8891A981CAB1EBA10CD12DC14EF16F03
:100BA000E18010A100C230E3200450254046706768
:100BB00060B9839893FBA3DAB33DC31CD37FE35E94
:100BC000F3B1029012F322D23235421452776256B8
:100BD00072EAB5CBA5A89589856EF54FE52CD50DA4
:100BE000C5E234C324A01481046674476424540508
:100BF00044DBA7FAB79987B8975FE77EF71DC73C34
:100C0000D7D326F2369106B0165766767615463457
:100C1000564CD96DC90EF92FE9C899E9898AB9AB43
:100C2000A94458654806782768C018E1088238A3A7
:100C3000287DCB5CDB3FEB1EFBF98BD89BBBAB9AD3
:100C4000BB754A545A376A167AF10AD01AB32A92F7
:100C50003A2EFD0FED6CDD4DCDAABD8BADE89DC9E3
:100C60008D267C076C645C454CA23C832CE01CC147
:100C70000C1FEF3EFF5DCF7CDF9BAFBABFD98FF873
:100C80009F176E367E554E745E932EB23ED10EF097
:100C90001E7C3C3E5E2B3D3F2F5B5D3B2C2A225C45
:100CA000006F7220737769746368206F6666004313
:100CB0006F6E6E6563742074686520506F7765721F
:100CC000004D61696E204D656E75005072696E74DD
:100CD0002066726F6D20534420636172642E003F62
:100CE0003F3F00835072696E7400737570706F724D
:100CF0007440647265616D6D616B65722E63630033
:100D0000436F6E746163743A00526564756E64611A
:100D10006E742054656D700058206F7220592073D6
:100D2000776974636820737475636B0058206F7201
:100D30002059207377697463682062726F6B656EE7
:100D4000005A2073776974636820737475636B004D
:100D50005A207377697463682062726F6B656E00E6
:100D600053616665747920636972637569740048BC
:100D70006561746572206572726F720054656D7082
:100D80002073656E736F72204245440054656D7028
:100D90002073656E736F72004552524F52202D20A2
:100DA00053544F505045440080150000000000800F
:100DB000C0C0E0E0E0E0E0E0C0C0800000E0E0E0D3
:100DC000E0E0E00000E0E0E0E0E00000E0E0E0E0A3
:100DD000E0E0E0E0E0E0E0E00000E0E0E0E0E0E0D3
:100DE0006060E0E0E0C080000000E0E0E0E0E0E023
:100DF000E0000000000000000080C0C0E0E0E0E093
:100E0000E0E0C0C080000000E0E0E0E0E0E0606022
:100E1000E0E0E0C0800000E0E0E0E0E0E0E0E0E012
:100E2000E0C0C080000000000000000000001E7F45
:100E3000FFFFFFE1C0C0E1FFFFFF7F1E0000030FC7
:100E40003FFFFFFCF0FC3F0F03000000C0FFFFFF6F
:100E5000FFFFCCCCC0E1E1E10000C0FFFFFFFFFFDE
:100E6000CC1C7FFFFFF7E3C00000C0FFFFFFFFFFC8
:100E7000C0C0C0F0F0F000001E7FFFFFFFE1C0C067
:100E8000E1FFFFFF7F1E0000C0FFFFFFFFFFCC1C44
:100E90007FFFFFF7E3C000C0FFFFFFFFFFC0C0E11F
:100EA000FFFFFF7F3E000000000000000000000088
:100EB000000001010101010100000000000000002C
:100EC000000001010100000000000000010101011B
:100ED0000101010101010101000001010101010104
:100EE00001000001010101010000010101010101F6
:100EF00001010101010100000000000001010101E8
:100F000001010000000000000101010101010100D8
:100F100000010101010100010101010101010101C3
:100F2000010100000000000000003232000000005B
:100F300000C0C040404040404040404040404040F1
:100F400040404040404040404040404040404040A1
:100F5000404040404040C0C0000000000000000091
:100F6000000000FF00000000000000000000808082
:100F7000808080808080FC80808080808080800075
:100F8000000000000000000000FF00000000000062
:100F90000000000000FF0000000000000000000052
:100FA00003FFFFFFFFFFFF01FF01FFFFFFFFFFFF49
:100FB0000300000000000000000000FF000000002F
:100FC00000000000000000FF000000000000000022
:100FD000000000000103070F1F387F381F0F0703B1
:100FE00001000000000000000000000000FF000001
:100FF000000000000000000000FF000000E0E0E052
:10100000E0C0F0FCFCFEFEFFFFFFFFFFFFFFFFFF65
:10101000FFFFFEFEFCFCF0C0E0E0E0E0000000FFAF
:1010200000000000000000000000001F1810101158
:1010300011111110101010101010101010101010AD
:10104000101010101010101010101111111110109C
:10105000181F000000000000000000000000000059
:101060000000000000000000000000000000000080
:101070000000000000000000000000000000000070
:1010800000000000000000000000323200000000FC
:1010900000E0602020202020202020202020202070
:1010A0002020202020202020202020202020202040
:1010B00020202020202060E0000000000000000030
:1010C000000000FF00000000000000000000020619
:1010D0000E1E3E7EFEFEFCF8F0E0C0800000000028
:1010E000000000000000000000FF00000000000001
:1010F0000000000000FF000000FEFCF8F0E0C080EF
:101100000000000000000001FFFFFFFFFFFF800064
:101110000000000000000000000000FF00000000D0
:1011200000000000000000FF000000000103070FA6
:101130001F3F3F3F3F3F3F3F3F7FFFFFFFFFFFFF1F
:10114000FFFFFEFCF8F0E0C08000000000FF0000A0
:10115000000000000000000000FF00000000000090
:101160000000000000000000000000000001030774
:101170000F1F3F7FFFF7E3C1E3F77F3F000000FF52
:1011800000000000000000000000000F0C0808082C
:1011900008080808080808080808080808080808CF
:1011A00008080808080808080808080808080808BF
:1011B0000C0F000000000000000000000000000014
:1011C000000000000000000000000000000000001F
:1011D000000000000000000000000000000000000F
:1011E000000000000000000000003232000000009B
:1011F0000000C0C04040404040404040404040406F
:1012000040404040404040404040404040404040DE
:1012100040404040404040C0C0000000000000008E
:1012200000000000FF000000000000C0C0C0C0C0FF
:10123000C0C0C0C0C0C0C0C0C0C0C0C0C0C0C0E08E
:1012400020E0C0C0000000000000FF00000000001F
:10125000000000000000FF0000000000000101018C
:1012600001010101010101018181810101010101EE
:10127000010302030101000000000000FF00000064
:101280000000000000000000FF0000000000000758
:10129000070707070707070707070F080F070707CD
:1012A0000707070707070707000000000000FF0007
:1012B00000000000000000000000FF00000000002F
:1012C000001C1C1C3E223E1C1C1C1C1C1C1C1C1C30
:1012D0001C1C1C1C1C1C1C1C1C1C000000000000F6
:1012E000FF00000000000000000000001F181010A8
:1012F00010101010101010101010101010101010EE
:1013000010101010101010101010101010101010DD
:1013100010181F0000000000000000000000000086
:1013200000000000000000000000000000000000BD
:1013300000000000000000000000000000000000AD
:101340000000000000000000000043414E43454CF7
:10135000007761726E696E673A20696E73696465C1
:1013600020746865207377696674000000000000CF
:1013700000005F00000007000700147F147F1424A2
:101380002A7F2A1223130864623649552250000529
:10139000030000001C2241000041221C00082A1CFE
:1013A0002A0808083E08080050300000080808080D
:1013B00008006060000020100804023E5149453ECC
:1013C00000427F400042615149462141454B31185E
:1013D00014127F1027454545393C4A49493001716F
:1013E0000905033649494936064949291E0036365A
:1013F0000000005636000000081422411414141492
:101400001441221408000201510906324979413E73
:101410007E1111117E7F494949363E414141227F6B
:101420004141221C7F494949417F090901013E414F
:101430004151327F0808087F00417F410020404130
:101440003F017F081422417F404040407F02040258
:101450007F7F0408107F3E4141413E7F0909090614
:101460003E4151215E7F09192946464949493101CA
:10147000017F01013F4040403F1F2040201F7F204F
:1014800018207F631408146303047804036151492E
:10149000454300007F4141020408102041417F0084
:1014A00000040201020440404040400001020400E8
:1014B00020545454787F48444438384444442038B5
:1014C0004444487F3854545418087E0901020814D3
:1014D00054543C7F0804047800447D40002040447C
:1014E0003D00007F10284400417F40007C04180428
:1014F000787C0804047838444444387C1414140874
:10150000081414187C7C080404084854545420041B
:101510003F4440203C4040207C1C2040201C3C405C
:1015200030403C44281028440C5050503C446454F3
:101530004C44000836410000007F0000004136089E
:101540000008082A1C08081C2A0808081C3E1C0859
:10155000000609090610181C181008183818084C3D
:1015600063645570646174654E6F726D616C004C9C
:10157000636455706461746557616974696E67006E
:101580004C63645570646174654572726F72496E24
:10159000496E74657272757074004C636455706442
:1015A0006174654572726F720064656661756C7412
:1015B000006969632064617461206572726F7200F2
:1015C00054575F4D525F4152425F4C4F5354006934
:1015D00069632064617461206572726F7200646176
:1015E00074610069326354696D654F7574006932C6
:1015F000632054696D654F7574006E6F74206E6F53
:10160000726D616C20656E64006932632054696D8F
:10161000654F75740064656661756C740069696313
:10162000207374617274206572726F720054575F18
:101630004D525F4152425F4C4F53540069696320E1
:101640007374617274206572726F720054575F42D6
:1016500055535F4552524F5200696963207374615C
:101660007274206572726F720064656661756C7465
:1016700000696963206164647265737320657272C6
:101680006F720054575F4D525F4152425F4C4F534F
:1016900054006969632061646472657373206572C4
:1016A000726F720054575F4D525F534C415F4E4111
:1016B000434B0069696320616464726573732065DC
:1016C00072726F72006932632054575F4D525F44EB
:1016D0004154415F4E41434B00693263206C636467
:1016E00056657273696F6E0054575F4D525F534C6D
:1016F000415F41434B006932632054696D654F750A
:101700007400696E746F2054575F4D525F534C41A3
:101710005F41434B0054575F4255535F4552524F10
:101720005200696963206164647265737320657235
:10173000726F720054575F4D545F534C415F4E417E
:10174000434B00696963206164647265737320654B
:1017500072726F720054575F535441525400693291
:10176000632054696D654F7574006932632073742A
:101770006172742054575F5245505F535441525424
:10178000006932632054696D654F757400746F2071
:10179000636F6E74696E7565005072657373206D4A
:1017A0006964646C6520627574746F6E0073746133
:1017B00072747570206F66204F7665724C6F72641C
:1017C000210057656C636F6D6520746F20746865C8
:1017D00020666972737400312F31300044454641F0
:1017E000554C5400434F4E54494E554500697320A3
:1017F0006C6566742061726F756E642069742E006A
:10180000636173652074686174206D6174657269C9
:10181000616C005072696E7468656164206865610E
:1018200074696E6720696E00322F31300043414E7B
:1018300043454C0047323900746F20636F6E746902
:101840006E75652E0070757368206D6964646C65D3
:1018500020627574746F6E00696E73657274206DAA
:101860006174657269616C2E004E657874207374C2
:10187000657020697320746F00342F313000534B32
:10188000495000434F4E54494E5545006D616B65BC
:101890002061203344205072696E74210049276D05
:1018A0002072656164792E206C6574277300392F6E
:1018B000313000534B495000434F4E54494E55452B
:1018C00000746F207072696E742069742100616EFB
:1018D0006420707265737320746865206275747417
:1018E0006F6E006F6E207468652053442D636172C3
:1018F000640053656C6563742061207072696E7456
:101900002066696C650031302F3130004C4554271A
:1019100053205052494E540052656164696E6720ED
:10192000636172642E2E2E0031302F313000796FBA
:101930007572204F7665724C6F72642E2E2E007475
:101940006861742063616D65207769746800506C0C
:101950006561736520696E736572742053442D63ED
:101960006172640031302F3130006D6174657269CD
:10197000616C206C6F6164696E67007072696E746F
:10198000686561642068656174696E6720666F725E
:1019900000506C6561736520776169742C00352F88
:1019A000313000616E64207468656E2070757368F4
:1019B00020627574746F6E2E00647269766564209F
:1019C00062792065787472756465720065787472E6
:1019D0007564657220756E74696C20697420697312
:1019E00000496E73657274206D6174657269616C13
:1019F00020696E746F00362F3130005245414459D2
:101A0000202020005245414459202020004C6F6185
:101A100064696E67206D6174657269616C2E2E2E2B
:101A200000372F31300052454144592020200066B4
:101A3000726F6D206E6F7A7A6C652E2E2E006D613E
:101A400074657269616C2065786974730050757390
:101A50006820627574746F6E207768656E00382F29
:101A60003130005245414459202020004D38340087
:101A700063616C6962726174696F6E2070726F630A
:101A80006573732E0067656E746C7920746F2064C3
:101A90006F2074686500746F7563682074686520D2
:101AA0006275696C64706C61746500546865204E81
:101AB0006F7A7A6C652077696C6C00332F31300057
:101AC00041424F5254004465766963652049443A67
:101AD0000056657273696F6E20322E312E3550209C
:101AE0002D626574612032004A756E2020392032E3
:101AF0003031352032303A32363A31300052657466
:101B000075726E0041626F7574006D004D61746591
:101B10007269616C3A003A005072696E742074699F
:101B20006D653A003A004C6966652074696D653AE6
:101B300000426174746572793A2020202020436845
:101B4000617267656400426174746572793A20203D
:101B500020204368617267696E6700526574757210
:101B60006E00746F2064656661756C743F00526529
:101B70007365742065766572797468696E67004E66
:101B80004F00594553004D61696E74656E616E6317
:101B900065204D656E75004732380A4D3834004D6A
:101BA0006F76656D656E740081430081432F00433D
:101BB0006C69636B20746F2072657475726E00506F
:101BC0007265737320446F776E20746F206578742C
:101BD0007275646500507265737320555020746F80
:101BE0002072657472616374004E6F7A7A6C65203E
:101BF00074656D70657261747572653A003F3F3F40
:101C0000004D6F766520746865204D61746572695A
:101C1000616C2E00486F6D652074686520486561B1
:101C2000642E0052657475726E20746F2041647664
:101C3000616E6365642E003F3F3F004D6F76652007
:101C40004D6174657269616C00486F6D652048650F
:101C500061640052657475726E00250046616E20E5
:101C600073706565640054656D70617475726500AC
:101C700081430081432F00436C69636B20746F20A4
:101C800072657475726E004E6F7A7A6C6520746539
:101C90006D70657261747572653A003F3F3F002553
:101CA00000814300814300814300814300526574F9
:101CB00075726E20746F20416476616E6365642E68
:101CC000003F3F3F0046616E2073706565640048C9
:101CD0006561747570206275696C64706C6174659F
:101CE00000486561747570206E6F7A7A6C65005279
:101CF000657475726E003F3F3F0041626F75742ED0
:101D00000053657474696E67732E004D6F76656D50
:101D1000656E742E004368616E6765207468652087
:101D200054656D70657261747572652E003F3F3F3A
:101D3000008041626F7574008053657474696E67CA
:101D40007300804D6F76656D656E74008254656DAD
:101D50007065726174757265003F3F3F0056657231
:101D600073696F6E20322E312E3550202D626574CE
:101D7000612032004D616368696E6520537461743F
:101D8000652E00466163746F7279205265736574C5
:101D90002E0052657475726E20746F2041647661F6
:101DA0006E6365642E003F3F3F0056657273696F36
:101DB0006E004D616368696E6520537461746500DF
:101DC000466163746F727920526573657400526561
:101DD0007475726E00830082004F00830082004F92
:101DE00000830082004F00200020002000444F4E5E
:101DF000450053657474696E6773006D6D2F73656C
:101E000063005265636F7665722073706565640068
:101E10006D6D2F7365630052657472616374207316
:101E200070656564006D6D00526574726163742045
:101E30006C656E6774680052455452414354494F73
:101E40004E006D6D2F736563006D6D2F73656300BC
:101E50006D6D003F3F3F005265636F766572207382
:101E60007065656400526574726163742073706597
:101E700065640052657472616374206C656E67748A
:101E8000680052657475726E003F3F3F004D61748B
:101E9000657269616C2073657474696E67732E0076
:101EA00052657472616374696F6E207365747469CE
:101EB0006E67732E0052657475726E20746F2041C8
:101EC0006476616E6365642E003F3F3F004D617430
:101ED000657269616C2073657474696E6773005212
:101EE000657472616374696F6E2073657474696E72
:101EF00067730052657475726E0081430081432FD1
:101F000000436C69636B20746F2072657475726E28
:101F1000004275696C64706C6174652074656D70E5
:101F20002E3A004D61696E74656E616E6365204D79
:101F3000656E7500746865206275696C64706C61AB
:101F400074653F004175746F6D61746963616C6C99
:101F500079206C6576656C00576F756C6420796FBD
:101F600075206C696B6520746F004E4F00594553A6
:101F700000746865206275696C64706C6174653F9B
:101F8000004D616E75616C6C79206C6576656C00D6
:101F9000576F756C6420796F75206C696B65207460
:101FA0006F004E4F00594553007461726765745F4E
:101FB00074656D70657261747572655F62656400E9
:101FC00043616C6962726174696F6E005072657012
:101FD0006172696E6720666F720048656174696E30
:101FE000672075702E2E2E0041424F52540047310B
:101FF00020583735205930205A302E332046333080
:102000003030002045300A0047393220452D32302B
:102010000A473120460047393220452D32300A47E1
:10202000312046002045300A0020452D32300A4735
:102030003120460020452D32300A47312046000A23
:1020400047312046000A47312046004739322045B3
:1020500000473932204500473120463630303020A5
:102060005A35300A473120583020592D3635205AFC
:10207000353000473238006164645F686F6D6569B0
:102080006E675B5A5F415849535D00776F726B739F
:102090002077656C6C2E00756E74696C20746865B1
:1020A000207072696E7400746F206D6F7665207495
:1020B000686520686F74656E640050726573732084
:1020C000446F776E206F7220555000444F4E45008C
:1020D000706C61696E466163746F72206E65773AE9
:1020E00000706C61696E466163746F72206F6C641E
:1020F0003A0066697474696E674265644172726120
:1021000079004732380A4D3834006164645F686F83
:102110006D65696E675B5A5F415849535D0069732D
:10212000206C6566742061726F756E642069742E10
:1021300000636173652074686174206D61746572F9
:1021400069616C005072696E7468656164206865CD
:102150006174696E6720696E0043414E43454C00CF
:102160004732390A4D38340063616C6962726174B8
:10217000696F6E2070726F636573732E0067656E92
:10218000746C7920746F20646F2074686500746FBC
:1021900075636820746865206275696C64706C6131
:1021A000746500546865204E6F7A7A6C6520776993
:1021B0006C6C0041424F5254003F3F3F004C6576EB
:1021C000656C2074686520506C6174666F726D2E4A
:1021D000004368616E676520746865204D617465B1
:1021E0007269616C2E003F3F3F008343616C6962FE
:1021F00072617465008252656C6F61640041425384
:1022000000504C41004D6174657269616C205365EA
:102210007474696E67730053656C656374656420DC
:102220006D6174657269616C3A004F4B0025004D19
:102230006174657269616C20666C6F770025004679
:10224000616E207370656564006D6D004D6174652D
:102250007269616C204469616D65746572008143C7
:10226000004275696C64706C6174652054656D70B2
:102270002E0081430054656D7065726174757265DE
:10228000004D6174657269616C2044657461696CAC
:102290007300250025006D6D008143008143003FE0
:1022A0003F3F0053746F72652061732070726573D5
:1022B000657400466C6F7720250046616E004469A6
:1022C000616D65746572004865617465642062754E
:1022D000696C64706C6174650054656D70657261E1
:1022E000747572650052657475726E004D6F646925
:1022F0006679207468652073657474696E6773000D
:1023000025002046616E3A0081430081430025008C
:10231000466C6F773A006D6D004C6F6164204465C8
:102320006661756C7400437573746F6D697A6500CE
:1023300052657475726E006D6174657269616C20AE
:102340006368616E67696E67005072696E74686574
:1023500061642068656174696E6720666F72005001
:102360006C6561736520776169742C006265207209
:10237000656D6F7665642E00546865206D617465C7
:102380007269616C2077696C6C0048656174696E74
:10239000672066696E69736865642E00534B495007
:1023A00000434F4E54494E554500616E6420746899
:1023B000656E207075736820627574746F6E2E0080
:1023C00064726976656420627920657874727564D8
:1023D000657200657874727564657220756E7469D3
:1023E0006C20697420697300496E73657274206D86
:1023F0006174657269616C20696E746F0052454149
:1024000044592020200052454144592020200043B7
:10241000414E43454C00524541445920202000463E
:102420006F7277617264696E67206D61746572693D
:10243000616C0066726F6D206E6F7A7A6C652E2EFD
:102440002E006D6174657269616C206578697473C2
:10245000005075736820627574746F6E20776865BC
:102460006E005245414459202020005245414459B4
:102470002020200043414E43454C005245414459E1
:10248000202020004D4154455249414C0025002058
:1024900046616E3A008143008143002500466C6F1F
:1024A000773A006D6D00526576657273696E6720CC
:1024B0006D6174657269616C005245414459202018
:1024C00020005245414459202020006578747275DF
:1024D0006465722E006D6174657269616C2066724C
:1024E0006F6D00506C656173652072656D6F766508
:1024F0000043414E43454C00524541445920202061
:102500000053442043415244003B464C41564F52F5
:102510003A556C746947436F6465003B464C4156BD
:102520004F523A556C746947436F6465004E6F2093
:1025300066696C657320666F756E6421004F4B0091
:102540004F4B0052656164696E6720636172642E4F
:102550002E2E00506C6561736520696E7365727410
:102560002063617264004E6F2053442D43415244F6
:1025700021004E6F20696E666F20617661696C6123
:10258000626C65006D006D004D6174657269616C0F
:102590003A200054696D653A20003B4D4154455244
:1025A00049414C3A003B54494D453A00466F6C64F2
:1025B0006572004261636B0052657475726E0055FE
:1025C0006C746947636F64650047436F64652046B8
:1025D0006C61766F723E3E00437572613E3E4D61A6
:1025E0006368696E652073657474696E6700506C0A
:1025F000656173652055736520556C746947476F35
:1026000063646500434F4E54494E55450043414E67
:1026100043454C00556C746947636F6465004743DC
:102620006F646520466C61766F723E3E0043757242
:10263000613E3E4D616368696E65207365747469BF
:102640006E6700506C656173652055736520556C2D
:10265000746947476F63646500434F4E54494E5554
:10266000450043414E43454C00473120463330300E
:1026700030205A300A47312046343030205A323028
:10268000004D3130370A4D323230205334300A4D4C
:1026900037383020533235350A4D373831205331F1
:1026A0003030000A47312046000A473120460020DA
:1026B0005A00205A002059002059000A473120466C
:1026C000333030302058000A473120463330303024
:1026D0002058004739322045004739322045002034
:1026E00045300A0047393220452D32300A47312023
:1026F000460047393220452D32300A473120460006
:102700002045300A0020452D32300A47312046004E
:1027100020452D32300A47312046000A47312046F5
:10272000000A4731204600473932204500473932F8
:102730002045004731204636303030205A35300AA7
:10274000473120583020592D3635205A3530000A6F
:10275000473120583020592D3635205A000A47314C
:1027600020583020592D3635205A00473120463622
:10277000303030205A004731204636303030205A31
:1027800000436F64653A0053442D63617264210015
:1027900072656164696E67004572726F7220776856
:1027A000696C650052455455524E20544F204D419E
:1027B000494E008143008143202020005072696E01
:1027C00074657220636F6F6C696E6720646F776EDB
:1027D000004241434B20544F204D454E55007468F4
:1027E00065206D6F64656C2E00596F752063616E96
:1027F0002072656D6F7665005072696E742066692F
:102800006E6973686564004241434B20544F204D0C
:10281000454E55004D3737342053256C640D0A0062
:102820004D3737332053256C640D0A004D3737324E
:10283000205025690D0A002D2D3A2D2D3A2D2D0001
:1028400081430081430048656174696E6720627549
:10285000696C64706C617465008143008143004859
:10286000656174696E6700746F20636F6E74696E62
:10287000756500507265737320627574746F6E00B5
:102880005072696E74696E673A0050415553450045
:1028900054554E450050617573696E672E2E2E009B
:1028A00057616974696E670050617573652074685B
:1028B00065207072696E743F004E4F005945530099
:1028C00025004D6174657269616C20666C6F7700DC
:1028D000250046616E2073706565640025005072A6
:1028E000696E742073706565640054554E45006DC3
:1028F0006D00726574726163745F7A6C69667400EE
:102900006D6D2F736563005265747261637420731B
:1029100070656564006D6D0052657472616374204A
:102920006C656E6774680052455452414354494F78
:102930004E006D6D006D6D2F736563006D6D003F12
:102940003F3F0052657472616374205A6C6966740B
:10295000005265747261637420737065656400521F
:10296000657472616374206C656E6774680052658B
:102970007475726E0081430081432F00436C69635C
:102980006B20746F2072657475726E004E6F7A7A68
:102990006C652074656D70657261747572653A005E
:1029A00025002500814300814300814300814300CD
:1029B000250052657472616374696F6E004D6174B5
:1029C000657269616C20666C6F770046616E20737A
:1029D00070656564004275696C64706C6174652033
:1029E00074656D702E0054656D70657261747572DA
:1029F000650053706565640052657475726E0050B1
:102A00007265706172696E6720746F207072696E92
:102A1000743A0048656174696E672075702E2E2EB9
:102A20000041424F52540047323800505245504105
:102A300052455F5052494E54494E475F53544F528E
:102A4000455F46494E495348005052455041524512
:102A50005F5052494E54494E475F53544F52455F61
:102A60004C43445F43414348450050524550415216
:102A7000455F5052494E54494E475F53544F52455B
:102A80005F53445F434C4153535F56414C4944416B
:102A9000544500505245504152455F5052494E54A2
:102AA000494E475F53544F52455F53445F434C4137
:102AB000535300505245504152455F5052494E5475
:102AC000494E475F434C4541525F53445550535F15
:102AD000504F534954494F4E5F56414C494441541D
:102AE0004500505245504152455F5052494E54495D
:102AF0004E475F434C4541525F53445550535F50DE
:102B00004F534954494F4E00505245504152455F32
:102B10005052494E54494E475F494E4954005072F5
:102B20006570617265205072696E74696E673A00F3
:102B300057414954494E47007072696E743F00779F
:102B4000616E7420746F20726573756D65006669BF
:102B50006E69736865642E20446F20796F75004C30
:102B6000617374207072696E74206973206E6F7463
:102B7000004E4F005945530052656164696E6720ED
:102B8000636172642E2E2E00506C6561736520693E
:102B90006E736572742063617264004E6F205344DB
:102BA0002D4341524421006865696768742E006FA7
:102BB00072206D616E75616C6C7920736574207420
:102BC000686500436F6E74696E756520746F20725E
:102BD0006573756D65004D414E55414C00434F4E38
:102BE00054494E55450043757272656E74205A3AC9
:102BF0000043757272656E74205A3A0050726573A4
:102C00007320446F776E206F72205550004C6173B3
:102C100074205072696E746564205A3A004C617376
:102C200074205072696E746564205A3A00434F4EA6
:102C300054494E554500434F4E54494E5545004763
:102C40003238006D616E75616C5F736561726368C7
:102C50005F73645F63617264003B4C415945523A53
:102C6000004C617965723A003B4C415945523A003B
:102C70003B4C415945523A00536561726368696E35
:102C80006720534420636172642E2E2E0041424F10
:102C900052540072656C6561736520437573746F7F
:102CA0006D00666F756E6420437573746F6D003BC5
:102CB000545950453A435553544F4D003B54595085
:102CC000453A435553544F4D003B545950453A00F3
:102CD0003B545950453A00666F756E642066006635
:102CE0006F756E64206500666F756E64207A00668D
:102CF0006F756E64207900666F756E64207800735E
:102D000064206572726F7200534420736561726350
:102D10006820746F6F206C6F6E670053442072657B
:102D20006164206572726F7200454550524F4D20AC
:102D300066696C6520706F736974696F6E005344C7
:102D40005550532056616C69646174652077726FC9
:102D50006E67005344555053537461746520777205
:102D60006F6E67004D323520666F756E64005A20B5
:102D7000646F65736E2774206D61746368004341EE
:102D80004E43454C004D32350053445550534C6131
:102D900073745A00534455505343757272656E7480
:102DA000506F736974696F6E003B4C415945523ADC
:102DB000004C617965723A003B4C415945523A00EA
:102DC0007364206572726F72005365617263686923
:102DD0006E6720534420636172642E2E2E004142A0
:102DE0004F5254003B4C415945523A004C61796571
:102DF000723A0052657472697665496E6465783A14
:102E0000003B4C415945523A003B4C415945523ADE
:102E100000205A00205A002059002059000A47314A
:102E20002058000A47312058004731205A004731C6
:102E3000205A004732380A4731310A473120463696
:102E4000303030205A3230300072656C6561736505
:102E500020437573746F6D00666F756E64204375E3
:102E600073746F6D003B545950453A435553544F5A
:102E70004D003B545950453A435553544F4D003B38
:102E8000545950453A003B545950453A00666F75C5
:102E90006E64206600666F756E64206500666F75EF
:102EA0006E64207900666F756E642078007364200C
:102EB0006572726F72004732380A4D3834004739F4
:102EC00032204525690A47312046256920453000D2
:102ED0004D383420582059205A2045006563686FCA
:102EE0003A0043616E6E6F7420656E746572207374
:102EF00075626469723A20004D3234004D323320DD
:102F00002573006175746F25692E67004572726FB5
:102F1000723A006572726F722077726974696E67B7
:102F200020746F2066696C6500436172642065726D
:102F3000726F723A004E6F74205344207072696E43
:102F400074696E67002F005344207072696E746953
:102F50006E67206279746520002E0044656C65748C
:102F6000696F6E206661696C65642C2046696C65CA
:102F70003A200046696C652064656C657465643A46
:102F8000002E006F70656E206661696C65642C2090
:102F900046696C653A200057726974696E672074DF
:102FA0006F2066696C653A20002E006F70656E2098
:102FB0006661696C65642C2046696C653A20002E58
:102FC000006F70656E206661696C65642C204669CF
:102FD0006C653A200046696C652073656C656374A6
:102FE0006564002053697A653A200046696C652063
:102FF0006F70656E65643A20002E006F70656E20FC
:103000006661696C65642C2046696C653A200053E2
:10301000442063617264206F6B006F70656E526F45
:103020006F74206661696C656400766F6C756D65A0
:103030002E696E6974206661696C65640053442072
:10304000696E6974206661696C00544553540D0AB9
:10305000000D0A00556E6B6E6F776E20636F6D6D9D
:10306000616E643A20000D0A003F00566572736974
:103070006F6E20322E312E3550202D626574612006
:10308000320073696E67756C6172206D617472696C
:1030900078006563686F3A0020746F6F206C6F6E04
:1030A0006720657874727573696F6E2070726576CB
:1030B000656E7465640020636F6C6420657874725B
:1030C0007573696F6E2070726576656E74656400E5
:1030D00020746F6F206C6F6E6720657874727573E3
:1030E000696F6E2070726576656E7465640020632A
:1030F0006F6C6420657874727573696F6E2070727E
:103100006576656E7465640045313A200045303A55
:1031100020005A3A2000593A2000583A20004D53D6
:10312000312C4D53322050696E730A0024F404D9B7
:10313000201BC40C5C0E9804C4095F026507710172
:10314000F405F900FB04B30048048700C1036900DB
:103150005803550003034500BE023A0084023100C3
:1031600053022A002902250004022000E4011C0069
:10317000C8011900AF011700980114008401130061
:10318000710110006101100051010E0043010D009A
:1031900036010B002B010B0020010B00150109006B
:1031A0000C01090003010800FB000800F3000800FF
:1031B000EB000700E4000600DE000600D800060071
:1031C000D2000600CC000500C7000500C2000500C3
:1031D000BD000400B9000400B5000400B100040003
:1031E000AD000400A9000400A5000300A200030034
:1031F0009F0004009B00030098000300950002005C
:1032000093000300900003008D0002008B00030078
:103210008800020086000200840003008100020092
:103220007F0002007D0002007B00020079000200A6
:1032300077000100760002007400020072000100B5
:10324000710002006F0002006D0001006C000200BE
:103250006A000100690002006700010066000100C9
:1032600065000100640002006200010061000100CD
:10327000600001005F0002005D0001005C000100D1
:103280005B0001005A0001005900010058000100D4
:1032900057000100560001005500010054000100D4
:1032A00053000000530001005200010051000100D2
:1032B000500001004F0001004E0000004E000100D0
:1032C0004D0001004C0001004B0000004B000100CC
:1032D0004A000100490001004800000048000100C8
:1032E00047000100460000004600010045000000C4
:1032F00045000100440001004300000043000100BC
:1033000042000000420001004100000041000100B5
:10331000400001003F0000003F0001003E000000AF
:103320003E0001003D0000003D0001003C000000A7
:103330003C0000003C0001003B0000003B0001009D
:103340003A0000003A000100390000003900010095
:10335000380000003800000038000100370000008D
:103360003700010036000000360000003600010082
:103370003500000035000000350001003400000079
:10338000340000003400010033000000330000006E
:103390003300010032000000320000003200010062
:1033A0003100000031000000310001003000000059
:1033B00030000000300001002F0000002F0000004E
:1033C0002F0000002F0001002E0000002E00000042
:1033D0002E0001002D0000002D0000002D00000037
:1033E0002D0001002C0000002C0000002C0000002B
:1033F0002C0001002B0000002B0000002B0000001F
:103400002B0001002A0000002A0000002A00000012
:103410002A00010029000000290000002900000006
:1034200029000000290001002800000028000000F9
:1034300028000000280000002800010027000000EC
:1034400027000000270000002700000027000100DF
:1034500026000000260000002600000026000000D4
:1034600026000100250000002500000025000000C6
:1034700025000000250000002500010024000000B8
:1034800024000000240000002400000024000100AB
:1034900023000000230000002300000023000000A0
:1034A0002300000023000000230001002200000090
:1034B0002200000022000000220000002200000084
:1034C0002200010021000000210000002100000076
:1034D0002100000021000000210000002100010067
:1034E000200000002000000020000000200000005C
:1034F000200000002000000020000000200001004B
:103500001F0000001F0000001F0000001F0000003F
:103510001F0000001F0000001F0001001E0000002F
:103520001E0000001E0000001E00000024F4D43025
:1035300050C38E20C2A24017828B7011127A910D57
:10354000816CD90AA861E108C75866076151430632
:103550001E4B5D05C145A7041A411104093D98039E
:10356000713931034036DB0265339102D4305402A5
:10357000802E1D02632CEE01752AC501B028A00122
:10358000102781018F2564012B244B01E022340197
:10359000AC211F018D200D01801FFC00841EED0059
:1035A000971DDF00B81CD200E61BC600201BBC0024
:1035B000641AB200B219A8000A19A0006A1899008A
:1035C000D117910040178B00B516840031167E008C
:1035D000B31579003A157300C7146F0058146A00C8
:1035E000EE1366008813630025135E00C7125B00AC
:1035F0006C12570015125400C111510070114F0088
:1036000021114B00D61049008D1047004610440090
:1036100002104200C00F4000800F3E00420F3C00ED
:10362000060F3B00CB0E3800930E37005C0E3500C2
:10363000270E3400F30D3200C10D3100900D300023
:10364000600D2E00320D2D00050D2C00D90C2B0025
:10365000AE0C2900850C29005C0C2700350C2700D6
:103660000E0C2600E80B2400C40B2400A00B230042
:103670007D0B23005A0B2100390B2100180B200071
:10368000F80A1F00D90A1E00BB0A1E009D0A1D0071
:10369000800A1D00630A1C00470A1B002C0A1B003D
:1036A000110A1A00F7091A00DD091900C4091900E6
:1036B000AB091900920917007B091800630917006C
:1036C0004C09160036091600200916000A091500D3
:1036D000F5081500E0081400CC081400B808140020
:1036E000A4081400900813007D0812006B08130052
:1036F000580812004608120034081100230811006F
:103700001208110001081100F0071000E007100076
:10371000D0071000C0071000B0070F00A10710006D
:1037200091070E0083070F0074070F0065070E0056
:1037300057070E0049070E003B070D002E070E002D
:1037400020070D0013070D0006070D00F9060C00F9
:10375000ED060D00E0060C00D4060C00C8060C00B7
:10376000BC060C00B0060C00A4060B0099060C0069
:103770008D060B0082060B0077060B006C060B0013
:1037800061060A0057060B004C060A0042060A00B2
:1037900038060A002E060A0024060A001A060A0045
:1037A0001006090007060A00FD050900F4050900D6
:1037B000EB050900E2050900D9050900D00509005B
:1037C000C7050900BE050900B5050800AD050800DC
:1037D000A50509009C050800940508008C05080053
:1037E000840508007C050800740508006C050700C6
:1037F000650508005D050700560508004E05070031
:103800004705070040050800380507003105070097
:103810002A050700230507001C05060016050700FA
:103820000F0507000805060002050700FB04060057
:10383000F5040700EE040600E8040600E2040700B1
:10384000DB040600D5040600CF040600C904060008
:10385000C3040600BD040600B7040600B104050059
:10386000AC040600A6040600A00405009B040600A4
:1038700095040500900406008A04050085040500EF
:10388000800406007A040500750405007004050034
:103890006B04050066040500610405005C04050076
:1038A00057040500520405004D04050048040500B6
:1038B000430405003E0404003A04050035040500F5
:1038C000300404002C040500270404002304050030
:1038D0001E0404001A040400160405001104040068
:1038E0000D0404000904050004040400000404009D
:1038F000FC030400F8030400F4030400F0030400D4
:10390000EC030400E8030400E4030400E003040003
:10391000DC030400D8030400D4030400D003040033
:10392000CC030400C8030300C50303006563686F8C
:103930003A00205A3A0020593A0020583A00656E61
:103940006473746F7073206869743A2000457272F2
:103950006F723A0054656D7065726174757265209E
:103960006865617465642062656420737769746357
:10397000686564206F66662E204D415854454D5051
:1039800020747269676765726564202121003A209E
:1039900045787472756465722073776974636865BD
:1039A00064206F66662E204D494E54454D5020745C
:1039B00072696767657265642021003A20457874F2
:1039C0007275646572207377697463686564206FCB
:1039D00066662E204D415854454D502074726967DB
:1039E0006765726564202100202D20496E76616C28
:1039F0006964206578747275646572206E756D6295
:103A0000657220210070012C0190012701B0012274
:103A100001C0011D01F00118011002130130020E56
:103A2000016002090190020401C002FF000003FAD4
:103A3000004003F5008003F000D003EB002004E613
:103A4000007004E100E004DC004005D700C005D2AE
:103A5000004006CD00D006C8008007C3003008BE75
:103A600000F008B900C009B400B00AAF00B00BAA5A
:103A700000D00CA500000EA000500F9B00C01096B7
:103A8000005012910000148C00C0158700B01782FE
:103A900000B0197D00D01B7800001E730040206E1E
:103AA0000090226900F024640040275F0090295AAA
:103AB00000E02B5500102E500020304B00103246F5
:103AC00000E033410090353C001037370070383249
:103AD00000A0392D00B03A2800A03B2300603C1E16
:103AE00000103D1900903D1400103E0F00703E0A7A
:103AF00000C03E0500003F000045787472756465A3
:103B000072207377697463686564206F66662E201F
:103B100054656D706572617475726520646966665E
:103B20006572656E6365206265747765656E207485
:103B3000656D702073656E736F7273206973207486
:103B40006F6F20686967682021004D373737205034
:103B500025690D0A004D373736205025690D0A00BA
:103B60004D373735205025690D0A004D3737312044
:103B70005325690D0A004D373730205325690D0A4A
:103B800000504944204175746F74756E65206669F4
:103B90006E697368656421205075742074686520AF
:103BA0004B702C204B6920616E64204B6420636F46
:103BB0006E7374616E747320696E746F20436F6EE0
:103BC00066696775726174696F6E2E68005049444A
:103BD000204175746F74756E65206661696C6564EB
:103BE000212074696D656F75740020403A006F6B19
:103BF00020543A006F6B20423A00504944204175EE
:103C0000746F74756E65206661696C6564212054FB
:103C1000656D706572617475726520746F6F206870
:103C200069676800204B643A2000204B693A200005
:103C3000204B703A200020436C6173696320504927
:103C40004420002054753A2000204B753A20002073
:103C50006D61783A2000206D696E3A200020643A48
:103C6000200020626961733A2000000000006700B4
:103C7000010054010700DD010F0094021500C1038B
:103C80001C00EC042400FC083E0020116E00A3126E
:103C900078001514820095158C00E91696007518A9
:103CA000A000E519AA00661BB400C11CBE00311EAD
:103CB000C800921FD2000321DC004122E600C72386
:103CC000F0003D48F4010200002100240027002AF2
:103CD000002D003000330001010000040107010A3B
:103CE0000100002200250028002B002E00310034A6
:103CF0000002010000050108010B01000020002363
:103D000000260029002C002F0032000001000003D3
:103D1000010601090105050505070508080808024F
:103D20000202020A0A080804040404010101010154
:103D30000101010303030303030303040707070C43
:103D40000C0C0C0C0C0C0C020202020606060606F9
:103D50000606060B0B0B0B0B0B0B0B0102102020A6
:103D600008081020401020408002010201080402CF
:103D70000101020408102040808040201008040245
:103D8000018004020180402010080402010804029E
:103D900001010204081020408001020408102040A4
:103DA000800000090A02080B0C0D0706030401003D
:103DB0000000000000000000000000000000000003
:103DC0000000000000000000000000000011100FC3
:103DD00000000000000000000000000000000000E3
:103DE00000000000000000494E46494E4954594E1B
:103DF000414ECDCCCC3D0AD7233C17B7D13877CC38
:103E00002B329595E6241FB14F0A00002041000097
:103E1000C84200401C4620BCBE4CCA1B0E5AAEC550
:103E20009D7400407A10F35A00A0724E18090010D9
:103E3000A5D4E80000E87648170000E40B5402001F
:103E400000CA9A3B000000E1F5050000809698004A
:103E5000000040420F000000A08601000000102773
:103E600000000000E8030000000064000000000003
:103E70000A00000000000100000000002C76D88835
:103E8000DC674F0823DFC1DFAE59E1B1B796E5E348
:103E9000E453C63AE651997696E8E6C28426EB8961
:103EA0008C9B62ED407C6FFCEFBC9C9F40F2BAA5FE
:103EB0006FA5F490055A2AF75C936B6CF9676DC196
:103EC0001BFCE0E40D47FEF520E6B500D0ED902E9A
:103ED0000300943577050080841E080000204E0AF8
:103EE000000000C80C333333330F986E1283114136
:103EF000EF8D2114893BE65516CFFEE6DB18D18401
:103F00004B381BF77C1D901DA4BBE4242032847227
:103F10005E228100C9F124ECA1E53D270D94020247
:103F20000D94B53A0D94223B0D9456060D94DD0484
:103F30000D94203B0D94283B0D94A2190D9422075B
:103F40000D948F050D94903A0D942A3B0D94A93A47
:103F50000D94492D0D94343B0D94860A0D945419FB
:103F60000D94243B0D94363B0D94B30D0D94C93A3A
:103F70000D9439160D946F080D94D93A0D94A53A05
:103F80000D94A13A0D94B93A0D9461070D947F0BED
:103F90000D94450E0D94F9140D94C33A0D94323BD3
:103FA0000D94360D0D9451150D946F240D942E3BE8
:103FB0000D94303B0D9462120D94490F0D94290716
:103FC0000D94D13A0D94BE3A0D94B50C0D949C1EEF
:103FD0000D94F13A0D9430080D948D850D94262C96
:103FE0000D944A020D942C3B0D94F2120D94701F07
:103FF0000D946E140D94B13A0D94383B0D947D01DF
:104000000D94440C0D9431220D94D50D0D94D90DC1
:104010000D94522A0D9470200D94933A0D944504FA
:104020000D9421170D94E61F0D9495120D943D12D9
:104030000D94AF0D0D940F3B0D94B7010D947116B7
:104040000D946A020D94263B0D94E93A0D94F82DD7
:104050000D949B0D0D945E270D94361A0D94F93A2C
:104060000D94A9150D941C3B0D943A3B0D94350EFF
:104070000D9484070D94E13A0D941E3B0D9469094B
:104080000D94AD3A0D94721B0D94043B0D94462A89
:104090000D94212E3F350A39053911241FBECFEF6B
:1040A000D1E2DEBFCDBF00E00CBF14E0A0E0B2E083
:1040B000E8E7F6E203E00BBF02C007900D92AC3ACE
:1040C000B107D9F71BBE1BE1ACEAB4E001C01D92F9
:1040D000A130B107E1F710E4C8E9D0E404C02297A9
:1040E000FE010F94E292C439D107C9F70F945D45E0
:1040F0000D9430930C940000EF92FF920F931F9356
:10410000F22FF02E47FD02C0E4E001C0E4E1242FCD
:10411000332727FD309537FF03C0309521953F4F5A
:104120004F2D512F0F2FEE2E00D68F2D912F1F9137
:104130000F91FF90EF900895A0E0B0E0E2EAF0E286
:104140000D94FF92EC015B016115710519F0FB0103
:1041500091838083F9908F2D90E00F94E692892BC4
:10416000C9F7FDE2FF1621F4F990EE24E39405C0AF
:104170002BE2F21609F4F990EE248E010150104062
:10418000C80167EE7DE343E050E0C9D2892BF9F422
:104190008E010E5F1F4FC8016AEE7DE345E050E0DF
:1041A000BED2892B19F48E01095F1F4FA114B104EF
:1041B00019F0F50111830083E0FC04C070E090E089
:1041C00080E813C070E090E080E86FEF07C1C8019D
:1041D0006FEE7DE343E050E0A2D2892B69F4A11495
:1041E000B10429F470E090E080EC6FE7F7C022960C
:1041F000F501D183C083F6CF8824992440E050E0B4
:1042000060E070E0EF2DE053EA30A0F5F2E0EF2A35
:104210008E2D90E09C0128703070E2FE06C0232BAA
:1042200079F50894811C911C2BC0232B19F008945C
:1042300081089108DB01CA0112E0880F991FAA1FAB
:10424000BB1F1A95D1F7480F591F6A1F7B1F440FD8
:10425000551F661F771F4E0F511D611D711D483977
:1042600029E9520729E9620729E1720748F084E049
:10427000E82A06C0EE3F31F4E3FC39C098E0E92AB1
:10428000F990C0CFE53311F0E53189F529912D3250
:1042900019F4E0E1EE2A05C02B3219F081E090E03C
:1042A00003C0299182E090E0E22FE053EA3018F059
:1042B000C81BD90B1CC020E030E0FCE020383F07D1
:1042C0005CF4C901880F991F880F991F280F391FA7
:1042D000220F331F2E0F311DE991E053EA3068F3AE
:1042E000E4FE03C0309521953F4F820E931ECE2CE5
:1042F000DD24E1FE07C0A114B10421F02197F501EE
:10430000D183C083CB01BA010F943B8F7B018C0119
:10431000F3E0CF22DD2423E0C216D10421F417FB01
:10432000109517F9109557016801C801B70120E0F1
:1043300030E040E050E00F949B8E882309F44AC09F
:1043400097FE0DC026E0E22E2EE3F22E909481948B
:1043500091089394C0E2D0E000E010E012C09EE12A
:10436000E92E9EE3F92EF6CFF7012591359145917F
:104370005491C601B5010F947B915B016C018C1ABD
:104380009D0A8C169D0684F7D595C7950F5F1F4F24
:104390000630110529F08CEF9FEFE80EF91EF1CFE2
:1043A000C501D6017C018D018C2D880F8D2D881FB4
:1043B0008F3F51F0C601B50120E030E040E050E011
:1043C0000F949B8E882331F482E290E09093001B3F
:1043D0008093FF1A7E2D9F2D802F612F272F392F3D
:1043E000482F562FB901CA01CDB7DEB7ECE00D94C6
:1043F0001B932F923F925F926F927F928F929F9228
:10440000AF92BF92CF92DF92EF92FF920F931F93E2
:10441000CF93DF938C011B01EA016115710519F03F
:10442000FB0191838083209749F0CE010297839707
:1044300028F020E030E040E050E0F6C0F801A19024
:104440008F018A2D90E00F94E692892BB9F7FDE257
:10445000AF1631F4F801A1908F015524539407C091
:10446000FBE2AF1619F4F801A1908F0155242097B3
:1044700019F0C031D105C1F4F0E3AF1679F4F801B9
:104480008081883711F0883549F4F801A1800E5FEA
:104490001F4FF2E05F2AC0E1D0E006C0209721F470
:1044A00080E3A816E9F427C0C830D10531F1C9303E
:1044B000D10524F4C230D10531F50CC0CA30D10584
:1044C00089F0C031D105F9F4C12CD12CE12CB8E030
:1044D000FB2E28C0C12CD12CE12CA0E4FA2E22C046
:1044E000CAE0D0E0FCECCF2EFCECDF2EFCECEF2E93
:1044F000FCE0FF2E17C0C8E0D0E0C12CD12CE12C8D
:10450000E0E1FE2E0FC09E01442737FD4095542F59
:1045100060E070E080E090E80F948F92C901DA01CA
:104520006C017D0120E030E040E050E060E03E01C1
:10453000882477FC8094982C70EDB72EBA0CE9E0B3
:10454000EB1570F48A2D81548A3118F499ECB92E48
:1045500006C08A2D81568A3150F589EAB82EBA0CE8
:104560008B2D90E08C179D0714F56F3FE1F0C2167C
:10457000D306E406F506B0F0CA01B901A40193011F
:104580000F9451929B01AC012B0D311D411D511D0A
:104590002130F0E03F07F0E04F07F0E85F0710F44C
:1045A00061E001C06FEFF801A1908F01C5CF211428
:1045B000310481F0662331F001501040F101118384
:1045C000008308C051FE1AC002501040F10111834F
:1045D000008314C067FF12C050FC05C02FEF3FEFEF
:1045E0004FEF5FE704C020E030E040E050E882E2B7
:1045F00090E09093001B8093FF1A16C050FE08C0F5
:1046000050954095309521953F4F4F4F5F4F0CC0CF
:1046100057FF0AC082E290E09093001B8093FF1A3C
:104620002FEF3FEF4FEF5FE7B901CA01DF91CF9165
:104630001F910F91FF90EF90DF90CF90BF90AF90C0
:104640009F908F907F906F905F903F902F900895F4
:10465000FC0188279927E89421912032E9F3293039
:1046600010F02E30C8F32B3239F02D3231F468942B
:1046700003C060D1820F911D219120532A30C8F3CD
:104680001EF4909581959F4F08951F93FC019927E3
:104690008827BC01E89411911032E9F3193010F029
:1046A0001E30C8F31B3249F01D3241F4689405C036
:1046B0002CD1610F711D811D911D119110531A3064
:1046C000B8F33EF490958095709561957F4F8F4F2C
:1046D0009F4F1F910895FC010590061621F00020C0
:1046E000D9F7C00108953197CF010895FB01DC018E
:1046F0008D91059080190110D9F3990B0895FB0154
:10470000DC0105900D920020E1F70895FC01059071
:104710000020E9F7809590958E0F9F1F0895FB016B
:10472000DC014150504088F08D9181341CF08B3574
:104730000CF4805E659161341CF06B350CF4605EA6
:10474000861B611171F3990B0895881BFCCFFB0147
:10475000DC014150504030F08D910590801919F4E2
:104760000020B9F7881B990B0895FB01DC0141502B
:10477000504048F005900D920020C9F701C01D92ED
:1047800041505040E0F70895FB0155915523A9F0A1
:10479000BF01DC014D9145174111E1F759F4CD01FD
:1047A0000590002049F04D9140154111C9F3FB01DE
:1047B0004111EFCF81E090E001970895FB01DC010A
:1047C0002150304030F001900D920416C9F7CD0110
:1047D0000895882799270895FB01DC0104C08D9175
:1047E0000190801921F441505040C8F7881B990B63
:1047F0000895FB01DC0102C001900D924150504030
:10480000D8F70895FB01DC010D900020E9F711971E
:1048100001900D920020E1F70895FC018191861727
:1048200021F08823D9F7992708953197CF0108956A
:10483000FB01DC0101900D920020E1F70895FB01DE
:10484000DC014150504030F08D910190801919F4F5
:104850000020B9F7881B990B0895FB01DC0141503A
:10486000504048F001900D920020C9F701C01D9200
:1048700041505040E0F70895FC01615070400190B4
:104880000110D8F7809590958E0F9F1F0895FC0119
:1048900081E090E00190061609F4CF010020D1F7E5
:1048A00001970895FA01CF93FF93EF93223044F1DB
:1048B000253234F5C22FE894CA3049F497FB3EF410
:1048C00090958095709561957F4F8F4F9F4F2C2FBE
:1048D000332744275527FF93EF930F948F92EF913F
:1048E000FF91605D6A330CF0695D6193B901CA01A3
:1048F000605070408040904051F716F4CDE2C19373
:1049000010828F919F91CF9154C4592F482F372FE8
:10491000262F660F771F881F991F660F771F881F26
:10492000991F620F731F841F951F660F771F881FC3
:10493000991F08957AE0979F902D879F802D910D64
:1049400011240895AEE0B0E0E8EAF4E20D94079394
:104950000E891F898EE08C831A8309838FEF9FE76E
:104960009E838D839E01265E3F4FCE010196688D0A
:10497000798DA9010AD02F813885020F131FF80104
:1049800010822E96E4E00D942393ABE0B0E0EBECC4
:10499000F4E20D94F9923C012B015A01FC011782BB
:1049A0001682838181FD03C06FEF7FEFB9C19AE06A
:1049B000892E1E010894211C311CF3012381F20170
:1049C00023FD859123FF81912F01882309F4A5C13F
:1049D000853239F423FD859123FF81912F018532A2
:1049E00021F490E0B301F5D3E8CF982FFF24EE2413
:1049F0009924FFE1FF15D0F09B3269F09C3228F436
:104A0000903259F0933291F40EC09D3249F09033B8
:104A100069F441E024C052E0F52A84E0F82A28C075
:104A200098E0F92A25C0E0E1FE2A22C0F7FC29C05F
:104A3000892F80538A3070F4F6FE05C0989C902C24
:104A40001124980E15C0E89CE02C1124E80EF0E229
:104A5000FF2A0EC09E3229F4F6FC5FC140E4F42A1E
:104A600007C09C3619F450E8F52A02C0983649F47C
:104A7000F20123FD959123FF91912F01992309F0D4
:104A8000B8CF892F8554833018F08052833038F4A2
:104A900044E050E0A40EB51E5FE359830FC0933687
:104AA00031F0933779F0933509F052C01FC0F5010A
:104AB0008081898342E050E0A40EB51E610101E0CF
:104AC00010E011C0F501C080D180F6FC03C06FEF8B
:104AD0007FEF02C0692D70E042E050E0A40EB51EE9
:104AE000C601CADE8C015FE7F52213C0F501C08064
:104AF000D180F6FC03C06FEF7FEF02C0692D70E03C
:104B000042E050E0A40EB51EC60148D38C0150E827
:104B1000F52AF3FE06C018C080E290E0B30159D335
:104B2000EA948E2D90E008171907B0F30DC0F60136
:104B3000F7FC8591F7FE81916F0190E0B30149D3B5
:104B4000E110EA94015010400115110581F7E2C00F
:104B5000943611F0993661F5F7FE08C0F501208111
:104B600031814281538184E090E00AC0F501808167
:104B700091819C01442737FD4095542F82E090E0BD
:104B8000A80EB91E9FE6F92257FF09C0509540951F
:104B9000309521953F4F4F4F5F4FE0E8FE2ACA0105
:104BA000B901A1012AE030E040D3D82ED2183FC08D
:104BB000953729F41F2D1F7E2AE030E01DC01F2DE0
:104BC000197F9F3661F0903720F4983509F0A5C021
:104BD0000FC0903739F0983709F09FC004C028E023
:104BE00030E00AC0106114FD146020E130E004C020
:104BF00014FD166020E132E017FF08C0F501608166
:104C000071818281938144E050E008C0F501808188
:104C10009181BC0180E090E042E050E0A40EB51E1E
:104C2000A10103D3D82ED2188FE7F82EF122F6FE79
:104C30000BC05EEFF522D91438F4F4FE07C0F2FC85
:104C400005C08FEEF82202C01D2D01C0192DF4FE03
:104C50000DC0FE01ED0DF11D8081803319F499EE38
:104C6000F92208C01F5FF2FE05C003C08F2D8678B1
:104C700009F01F5F0F2DF3FC13C0F0FE0EC01E15D0
:104C800010F09D2C0AC09D2C9E0C911A1E2D05C063
:104C900080E290E0B3019DD21F5F1E15C8F304C0EF
:104CA0001E1510F4E11A01C0EE2404FF0EC080E3CB
:104CB00090E0B3018ED202FF1BC001FD03C088E764
:104CC00090E00EC088E590E00BC0802F867881F0E0
:104CD00001FF02C08BE201C080E2F7FC8DE290E0B0
:104CE000B30177D205C080E390E0B30172D29A9409
:104CF000D914C8F3DA94F101ED0DF11D808190E033
:104D0000B30167D2DD20B1F705C080E290E0B301C6
:104D100060D2EA94EE20C9F750CEF3016681778124
:104D2000CB012B96E2E10D941593A9E0B0E0EBE9FD
:104D3000F6E20D94FD926A01122FA02EBE2C2BE3F9
:104D4000201718F42CE3922E02C0902E9394AE01FB
:104D50004F5F5F4F27E0092D49D1BC018981E82EC3
:104D6000FF24C70189709070019711F4ADE209C06A
:104D7000B1FE02C0ABE205C0B0FC02C0A0E001C0C1
:104D8000A0E2E3FE3BC0AA2311F423E001C024E02B
:104D9000211710F020E002C0121B212FEB2CB4FED3
:104DA00002C0322F0AC0F601322F80E202C0819386
:104DB00031503323E1F7C20ED11CAA2319F0F601BA
:104DC000A1936F01F6013196E2FE05C09EE4D60183
:104DD0009C9381E404C09EE6D6019C9381E61196E3
:104DE0008C9391833296DF01832F90E202C09D93D2
:104DF00081508823E1F7E30FF11D40C0E2FE42C07D
:104E0000AA2311F423E001C024E0211710F020E0D0
:104E100002C0121B212FEB2CB4FE02C0922F0AC03D
:104E2000F601922F80E202C0819391509923E1F71D
:104E3000C20ED11CAA2319F0F601A1936F01F6014D
:104E40003196E2FE08C089E4D6018C938EE4119677
:104E50008C9386E407C089E6D6018C938EE6119682
:104E60008C9386E681833296DF01892F20E202C08F
:104E70002D9381508823E1F7E90FF11D10822EEF69
:104E80003FEFAFC0161617061CF041E050E003C01C
:104E9000AB014F5F5F4FAA2019F480E090E003C0A0
:104EA0008A2D90E0019620E030E0AA2311F021E065
:104EB00030E0240F351F280F391F812F90E028176D
:104EC000390714F020E002C0121B212F4B2D50E0B7
:104ED000CA0180719070B4FC0DC0B3FC0BC0F60128
:104EE000322F40E202C0419331503323E1F7C20E2A
:104EF000D11C01C0322FAA2319F0F601A1936F0132
:104F0000892B11F0132F0AC0F601132F80E302C082
:104F1000819311501123E1F7C30ED11C092D060F07
:104F2000BA8090E1892E912C8E209F20E4FE04C04F
:104F3000F1E3BF1609F40150101614F001E003C0AC
:104F4000093008F008E09B0177FF02C020E030E064
:104F5000CB010196821B930BFE013196E80FF91FDE
:104F60008EE2F82E3B01601A71088A2D90E04427EA
:104F70005527481B590B8FEF2F3F380719F4D601DF
:104F8000FD926D01621773072CF06216730614F41C
:104F9000808101C080E321503040319624173507CD
:104FA00024F0D6018D936D01E6CF2617370749F41B
:104FB000B5E3BB1528F0BB1621F48114910409F464
:104FC00081E3F6018193D601812F90E202C09C9388
:104FD000815011968823D9F7E10FF11D108220E04E
:104FE00030E0C9012996EEE00D941993283008F0BD
:104FF00027E03327DA01990F311D87FD9160009674
:105000006105710539F432602E5F3D9330E32A95D6
:10501000E1F708959F3F30F080387105610509F090
:105020003C5F3C5F3D93913008F08068911DDF93B9
:10503000CF931F930F93FF92EF92192F987F96951E
:10504000E92F96959695E90FFF27E458F14C99279B
:105050003327EE24FF24A701E70105900894079465
:1050600028F4360FE71EF81E491F511D660F771FE3
:10507000881F991F0694A1F70590079428F4E70E5E
:10508000F81E491F561FC11D770F881F991F661FE5
:105090000694A1F70590079428F4F80E491F561FAF
:1050A000C71FD11D880F991F661F771F0694A1F790
:1050B0000590079420F4490F561FC71FD81F990F5A
:1050C000661F771F881F0694A9F7849110951770A3
:1050D00041F0D695C79557954795F794E7941A955B
:1050E000C1F7E2E2FEE36894159015913591659160
:1050F000959105907FE27395E118F10A430B560BE9
:10510000C90BD009C0F7E10CF11E431F561FC91F80
:10511000D01D7EF4703311F48A95E6CFE8940150E7
:1051200030F0080F0AF40027021708F4202F239507
:10513000022F7A3328F079E37D932A95E9F710C09E
:105140007D932A9589F606949795679537951795D7
:105150001794E118F10A430B560BC90BD00998F0CC
:1051600023957E9173957A3308F070E37C93201336
:10517000B8F77E9170617D9330F0839571E37D93F4
:1051800070E32A95E1F71124EF90FF900F911F91A2
:10519000CF91DF91992787FD90950895FC010590A7
:1051A000615070400110D8F7809590958E0F9F1F29
:1051B0000895DC01FC01672F71917723E1F73297A5
:1051C00004C07C916D9370836291AE17BF07C8F3E2
:1051D00008950F931F93CF93DF938C01EB018B8185
:1051E00081FF1BC082FF0DC02E813F818C819D817C
:1051F0002817390764F4E881F9810193F983E8837A
:1052000006C0E885F985802F1995892B31F48E81A8
:105210009F8101969F838E8302C00FEF1FEFC8010D
:10522000DF91CF911F910F910895FA01AA2728309D
:1052300051F1203181F1E8946F936E7F6E5F7F4F63
:105240008F4F9F4FAF4FB1E03ED0B4E03CD0670FDF
:10525000781F891F9A1FA11D680F791F8A1F911D32
:10526000A11D6A0F711D811D911DA11D20D009F482
:1052700068943F912AE0269F11243019305D3193C4
:10528000DEF6CF010895462F4770405D4193B3E0AD
:105290000FD0C9F7F6CF462F4F70405D4A3318F054
:1052A000495D31FD4052419302D0A9F7EACFB4E005
:1052B000A6959795879577956795BA95C9F70097BD
:1052C0006105710508959B01AC010A2E069457955E
:1052D000479537952795BA95C9F7620F731F841FB5
:1052E000951FA01D0895DC01FB018D919C911197E4
:1052F0002081F999FECF1FBA92BD81BD20BD0FB6A6
:10530000F894FA9AF99A0FBE019611969C938E938F
:105310004150504011F03196E8CF0895FC01DB0177
:1053200020813181F999FECF32BD21BDF89A80B537
:105330008C9380819181019691838083415050406C
:1053400011F01196EDCF0895DF93CF93CDB7DEB76F
:1053500064970FB6F894DEBF0FBECDBF80910002F8
:1053600090910102A0910202B09103028D879E8765
:10537000AF87B88BFE013D9624E630E08081F99935
:10538000FECF1FBA32BD21BD80BD0FB6F894FA9A88
:10539000F99A0FBE2F5F3F4F2836310511F0319635
:1053A000EDCFE1ECF4E18081F999FECF1FBA32BD77
:1053B00021BD80BD0FB6F894FA9AF99A0FBE2F5FFF
:1053C0003F4F2837310511F03196EDCFE1EBF4E195
:1053D0008081F999FECF1FBA32BD21BD80BD0FB6C5
:1053E000F894FA9AF99A0FBE2F5F3F4F283831058B
:1053F00011F03196EDCFE5EDF4E18081F999FECF22
:105400001FBA32BD21BD80BD0FB6F894FA9AF99A41
:105410000FBE2F5F3F4F2839310511F03196EDCF88
:10542000E9EEF4E18081F999FECF1FBA32BD21BDCA
:1054300080BD0FB6F894FA9AF99A0FBE2F5F3F4FCE
:105440002C39310511F03196EDCFEDEEF4E180818C
:10545000F999FECF1FBA32BD21BD80BD0FB6F894B9
:10546000FA9AF99A0FBE2F5F3F4F203A310511F09B
:105470003196EDCFE5EEF4E18081F999FECF1FBAC8
:1054800032BD21BD80BD0FB6F894FA9AF99A0FBECD
:105490002F5F3F4F243A310511F03196EDCFEDEFFC
:1054A000F4E18081F999FECF1FBA32BD21BD80BDE4
:1054B0000FB6F894FA9AF99A0FBE2F5F3F4F283A29
:1054C000310511F03196EDCFEDEAF4E18081F999E3
:1054D000FECF1FBA32BD21BD80BD0FB6F894FA9A37
:1054E000F99A0FBE2F5F3F4F2C3A310511F03196DC
:1054F000EDCFE1EFF4E18081F999FECF1FBA32BD23
:1055000021BD80BD0FB6F894FA9AF99A0FBE2F5FAD
:105510003F4F203B310511F03196EDCFE5EFF4E13F
:105520008081F999FECF1FBA32BD21BD80BD0FB673
:10553000F894FA9AF99A0FBE2F5F3F4F243B31053A
:1055400011F03196EDCFE9EFF4E18081F999FECFCA
:105550001FBA32BD21BD80BD0FB6F894FA9AF99AF0
:105560000FBE2F5F3F4F283B310511F03196EDCF35
:10557000E5E4F7E08081F999FECF1FBA32BD21BD85
:1055800080BD0FB6F894FA9AF99A0FBE2F5F3F4F7D
:10559000243C310511F03196EDCF8CED90E09A83EB
:1055A000898386E490E09C838B831E821D8280EF3A
:1055B00090E098878F8384E690E09A8789871C869D
:1055C0001B86FE0131968081F999FECF1FBA32BD4C
:1055D00021BD80BD0FB6F894FA9AF99A0FBE2F5FDD
:1055E0003F4F263C310571F7FE0133968081F999D2
:1055F000FECF1FBA32BD21BD80BD0FB6F894FA9A16
:10560000F99A0FBE2F5F3F4F283C310511F03196BC
:10561000EDCFFE0135968081F999FECF1FBA32BDDC
:1056200021BD80BD0FB6F894FA9AF99A0FBE2F5F8C
:105630003F4F2A3C310511F03196EDCFFE013796F0
:105640008081F999FECF1FBA32BD21BD80BD0FB652
:10565000F894FA9AF99A0FBE2F5F3F4F2C3C310510
:1056600011F03196EDCFFE0139968081F999FECF88
:105670001FBA32BD21BD80BD0FB6F894FA9AF99ACF
:105680000FBE2F5F3F4F2E3C310511F03196EDCF0D
:10569000FE013B968081F999FECF1FBA32BD21BD34
:1056A00080BD0FB6F894FA9AF99A0FBE2F5F3F4F5C
:1056B000203D310511F03196EDCFE4E1F4E0808139
:1056C000F999FECF1FBA32BD21BD80BD0FB6F89447
:1056D000FA9AF99A0FBE2F5F3F4F243D310511F022
:1056E0003196EDCFE8E1F4E08081F999FECF1FBA61
:1056F00032BD21BD80BD0FB6F894FA9AF99A0FBE5B
:105700002F5F3F4F283D310511F03196EDCFECE191
:10571000F4E08081F999FECF1FBA32BD21BD80BD72
:105720000FB6F894FA9AF99A0FBE2B3D310521F085
:105730002F5F3F4F3196EDCF2091EB03F999FECFCC
:105740001FBA8CED90E092BD81BD20BD0FB6F894DC
:10575000FA9AF99A0FBE20918A0EF999FECF1FBAD4
:105760008DED90E092BD81BD20BD0FB6F894FA9A00
:10577000F99A0FBEE8E0F4E18EED90E02081F9990E
:10578000FECF1FBA92BD81BD20BD0FB6F894FA9A24
:10579000F99A0FBE0196823E910511F03196EECF37
:1057A000ECE0F4E12081F999FECF1FBA92BD81BDF2
:1057B00020BD0FB6F894FA9AF99A0FBE0196863E6C
:1057C000910511F03196EECFEBEFF3E02081F999DE
:1057D000FECF1FBA92BD81BD20BD0FB6F894FA9AD4
:1057E000F99A0FBE01968A3E910511F03196EECFDF
:1057F000EEE1FAE02081F999FECF1FBA92BD81BD9A
:1058000020BD0FB6F894FA9AF99A0FBE01968E3E13
:10581000910511F03196EECFE0E1F4E12081F999A4
:10582000FECF1FBA92BD81BD20BD0FB6F894FA9A83
:10583000F99A0FBE0196823F910511F03196EECF95
:10584000E4E1F4E12081F999FECF1FBA92BD81BD58
:1058500020BD0FB6F894FA9AF99A0FBE0196863FCA
:10586000910511F03196EECFEFEFF3E02081F99939
:10587000FECF1FBA92BD81BD20BD0FB6F894FA9A33
:10588000F99A0FBE01968A3F910511F03196EECF3D
:10589000E0E2F4E12081F999FECF1FBA92BD81BD0B
:1058A00020BD0FB6F894FA9AF99A0FBE019621E03E
:1058B0008231920711F03196EDCFE0EDF3E02081D7
:1058C000F999FECF1FBA92BD81BD20BD0FB6F894E5
:1058D000FA9AF99A0FBE019621E08631920711F0EB
:1058E0003196EDCFE4EDF3E02081F999FECF1FBAB8
:1058F00092BD81BD20BD0FB6F894FA9AF99A0FBEF9
:10590000019621E08A31920711F03196EDCFECED4E
:10591000F3E02081F999FECF1FBA92BD81BD20BD71
:105920000FB6F894FA9AF99A0FBE21E08D319207DA
:1059300019F001963196EDCF809104029091050205
:10594000A0910602B0910702898B9A8BAB8BBC8B1E
:10595000FE01719684E690E02081F999FECF1FBA8E
:1059600092BD81BD20BD0FB6F894FA9AF99A0FBE88
:105970008736910519F001963196EECFEDE7F1E00B
:10598000949108C08091C00085FFFCCF9093C60021
:10599000319694919923B1F7E8ECF3E0949108C023
:1059A0008091C00085FFFCCF9093C6003196949102
:1059B0009923B1F78091C00085FFFCCF8AE08093E6
:1059C000C60064960FB6F894DEBF0FBECDBFCF9170
:1059D000DF910895DF93CF93CDB7DEB7E0970FB691
:1059E000F894DEBF0FBECDBFDE011196E1E5F4E015
:1059F00080E101900D928150E1F7DE015196E1E4E2
:105A0000F4E080E101900D928150E1F7DE01919682
:105A1000E1E3F4E080E101900D928150E1F78981AA
:105A20009A81AB81BC818093C1149093C214A093DE
:105A3000C314B093C41489899A89AB89BC898093B3
:105A4000B1149093B214A093B314B093B41489A179
:105A50009AA1ABA1BCA18093D5149093D614A09326
:105A6000D714B093D8148D819E81AF81B88580936F
:105A7000C5149093C614A093C714B093C8148D890D
:105A80009E89AF89B88D8093B5149093B614A09376
:105A9000B714B093B8148DA19EA1AFA1B8A58093FF
:105AA000D9149093DA14A093DB14B093DC14898595
:105AB0009A85AB85BC858093C9149093CA14A09332
:105AC000CB14B093CC14898D9A8DAB8DBC8D809303
:105AD000B9149093BA14A093BB14B093BC1489A5C5
