:100000000C947F1F0C94AC1F0C94AC1F0C94AC1F71
:100010000C94AC1F0C94AC1F0C94AC1F0C94AC1F34
:100020000C94AC1F0C94AC1F0C94AC1F0C94AC1F24
:100030000C94AC1F0D9442800C94AC1F0C94AC1F1C
:100040000C94AC1F0D940D690C94AC1F0C94AC1F58
:100050000C94AC1F0C94AC1F0D94A4710D942685C8
:100060000C94AC1F0C94DD330C94AC1F0C94AC1F9F
:100070000C94AC1F0C94AC1F0C94AC1F0C94AB36BE
:100080000C94AC1F0C94AC1F0C94AC1F0C94AC1FC4
:100090000C94AC1F0C94AC1F0C94AC1F0C94899264
:1000A0000C94AC1F0C94AC1F0C94AC1F0C94AC1FA4
:1000B0000C94AC1F0C94AC1F0C94AC1F0C94AC1F94
:1000C0000C94AC1F0C94AC1F0C94AC1F0C94AC1F84
:1000D0000C94AC1F0C94AC1F0C94AC1F0C94AC1F74
:1000E0000C94AC1FCA1E201F461F7A1F761FFC1ED1
:1000F000441F6C1F161F281F441F561F5A1F5C1FCA
:10010000061FF41E6E1F441FDC1EE01E141F441F3A
:10011000F01E081F541F3A1F601F721F381F221F36
:10012000181FF61ED01E001FCC1E0C1FEE1E4E1FE9
:10013000641F084AD73B3BCE016E84BCBFFDC12F74
:100140003D6C74319ABD56833DDA3D00C77F11BEC8
:10015000D9E4BB4C3E916BAAAABE000000803F05CB
:10016000A84CCDB2D44EB93836A9020C50B99186FC
:1001700088083CA6AAAA2ABE000000803F656368E2
:100180006F3A0048617264636F6465642044656619
:1001900061756C742053657474696E6773204C6F5D
:1001A000616465640048617264636F6465642044DF
:1001B000656661756C742053657474696E6773202D
:1001C00073746F7265640053697A65206F6620747A
:1001D00068652073657474696E6720696E20656553
:1001E00070726F6D3A0053746F726564207365743A
:1001F00074696E67732072657472696576656400F0
:100200002044002049002020204D33303120500070
:100210005049442073657474696E67733A00205ABC
:100220000020590020204D323036205800486F6D94
:1002300065206F666673657420286D6D293A00200D
:100240004500205A00205800204200205400202061
:100250004D323035205300416476616E6365642011
:100260007661726961626C65733A20533D4D696EC7
:1002700020666565647261746520286D6D2F732931
:100280002C20543D4D696E2074726176656C206639
:100290006565647261746520286D6D2F73292C204B
:1002A000423D6D696E696D756D207365676D656E34
:1002B000742074696D6520286D73292C20583D6D5C
:1002C0006178696D756D205859206A65726B2028B8
:1002D0006D6D2F73292C20205A3D6D6178696D75E5
:1002E0006D205A206A65726B20286D6D2F73292C42
:1002F0002020453D6D6178696D756D2045206A65EA
:10030000726B20286D6D2F73290020540020204D22
:10031000323034205300416363656C6572617469E7
:100320006F6E3A20533D616363656C6572617469F9
:100330006F6E2C20543D726574726163742061632A
:1003400063656C65726174696F6E00204500205AA8
:100350000020590020204D3230312058004D617866
:10036000696D756D20416363656C65726174696F59
:100370006E20286D6D2F7332293A00204500205AD7
:100380000020590020204D3230332058004D617834
:10039000696D756D2066656564726174657320288A
:1003A0006D6D2F73293A00204500205A0020590016
:1003B00020204D39322058005374657073207065C9
:1003C0007220756E69743A0053657474696E677350
:1003D0002053746F726564006563686F3A004572FC
:1003E000726F723A005072696E7465722073746F26
:1003F000707065642064756520746F206572726F1B
:1004000072732E2046697820746865206572726F59
:100410007220616E6420757365204D3939392074FE
:100420006F20726573746172742E202854656D702C
:100430006572617475726520697320726573657485
:100440002E20536574206974206166746572207271
:10045000657374617274696E6729005072696E7495
:1004600065722068616C7465642E206B696C6C2801
:10047000292063616C6C656421006F6B00526573A9
:10048000656E643A20002200556E6B6E6F776E20A9
:10049000636F6D6D616E643A202200456C65637414
:1004A000726F6E6963735F746573740020423A30D3
:1004B0000020423A31006F6B20523A004465766961
:1004C00063652049442053746F7265643A002200CA
:1004D000556E6B6E6F776E20636F6D6D616E643AF3
:1004E0002022007A5F6D61783A2000795F6D617833
:1004F0003A2000785F6D61783A20005A3A00593A04
:100500000020436F756E7420583A20005A3A005903
:100510003A0020436F756E7420583A2000453A0027
:100520005A3A00593A00583A004649524D574152FA
:10053000455F4E414D453A4D61726C696E20556C78
:1005400074696D616B6572323B20537072696E74B1
:1005500065722F6772626C206D61736875702066BA
:100560006F722067656E36204649524D574152459D
:100570005F55524C3A687474703A2F2F7777772E04
:100580006D656E64656C2D70617274732E636F6D32
:100590002050524F544F434F4C5F56455253494F92
:1005A0004E3A312E30204D414348494E455F545913
:1005B00050453A4F7665724C6F72642045585452DC
:1005C000554445525F434F554E543A310A00205727
:1005D0003A0020453A00543A002042403A00204078
:1005E0003A00202F006F6B20543A002569206D6976
:1005F0006E2C2025692073656300456E6420666952
:100600006C65206C69737400426567696E20666969
:100610006C65206C6973740066697474696E6742F6
:1006200065645570646174654B41667465723A0027
:1006300066697474696E6742656455706461746557
:100640004B4265666F72653A006164645F686F6D06
:1006500065696E675B5A5F415849535D006669740E
:1006600074696E67426564006164645F686F6D659C
:10067000696E675B5A5F415849535D0066697474DF
:10068000696E6742656441727261790000001643C9
:1006900000001643000020430000E0400000E0405E
:1006A0000000E04001010100000000000000000027
:1006B000002F43000096C2000096C2000000000018
:1006C0000096420000964200002043456E64737419
:1006D0006F70207374696C6C2070726573736564DD
:1006E000206166746572206261636B696E67206F5A
:1006F00066662E20456E6473746F70207374756324
:100700006B3F00456E6473746F70206E6F74207061
:1007100072657373656420616674657220686F6DBD
:10072000696E6720646F776E2E20456E6473746FF8
:10073000702062726F6B656E3F004732380A4D3829
:100740003400256920686F757273202569206D69F2
:100750006E7574657300446F6E65207072696E7497
:10076000696E672066696C65007364206572726FDC
:1007700072004D32323020532569004D3130362021
:10078000532569003B4C415945523A004D323520C2
:100790007265636569766564004D32350073642067
:1007A0006572726F72005072696E74657220737434
:1007B0006F707065642064756520746F2065727257
:1007C0006F72732E20466978207468652065727296
:1007D0006F7220616E6420757365204D3939392040
:1007E000746F20726573746172742E202854656D65
:1007F00070657261747572652069732072657365C6
:10080000742E2053657420697420616674657220AB
:1008100072657374617274696E6729006F6B004E44
:100820006F204C696E65204E756D62657220776928
:10083000746820636865636B73756D2C204C6173FD
:1008400074204C696E653A20004E6F2043686563E2
:100850006B73756D2077697468206C696E65206EA6
:10086000756D6265722C204C617374204C696E65E5
:100870003A2000636865636B73756D206D69736DF5
:10088000617463682C204C617374204C696E653A06
:1008900020004C696E65204E756D6265722069732B
:1008A000206E6F74204C617374204C696E65204E0D
:1008B000756D6265722B312C204C617374204C690C
:1008C0006E653A20004D31313000446F6E65207303
:1008D0006176696E672066696C652E006F6B004DEE
:1008E000323900706C61696E466163746F723A00F0
:1008F000706C61696E466163746F723A00202050BB
:100900006C616E6E65724275666665724279746579
:10091000733A20002046726565204D656D6F7279CF
:100920003A20004A756E202039203230313500439C
:100930006F6D70696C65643A200056657273696FFB
:100940006E20322E312E354D202D6265746120329D
:1009500000207C20417574686F723A20004A756EE1
:1009600020203920323031352032303A32373A3196
:100970003100204C61737420557064617465643A71
:100980002000312E302E30004D61726C696E2000D7
:1009900020536F66747761726520526573657400C9
:1009A000205761746368646F6720526573657400D3
:1009B0002042726F776E206F757420526573657474
:1009C000002045787465726E616C205265736574A1
:1009D00000506F77657255700073746172740065B2
:1009E0006E717565696E672066756C6C00220065B6
:1009F0006E717565696E67202200656E7175656937
:100A00006E672066756C6C002200656E7175656995
:100A10006E672022004F7574206F66206D656D6FC4
:100A20007279005344555053526574726965766506
:100A3000436C6173733A0053445550535363616E72
:100A4000506F736974696F6E3A0053445550535335
:100A500063616E496E646578007468652046696CF0
:100A600065506F736974696F6E3A00534455505303
:100A7000506F736974696F6E496E6465783A0000EF
:100A8000002110422063308440A550C660E7700802
:100A90008129914AA16BB18CC1ADD1CEE1EFF13189
:100AA00012100273325222B5529442F772D6623952
:100AB0009318837BB35AA3BDD39CC3FFF3DEE362D9
:100AC00024433420040114E664C774A44485546AA2
:100AD000A54BB528850995EEE5CFF5ACC58DD55369
:100AE00036722611163006D776F6669556B4465BF2
:100AF000B77AA719973887DFF7FEE79DD7BCC7C439
:100B000048E5588668A7784008611802282338CC41
:100B1000C9EDD98EE9AFF9488969990AA92BB9F5C8
:100B20005AD44AB77A966A711A500A333A122AFD91
:100B3000DBDCCBBFFB9EEB799B588B3BBB1AABA698
:100B40006C877CE44CC55C222C033C600C411CAEE1
:100B5000ED8FFDECCDCDDD2AAD0BBD688D499D97A8
:100B60007EB66ED55EF44E133E322E511E700E9F31
:100B7000FFBEEFDDDFFCCF1BBF3AAF599F788F88F8
:100B800091A981CAB1EBA10CD12DC14EF16FE180C9
:100B900010A100C230E3200450254046706760B9C0
:100BA000839893FBA3DAB33DC31CD37FE35EF3B119
:100BB000029012F322D2323542145277625672EA10
:100BC000B5CBA5A89589856EF54FE52CD50DC5E269
:100BD00034C324A01481046674476424540544DBA0
:100BE000A7FAB79987B8975FE77EF71DC73CD7D3B9
:100BF00026F2369106B01657667676154634564C70
:100C0000D96DC90EF92FE9C899E9898AB9ABA94408
:100C100058654806782768C018E1088238A3287DFF
:100C2000CB5CDB3FEB1EFBF98BD89BBBAB9ABB7558
:100C30004A545A376A167AF10AD01AB32A923A2ECF
:100C4000FD0FED6CDD4DCDAABD8BADE89DC98D26A8
:100C50007C076C645C454CA23C832CE01CC10C1FDF
:100C6000EF3EFF5DCF7CDF9BAFBABFD98FF89F17F8
:100C70006E367E554E745E932EB23ED10EF01E7CC3
:100C80003C3E5E2B3D3F2F5B5D3B2C2A225C006F80
:100C90007220737769746368206F666600436F6EB5
:100CA0006E6563742074686520506F776572004DBF
:100CB00061696E204D656E75005072696E742066B4
:100CC000726F6D20534420636172642E003F3F3F7A
:100CD00000835072696E7400737570706F72744027
:100CE000647265616D6D616B65722E636300436F45
:100CF0006E746163743A00526564756E64616E74FB
:100D00002054656D700058206F72205920737769E8
:100D100074636820737475636B0058206F72205978
:100D2000207377697463682062726F6B656E005A16
:100D30002073776974636820737475636B005A203D
:100D40007377697463682062726F6B656E005361BC
:100D500066657479206369726375697400486561BA
:100D6000746572206572726F720054656D702073C5
:100D7000656E736F72204245440054656D70207338
:100D8000656E736F72004552524F52202D2053549E
:100D90004F50504544008015000000000080C0C046
:100DA000E0E0E0E0E0E0C0C0800000E0E0E0E0E0A3
:100DB000E00000E0E0E0E0E00000E0E0E0E0E0E0B3
:100DC000E0E0E0E0E0E00000E0E0E0E0E0E06060E3
:100DD000E0E0E0C080000000E0E0E0E0E0E0E00013
:100DE0000000000000000080C0C0E0E0E0E0E0E0C3
:100DF000C0C080000000E0E0E0E0E0E06060E0E033
:100E0000E0C0800000E0E0E0E0E0E0E0E0E0E0C042
:100E1000C080000000000000000000001E7FFFFFF7
:100E2000FFE1C0C0E1FFFFFF7F1E0000030F3FFF97
:100E3000FFFCF0FC3F0F03000000C0FFFFFFFFFFBF
:100E4000CCCCC0E1E1E10000C0FFFFFFFFFFCC1C04
:100E50007FFFFFF7E3C00000C0FFFFFFFFFFC0C040
:100E6000C0F0F0F000001E7FFFFFFFE1C0C0E1FF17
:100E7000FFFF7F1E0000C0FFFFFFFFFFCC1C7FFFB6
:100E8000FFF7E3C000C0FFFFFFFFFFC0C0E1FFFFAF
:100E9000FF7F3E0000000000000000000000000096
:100EA000010101010101000000000000000000003C
:100EB0000101010000000000000001010101010129
:100EC0000101010101010000010101010101010015
:100ED0000001010101010000010101010101010105
:100EE00001010101000000000000010101010101F8
:100EF00000000000000001010101010101000001EA
:100F000001010101000101010101010101010101D2
:100F1000000000000000000032320000000000C0AD
:100F2000C040404040404040404040404040404041
:100F300040404040404040404040404040404040B1
:100F400040404040C0C00000000000000000000021
:100F500000FF000000000000000000008080808092
:100F600080808080FC808080808080808000000085
:100F700000000000000000FF000000000000000072
:100F8000000000FF0000000000000000000003FF60
:100F9000FFFFFFFFFF01FF01FFFFFFFFFFFF030058
:100FA000000000000000000000FF00000000000042
:100FB0000000000000FF0000000000000000000032
:100FC00000000103070F1F387F381F0F07030100C0
:100FD0000000000000000000000000FF0000000012
:100FE00000000000000000FF000000E0E0E0E0C0C2
:100FF000F0FCFCFEFEFFFFFFFFFFFFFFFFFFFFFF18
:10100000FEFEFCFCF0C0E0E0E0E0000000FF0000BD
:101010000000000000000000001F18101011111146
:1010200011101010101010101010101010101010BF
:101030001010101010101010111111111010181F95
:1010400000000000000000000000000000000000A0
:101050000000000000000000000000000000000090
:101060000000000000000000000000000000000080
:10107000000000000000000032320000000000E02C
:101080006020202020202020202020202020202020
:101090002020202020202020202020202020202050
:1010A0002020202060E00000000000000000000080
:1010B00000FF0000000000000000000002060E1EFD
:1010C0003E7EFEFEFCF8F0E0C08000000000000064
:1010D00000000000000000FF000000000000000011
:1010E000000000FF000000FEFCF8F0E0C0800000FF
:1010F000000000000001FFFFFFFFFFFF8000000075
:10110000000000000000000000FF000000000000E0
:101110000000000000FF000000000103070F1F3F58
:101120003F3F3F3F3F3F3F7FFFFFFFFFFFFFFFFF8F
:10113000FEFCF8F0E0C08000000000FF00000000AE
:1011400000000000000000FF0000000000000000A0
:1011500000000000000000000000000103070F1F56
:101160003F7FFFF7E3C1E3F77F3F000000FF000090
:101170000000000000000000000F0C08080808082C
:1011800008080808080808080808080808080808DF
:1011900008080808080808080808080808080C0FC4
:1011A000000000000000000000000000000000003F
:1011B000000000000000000000000000000000002F
:1011C000000000000000000000000000000000001F
:1011D00000000000000000003232000000000000AB
:1011E000C0C04040404040404040404040404040FF
:1011F00040404040404040404040404040404040EF
:101200004040404040C0C00000000000000000001E
:101210000000FF000000000000C0C0C0C0C0C0C08F
:10122000C0C0C0C0C0C0C0C0C0C0C0C0C0E020E01E
:10123000C0C0000000000000FF000000000000002F
:1012400000000000FF00000000000001010101019A
:1012500001010101010181818101010101010103FC
:1012600002030101000000000000FF000000000078
:10127000000000000000FF0000000000000707075A
:1012800007070707070707070F080F0707070707DD
:10129000070707070707000000000000FF00000025
:1012A0000000000000000000FF0000000000001C23
:1012B0001C1C3E223E1C1C1C1C1C1C1C1C1C1C1C24
:1012C0001C1C1C1C1C1C1C1C000000000000FF003F
:1012D000000000000000000000001F181010101097
:1012E00010101010101010101010101010101010FE
:1012F00010101010101010101010101010101018E6
:101300001F000000000000000000000000000000BE
:1013100000000000000000000000000000000000CD
:1013200000000000000000000000000000000000BD
:10133000000000000000000043414E43454C007790
:1013400061726E696E673A20696E736964652074B4
:101350006865207377696674000000000000000073
:101360005F00000007000700147F147F14242A7F09
:101370002A122313086462364955225000050300DF
:1013800000001C2241000041221C00082A1C2A08DF
:1013900008083E0808005030000008080808080047
:1013A0006060000020100804023E5149453E0042A2
:1013B0007F400042615149462141454B311814128A
:1013C0007F1027454545393C4A4949300171090597
:1013D000033649494936064949291E003636000078
:1013E000005636000000081422411414141414414D
:1013F000221408000201510906324979413E7E114A
:1014000011117E7F494949363E414141227F414188
:10141000221C7F494949417F090901013E4141514F
:10142000327F0808087F00417F41002040413F0192
:101430007F081422417F404040407F0204027F7FAA
:101440000408107F3E4141413E7F090909063E41A3
:1014500051215E7F09192946464949493101017FD9
:1014600001013F4040403F1F2040201F7F201820A7
:101470007F631408146303047804036151494543EE
:1014800000007F4141020408102041417F00000418
:101490000201020440404040400001020400205488
:1014A0005454787F484444383844444420384444B1
:1014B000487F3854545418087E09010208145454C3
:1014C0003C7F0804047800447D40002040443D00F7
:1014D000007F10284400417F40007C041804787C81
:1014E0000804047838444444387C1414140808145C
:1014F00014187C7C080404084854545420043F44C5
:1015000040203C4040207C1C2040201C3C4030407F
:101510003C44281028440C5050503C4464544C44E3
:10152000000836410000007F000000413608000836
:10153000082A1C08081C2A0808081C3E1C0800066B
:1015400009090610181C181008183818084C63648C
:101550005570646174654E6F726D616C004C6364AC
:1015600055706461746557616974696E67004C6396
:10157000645570646174654572726F72496E496E2C
:1015800074657272757074004C6364557064617434
:10159000654572726F720064656661756C7400698E
:1015A00069632064617461206572726F72005457C0
:1015B0005F4D525F4152425F4C4F53540069696323
:1015C0002064617461206572726F7200646174617D
:1015D0000069326354696D654F7574006932632028
:1015E00054696D654F7574006E6F74206E6F726D07
:1015F000616C20656E64006932632054696D654FCB
:1016000075740064656661756C7400696963207344
:1016100074617274206572726F720054575F4D521C
:101620005F4152425F4C4F535400696963207374A9
:10163000617274206572726F720054575F42555325
:101640005F4552524F52006969632073746172742E
:10165000206572726F720064656661756C740069F2
:1016600069632061646472657373206572726F725E
:101670000054575F4D525F4152425F4C4F535400EC
:101680006969632061646472657373206572726F47
:10169000720054575F4D525F534C415F4E41434B74
:1016A0000069696320616464726573732065727296
:1016B0006F72006932632054575F4D525F4441544A
:1016C000415F4E41434B00693263206C6364566551
:1016D0007273696F6E0054575F4D525F534C415F98
:1016E00041434B006932632054696D654F75740046
:1016F000696E746F2054575F4D525F534C415F4188
:10170000434B0054575F4255535F4552524F52006E
:101710006969632061646472657373206572726FB6
:10172000720054575F4D545F534C415F4E41434BE1
:101730000069696320616464726573732065727205
:101740006F720054575F5354415254006932632002
:1017500054696D654F7574006932632073746172EA
:10176000742054575F5245505F535441525400699E
:1017700032632054696D654F757400746F20636F18
:101780006E74696E7565005072657373206D69645F
:10179000646C6520627574746F6E0073746172742A
:1017A0007570206F66204F7665724C6F72642100F1
:1017B00057656C636F6D6520746F20746865206673
:1017C0006972737400312F31300044454641554CE5
:1017D0005400434F4E54494E5545006973206C6583
:1017E00066742061726F756E642069742E00636187
:1017F00073652074686174206D6174657269616CD1
:10180000005072696E74686561642068656174690E
:101810006E6720696E00322F31300043414E4345E0
:101820004C0047323900746F20636F6E74696E75B7
:10183000652E0070757368206D6964646C65206244
:101840007574746F6E00696E73657274206D617467
:10185000657269616C2E004E6578742073746570D2
:1018600020697320746F00342F313000534B49507E
:1018700000434F4E54494E5545006D616B652061E4
:10188000203344205072696E74210049276D207204
:10189000656164792E206C6574277300392F3130AF
:1018A00000534B495000434F4E54494E5545007428
:1018B0006F207072696E742069742100616E6420FB
:1018C00070726573732074686520627574746F6ECE
:1018D000006F6E207468652053442D63617264004C
:1018E00053656C6563742061207072696E74206644
:1018F000696C650031302F3130004C45542753203E
:101900005052494E540052656164696E67206361AC
:1019100072642E2E2E0031302F313000796F7572A7
:10192000204F7665724C6F72642E2E2E00746861A3
:10193000742063616D65207769746800506C65611F
:10194000736520696E736572742053442D636172F0
:10195000640031302F3130006D6174657269616CE3
:10196000206C6F6164696E67007072696E7468657F
:1019700061642068656174696E6720666F720050EB
:101980006C6561736520776169742C00352F313087
:1019900000616E64207468656E20707573682062E3
:1019A0007574746F6E2E0064726976656420627956
:1019B00020657874727564657200657874727564F8
:1019C000657220756E74696C2069742069730049B2
:1019D0006E73657274206D6174657269616C2069E3
:1019E0006E746F00362F313000524541445920202B
:1019F00020005245414459202020004C6F61646909
:101A00006E67206D6174657269616C2E2E2E0037D1
:101A10002F31300052454144592020200066726F1A
:101A20006D206E6F7A7A6C652E2E2E006D61746556
:101A30007269616C206578697473005075736820F1
:101A4000627574746F6E207768656E00382F313060
:101A5000005245414459202020004D383400636134
:101A60006C6962726174696F6E2070726F63657306
:101A7000732E0067656E746C7920746F20646F201C
:101A800074686500746F756368207468652062759A
:101A9000696C64706C61746500546865204E6F7A7F
:101AA0007A6C652077696C6C00332F3130004142CD
:101AB0004F5254004465766963652049443A0056A4
:101AC000657273696F6E20322E312E354D202D6276
:101AD0006574612032004A756E2020392032303121
:101AE000352032303A32373A3137005265747572E8
:101AF0006E0041626F7574006D004D6174657269AE
:101B0000616C3A003A005072696E742074696D65B8
:101B10003A003A004C6966652074696D653A004286
:101B20006174746572793A202020202043686172C4
:101B300067656400426174746572793A20202020E0
:101B40004368617267696E670052657475726E00F2
:101B5000746F2064656661756C743F0052657365CF
:101B6000742065766572797468696E67004E4F00FF
:101B7000594553004D61696E74656E616E636520F1
:101B80004D656E75004732380A4D3834004D6F761A
:101B9000656D656E740081430081432F00436C695D
:101BA000636B20746F2072657475726E005072657D
:101BB000737320446F776E20746F2065787472752C
:101BC000646500507265737320555020746F2072E5
:101BD000657472616374004E6F7A7A6C6520746507
:101BE0006D70657261747572653A003F3F3F004DDC
:101BF0006F766520746865204D6174657269616CEB
:101C00002E00486F6D652074686520486561642EFC
:101C10000052657475726E20746F20416476616E37
:101C20006365642E003F3F3F004D6F7665204D6138
:101C300074657269616C00486F6D65204865616408
:101C40000052657475726E00250046616E207370D7
:101C50006565640054656D706174757265008143DB
:101C60000081432F00436C69636B20746F207265A1
:101C70007475726E004E6F7A7A6C652074656D7043
:101C8000657261747572653A003F3F3F00250081BF
:101C9000430081430052657475726E20746F204159
:101CA0006476616E6365642E003F3F3F0046616E5F
:101CB00020737065656400486561747570206E6F8F
:101CC0007A7A6C650052657475726E003F3F3F0012
:101CD00041626F75742E0053657474696E67732E5C
:101CE000004D6F76656D656E742E004368616E679A
:101CF00065207468652054656D70657261747572D5
:101D0000652E003F3F3F008041626F757400805335
:101D1000657474696E677300804D6F76656D656E6E
:101D200074008254656D7065726174757265003FF0
:101D30003F3F0056657273696F6E20322E312E352B
:101D40004D202D626574612032004D616368696EBB
:101D5000652053746174652E00466163746F7279F7
:101D60002052657365742E0052657475726E20740E
:101D70006F20416476616E6365642E003F3F3F00D3
:101D800056657273696F6E004D616368696E652098
:101D9000537461746500466163746F727920526593
:101DA0007365740052657475726E00830082004F13
:101DB00000830082004F00830082004F002000203B
:101DC000002000444F4E450053657474696E67737C
:101DD000006D6D2F736563005265636F76657220C9
:101DE0007370656564006D6D2F7365630052657473
:101DF00072616374207370656564006D6D00526577
:101E00007472616374206C656E6774680052455427
:101E100052414354494F4E006D6D2F736563006D01
:101E20006D2F736563006D6D003F3F3F005265632A
:101E30006F766572207370656564005265747261B7
:101E400063742073706565640052657472616374B5
:101E5000206C656E6774680052657475726E003F21
:101E60003F3F004D6174657269616C2073657474E5
:101E7000696E67732E0052657472616374696F6E68
:101E80002073657474696E67732E00526574757281
:101E90006E20746F20416476616E6365642E003F2E
:101EA0003F3F004D6174657269616C2073657474A5
:101EB000696E67730052657472616374696F6E2036
:101EC00073657474696E67730052657475726E0021
:101ED0004D61696E74656E616E6365204D656E75EA
:101EE00000746865206275696C64706C6174653F2C
:101EF000004175746F6D61746963616C6C79206CFD
:101F00006576656C00576F756C6420796F75206C11
:101F1000696B6520746F004E4F005945530074681B
:101F200065206275696C64706C6174653F004D6119
:101F30006E75616C6C79206C6576656C00576F7599
:101F40006C6420796F75206C696B6520746F004E2E
:101F50004F00594553007461726765745F74656D15
:101F600070657261747572655F6265640043616C6F
:101F70006962726174696F6E005072657061726936
:101F80006E6720666F720048656174696E672075C0
:101F9000702E2E2E0041424F5254004731205837A8
:101FA00035205930205A302E33204633303030001F
:101FB0002045300A0047393220452D32300A47315A
:101FC00020460047393220452D32300A473120461D
:101FD000002045300A0020452D32300A4731204686
:101FE0000020452D32300A47312046000A47312073
:101FF00046000A473120460047393220450047391C
:10200000322045004731204636303030205A3530B6
:102010000A473120583020592D3635205A353000A6
:10202000473238006164645F686F6D65696E675B35
:102030005A5F415849535D00776F726B7320776523
:102040006C6C2E00756E74696C20746865207072FB
:10205000696E7400746F206D6F76652074686520FA
:10206000686F74656E6400507265737320446F7797
:102070006E206F7220555000444F4E4500706C61C9
:10208000696E466163746F72206E65773A00706C9A
:1020900061696E466163746F72206F6C643A0066AA
:1020A000697474696E674265644172726179004750
:1020B00032380A4D3834006164645F686F6D656959
:1020C0006E675B5A5F415849535D006973206C65C8
:1020D00066742061726F756E642069742E0063618E
:1020E00073652074686174206D6174657269616CD8
:1020F000005072696E746865616420686561746916
:102100006E6720696E0043414E43454C00473239AB
:102110000A4D38340063616C6962726174696F6E74
:102120002070726F636573732E0067656E746C79CF
:1021300020746F20646F2074686500746F75636825
:1021400020746865206275696C64706C61746500E8
:10215000546865204E6F7A7A6C652077696C6C00E4
:1021600041424F5254003F3F3F004C6576656C2022
:1021700074686520506C6174666F726D2E004368E0
:10218000616E676520746865204D61746572696170
:102190006C2E003F3F3F008343616C696272617443
:1021A00065008252656C6F61640041425300504C7F
:1021B00041004D6174657269616C20536574746986
:1021C0006E67730053656C6563746564206D61743C
:1021D000657269616C3A004F4B0025004D61746572
:1021E0007269616C20666C6F7700250046616E2015
:1021F0007370656564006D6D004D61746572696131
:102200006C204469616D657465720081430054659A
:102210006D7065726174757265004D617465726987
:10222000616C2044657461696C7300250025006D44
:102230006D008143008143003F3F3F0053746F7244
:10224000652061732070726573657400466C6F77EA
:1022500020250046616E004469616D6574657200F9
:10226000486561746564206275696C64706C617442
:10227000650054656D7065726174757265005265B4
:102280007475726E004D6F6469667920746865209C
:1022900073657474696E67730025002046616E3A39
:1022A000008143008143002500466C6F773A006D42
:1022B0006D004C6F61642044656661756C74004309
:1022C0007573746F6D697A650052657475726E000E
:1022D0006D6174657269616C206368616E67696EB7
:1022E00067005072696E7468656164206865617426
:1022F000696E6720666F7200506C65617365207748
:102300006169742C0062652072656D6F7665642E5C
:1023100000546865206D6174657269616C2077692D
:102320006C6C0048656174696E672066696E6973DC
:102330006865642E00534B495000434F4E54494E3C
:10234000554500616E64207468656E207075736811
:1023500020627574746F6E2E0064726976656420F5
:10236000627920657874727564657200657874723C
:102370007564657220756E74696C20697420697368
:1023800000496E73657274206D6174657269616C69
:1023900020696E746F00524541445920202000523C
:1023A000454144592020200043414E43454C0052B2
:1023B0004541445920202000466F7277617264695C
:1023C0006E67206D6174657269616C0066726F6D15
:1023D000206E6F7A7A6C652E2E2E006D6174657298
:1023E00069616C2065786974730050757368206248
:1023F0007574746F6E207768656E0052454144595C
:102400002020200052454144592020200043414EC5
:1024100043454C005245414459202020004D415431
:10242000455249414C0025002046616E3A008143E7
:10243000008143002500466C6F773A006D6D0052B5
:102440006576657273696E67206D61746572696126
:102450006C005245414459202020005245414459C6
:102460002020200065787472756465722E006D619D
:1024700074657269616C2066726F6D00506C656185
:1024800073652072656D6F76650043414E43454C20
:1024900000524541445920202000534420434152DA
:1024A00044003B464C41564F523A556C7469474381
:1024B0006F6465003B464C41564F523A556C746907
:1024C00047436F6465004E6F2066696C65732066D4
:1024D0006F756E6421004F4B004F4B005265616475
:1024E000696E6720636172642E2E2E00506C6561E8
:1024F000736520696E736572742063617264004E47
:102500006F2053442D4341524421004E6F20696E89
:10251000666F20617661696C61626C65006D006D4B
:10252000004D6174657269616C3A200054696D6593
:102530003A20003B4D4154455249414C3A003B54EE
:10254000494D453A00466F6C646572004261636BA9
:102550000052657475726E00556C746947636F64E0
:10256000650047436F646520466C61766F723E3E3E
:1025700000437572613E3E4D616368696E6520730C
:10258000657474696E6700506C656173652055737E
:102590006520556C746947476F63646500434F4E0F
:1025A00054494E55450043414E43454C00556C74CB
:1025B0006947636F64650047436F646520466C61DB
:1025C000766F723E3E00437572613E3E4D616368B8
:1025D000696E652073657474696E6700506C65611F
:1025E00073652055736520556C746947476F636444
:1025F0006500434F4E54494E55450043414E4345B7
:102600004C004731204633303030205A300A4731B1
:102610002046343030205A3230004D3130370A4DA8
:10262000323230205334300A4D373830205332356F
:10263000350A4D3738312053313030000A473120C8
:1026400046000A4731204600205A00205A002059EF
:10265000002059000A4731204633303030205800DE
:102660000A47312046333030302058004739322075
:1026700045004739322045002045300A00473932AD
:1026800020452D32300A4731204600473932204557
:102690002D32300A47312046002045300A002045BF
:1026A0002D32300A473120460020452D32300A476E
:1026B000312046000A47312046000A4731204600B3
:1026C00047393220450047393220450047312046FE
:1026D00036303030205A35300A47312058302059B2
:1026E0002D3635205A3530000A47312058302059D0
:1026F0002D3635205A000A473120583020592D36C2
:1027000035205A004731204636303030205A0047B5
:1027100031204636303030205A00436F64653A002D
:1027200053442D63617264210072656164696E6750
:10273000004572726F72207768696C65005245546B
:1027400055524E20544F204D41494E008143202088
:1027500020005072696E74657220636F6F6C696ED1
:102760006720646F776E004241434B20544F204DE9
:10277000454E5500746865206D6F64656C2E005978
:102780006F752063616E2072656D6F7665005072A3
:10279000696E742066696E697368656400424143BE
:1027A0004B20544F204D454E55004D373734205364
:1027B000256C640D0A004D3737332053256C640DAA
:1027C0000A004D373732205025690D0A002D2D3A69
:1027D0002D2D3A2D2D008143008143004865617401
:1027E000696E6700746F20636F6E74696E75650043
:1027F000507265737320627574746F6E00507269E5
:102800006E74696E673A0050415553450054554EF9
:10281000450050617573696E672E2E2E00576169F1
:1028200074696E6700506175736520746865207007
:1028300072696E743F004E4F005945530025004D9C
:102840006174657269616C20666C6F770025004663
:10285000616E2073706565640025005072696E7446
:102860002073706565640054554E45006D6D0072AF
:102870006574726163745F7A6C696674006D6D2F44
:10288000736563005265747261637420737065656B
:1028900064006D6D0052657472616374206C656EC6
:1028A0006774680052455452414354494F4E006D7D
:1028B0006D006D6D2F736563006D6D003F3F3F00D0
:1028C00052657472616374205A6C69667400526553
:1028D000747261637420737065656400526574720C
:1028E000616374206C656E677468005265747572FC
:1028F0006E0081430081432F00436C69636B207439
:102900006F2072657475726E004E6F7A7A6C6520F6
:1029100074656D70657261747572653A0025002585
:102920000081430081430025005265747261637425
:10293000696F6E004D6174657269616C20666C6FC1
:10294000770046616E207370656564004275696C3E
:1029500064706C6174652074656D702E0054656DD3
:1029600070657261747572650053706565640052BC
:10297000657475726E00507265706172696E672061
:10298000746F207072696E743A0048656174696E84
:10299000672075702E2E2E0041424F525400473250
:1029A0003800505245504152455F5052494E5449AB
:1029B0004E475F53544F52455F46494E4953480076
:1029C000505245504152455F5052494E54494E472E
:1029D0005F53544F52455F4C43445F434143484526
:1029E00000505245504152455F5052494E54494E55
:1029F000475F53544F52455F53445F434C415353D9
:102A00005F56414C49444154450050524550415253
:102A1000455F5052494E54494E475F53544F5245BB
:102A20005F53445F434C4153530050524550415211
:102A3000455F5052494E54494E475F434C454152C1
:102A40005F53445550535F504F534954494F4E5F65
:102A500056414C494441544500505245504152451D
:102A60005F5052494E54494E475F434C4541525F77
:102A700053445550535F504F534954494F4E0050A3
:102A80005245504152455F5052494E54494E475F5E
:102A9000494E4954005072657061726520507269E8
:102AA0006E74696E673A0057414954494E47007049
:102AB00072696E743F0077616E7420746F20726566
:102AC00073756D650066696E69736865642E204470
:102AD0006F20796F75004C617374207072696E7429
:102AE000206973206E6F74004E4F00594553005299
:102AF000656164696E6720636172642E2E2E0050DA
:102B00006C6561736520696E7365727420636172B0
:102B100064004E6F2053442D4341524421006865A8
:102B2000696768742E006F72206D616E75616C6CE0
:102B300079207365742074686500436F6E74696EE4
:102B4000756520746F20726573756D65004D414E1B
:102B500055414C00434F4E54494E55450043757204
:102B600072656E74205A3A0043757272656E7420F5
:102B70005A3A00507265737320446F776E206F72FB
:102B8000205550004C617374205072696E746564F6
:102B9000205A3A004C617374205072696E746564F7
:102BA000205A3A00434F4E54494E554500434F4E2C
:102BB00054494E554500473238006D616E75616C61
:102BC0005F7365617263685F73645F636172640001
:102BD0003B4C415945523A004C617965723A003B91
:102BE0004C415945523A003B4C415945523A0053E9
:102BF0006561726368696E67205344206361726423
:102C00002E2E2E0041424F52540072656C65617346
:102C10006520437573746F6D00666F756E64204335
:102C20007573746F6D003B545950453A4355535476
:102C30004F4D003B545950453A435553544F4D0066
:102C40003B545950453A003B545950453A00666F41
:102C5000756E64206600666F756E64206500666F31
:102C6000756E64207A00666F756E64207900666FF9
:102C7000756E642078007364206572726F72005301
:102C8000442073656172636820746F6F206C6F6E8F
:102C9000670053442072656164206572726F720030
:102CA000454550524F4D2066696C6520706F7369C1
:102CB00074696F6E0053445550532056616C6964BB
:102CC0006174652077726F6E67005344555053539B
:102CD000746174652077726F6E67004D32352066BF
:102CE0006F756E64005A20646F65736E2774206D73
:102CF000617463680043414E43454C004D323500DA
:102D000053445550534C6173745A005344555053B7
:102D100043757272656E74506F736974696F6E007B
:102D20003B4C415945523A004C617965723A003B3F
:102D30004C415945523A007364206572726F7200BB
:102D4000536561726368696E6720534420636172E2
:102D5000642E2E2E0041424F5254003B4C415945A7
:102D6000523A004C617965723A0052657472697624
:102D700065496E6465783A003B4C415945523A00CA
:102D80003B4C415945523A00205A00205A002059E4
:102D9000002059000A47312058000A4731205800C6
:102DA0004731205A004731205A004732380A47310C
:102DB000310A4731204636303030205A3230300028
:102DC00072656C6561736520437573746F6D006621
:102DD0006F756E6420437573746F6D003B5459506A
:102DE000453A435553544F4D003B545950453A438F
:102DF0005553544F4D003B545950453A003B54599C
:102E000050453A00666F756E64206600666F756E99
:102E100064206500666F756E64207900666F756E5C
:102E2000642078007364206572726F7200473238D4
:102E30000A4D383400473932204525690A47312088
:102E4000462569204530004D383420582059205AF5
:102E50002045006563686F3A0043616E6E6F7420B1
:102E6000656E746572207375626469723A20004DF4
:102E70003234004D3233202573006175746F25693B
:102E80002E67004572726F723A006572726F72201F
:102E900077726974696E6720746F2066696C65006B
:102EA00043617264206572726F723A004E6F7420D3
:102EB0005344207072696E74696E67002F0053442A
:102EC000207072696E74696E672062797465200083
:102ED0002E0044656C6574696F6E206661696C656F
:102EE000642C2046696C653A200046696C65206454
:102EF000656C657465643A002E006F70656E2066BF
:102F000061696C65642C2046696C653A20005772D3
:102F10006974696E6720746F2066696C653A200079
:102F20002E006F70656E206661696C65642C2046AA
:102F3000696C653A20002E006F70656E20666169CD
:102F40006C65642C2046696C653A200046696C65A6
:102F50002073656C6563746564002053697A653A13
:102F6000200046696C65206F70656E65643A2000CC
:102F70002E006F70656E206661696C65642C20465A
:102F8000696C653A200053442063617264206F6B62
:102F9000006F70656E526F6F74206661696C656456
:102FA00000766F6C756D652E696E69742066616957
:102FB0006C656400534420696E6974206661696CB5
:102FC00000544553540D0A000D0A00556E6B6E6F88
:102FD000776E20636F6D6D616E643A20000D0A009C
:102FE0003F0056657273696F6E20322E312E354D5B
:102FF000202D6265746120320073696E67756C61A3
:1030000072206D6174726978006563686F3A0020A0
:10301000746F6F206C6F6E6720657874727573695A
:103020006F6E2070726576656E7465640020636FE4
:103030006C6420657874727573696F6E2070726548
:1030400076656E7465640020746F6F206C6F6E67B8
:1030500020657874727573696F6E2070726576651D
:103060006E7465640020636F6C642065787472759B
:1030700073696F6E2070726576656E746564004565
:10308000313A200045303A20005A3A2000593A207F
:1030900000583A20004D53312C4D53322050696E68
:1030A000730A0024F404D9201BC40C5C0E9804C4D9
:1030B000095F0265077101F405F900FB04B30048DC
:1030C000048700C10369005803550003034500BE8F
:1030D000023A008402310053022A0029022500042A
:1030E000022000E4011C00C8011900AF011700987C
:1030F00001140084011300710110006101100051DE
:10310000010E0043010D0036010B002B010B0020C6
:10311000010B00150109000C01090003010800FB67
:10312000000800F3000800EB000700E4000600DEE2
:10313000000600D8000600D2000600CC000500C73B
:10314000000500C2000500BD000400B9000400B580
:10315000000400B1000400AD000400A9000400A5B3
:10316000000300A20003009F0004009B00030098DE
:103170000003009500020093000300900003008DFF
:103180000002008B00030088000200860002008419
:10319000000300810002007F0002007D0002007B2E
:1031A000000200790002007700010076000200743E
:1031B00000020072000100710002006F0002006D49
:1031C0000001006C0002006A000100690002006753
:1031D0000001006600010065000100640002006259
:1031E00000010061000100600001005F0002005D5D
:1031F0000001005C0001005B0001005A0001005961
:103200000001005800010057000100560001005560
:10321000000100540001005300000053000100525F
:1032200000010051000100500001004F0001004E5C
:103230000000004E0001004D0001004C0001004B59
:103240000000004B0001004A000100490001004855
:103250000000004800010047000100460000004651
:10326000000100450000004500010044000100434A
:103270000000004300010042000000420001004144
:1032800000000041000100400001003F0000003F3D
:103290000001003E0000003E0001003D0000003D36
:1032A0000001003C0000003C0000003C0001003B2D
:1032B0000000003B0001003A0000003A0001003924
:1032C000000000390001003800000038000000381C
:1032D0000001003700000037000100360000003612
:1032E0000000003600010035000000350000003508
:1032F00000010034000000340000003400010033FD
:1033000000000033000000330001003200000032F2
:1033100000000032000100310000003100000031E7
:103320000001003000000030000000300001002FDC
:103330000000002F0000002F0000002F0001002ED1
:103340000000002E0000002E0001002D0000002DC6
:103350000000002D0000002D0001002C0000002CBA
:103360000000002C0000002C0001002B0000002BAE
:103370000000002B0000002B0001002A0000002AA2
:103380000000002A0000002A000100290000002996
:103390000000002900000029000000290001002889
:1033A000000000280000002800000028000000287D
:1033B0000001002700000027000000270000002770
:1033C0000000002700010026000000260000002663
:1033D0000000002600000026000100250000002556
:1033E0000000002500000025000000250000002549
:1033F000000100240000002400000024000000243C
:10340000000000240001002300000023000000232E
:103410000000002300000023000000230000002320
:103420000001002200000022000000220000002213
:103430000000002200000022000100210000002105
:1034400000000021000000210000002100000021F8
:1034500000000021000100200000002000000020EA
:1034600000000020000000200000002000000020DC
:10347000000000200001001F0000001F0000001FCE
:103480000000001F0000001F0000001F0000001FC0
:103490000001001E0000001E0000001E0000001EB3
:1034A00000000024F4D43050C38E20C2A240178202
:1034B0008B7011127A910D816CD90AA861E108C74D
:1034C000586607615143061E4B5D05C145A7041AA6
:1034D000411104093D9803713931034036DB02651F
:1034E000339102D4305402802E1D02632CEE0175FC
:1034F0002AC501B028A001102781018F2564012B66
:10350000244B01E0223401AC211F018D200D0180EC
:103510001FFC00841EED00971DDF00B81CD200E6E2
:103520001BC600201BBC00641AB200B219A8000A16
:1035300019A0006A189900D117910040178B00B5A7
:1035400016840031167E00B31579003A157300C752
:10355000146F0058146A00EE136600881363002588
:10356000135E00C7125B006C12570015125400C1A5
:1035700011510070114F0021114B00D61049008DE0
:103580001047004610440002104200C00F40008067
:103590000F3E00420F3C00060F3B00CB0E3800935D
:1035A0000E37005C0E3500270E3400F30D3200C1DB
:1035B0000D3100900D3000600D2E00320D2D0005F4
:1035C0000D2C00D90C2B00AE0C2900850C29005CB9
:1035D0000C2700350C27000E0C2600E80B2400C435
:1035E0000B2400A00B23007D0B23005A0B21003974
:1035F0000B2100180B2000F80A1F00D90A1E00BB7F
:103600000A1E009D0A1D00800A1D00630A1C004757
:103610000A1B002C0A1B00110A1A00F7091A00DD08
:10362000091900C4091900AB091900920917007B98
:10363000091800630917004C091600360916002006
:103640000916000A091500F5081500E0081400CC59
:10365000081400B8081400A4081400900813007D92
:103660000812006B081300580812004608120034B4
:10367000081100230811001208110001081100F0C0
:10368000071000E0071000D0071000C0071000B0BE
:10369000070F00A107100091070E0083070F0074A9
:1036A000070F0065070E0057070E0049070E003B85
:1036B000070D002E070E0020070D0013070D000652
:1036C000070D00F9060C00ED060D00E0060C00D415
:1036D000060C00C8060C00BC060C00B0060C00A4CA
:1036E000060B0099060C008D060B0082060B007776
:1036F000060B006C060B0061060A0057060B004C17
:10370000060A0042060A0038060A002E060A0024AD
:10371000060A001A060A001006090007060A00FD3C
:10372000050900F4050900EB050900E2050900D9C7
:10373000050900D0050900C7050900BE050900B547
:10374000050800AD050800A50509009C05080094C2
:103750000508008C050800840508007C0508007435
:103760000508006C050700650508005D05070056A3
:103770000508004E0507004705070040050800380A
:10378000050700310507002A050700230507001C6F
:10379000050600160507000F0507000805060002CC
:1037A000050700FB040600F5040700EE040600E828
:1037B000040600E2040700DB040600D5040600CF7F
:1037C000040600C9040600C3040600BD040600B7D1
:1037D000040600B1040500AC040600A6040600A01F
:1037E0000405009B04060095040500900406008A69
:1037F00004050085040500800406007A04050075B0
:10380000040500700405006B0405006604050061F2
:103810000405005C04050057040500520405004D32
:1038200004050048040500430405003E0404003A72
:1038300004050035040500300404002C04050027AD
:10384000040400230405001E0404001A04040016E6
:10385000040500110404000D04040009040500041B
:1038600004040000040400FC030400F8030400F452
:10387000030400F0030400EC030400E8030400E484
:10388000030400E0030400DC030400D8030400D4B4
:10389000030400D0030400CC030400C8030300C5E4
:1038A0000303006563686F3A00205A3A0020593AD2
:1038B0000020583A00656E6473746F7073206869F5
:1038C000743A20004572726F723A0054656D7065EB
:1038D00072617475726520686561746564206265E3
:1038E00064207377697463686564206F66662E2050
:1038F0004D415854454D5020747269676765726533
:1039000064202121003A2045787472756465722024
:103910007377697463686564206F66662E204D490D
:103920004E54454D50207472696767657265642016
:1039300021003A2045787472756465722073776946
:103940007463686564206F66662E204D4158544547
:103950004D5020747269676765726564202100208C
:103960002D20496E76616C69642065787472756487
:103970006572206E756D62657220210045787472E3
:1039800075646572207377697463686564206F6617
:10399000662E2054656D7065726174757265206461
:1039A0006966666572656E636520626574776565D4
:1039B0006E2074656D702073656E736F727320690D
:1039C0007320746F6F20686967682021004D373756
:1039D00037205025690D0A004D37373620502569AC
:1039E0000D0A004D373735205025690D0A004D3737
:1039F0003730205325690D0A005049442041757421
:103A00006F74756E652066696E69736865642120E0
:103A100050757420746865204B702C204B692061B0
:103A20006E64204B6420636F6E7374616E747320D8
:103A3000696E746F20436F6E666967757261746931
:103A40006F6E2E6800504944204175746F74756E16
:103A500065206661696C6564212074696D656F75A8
:103A6000740020403A006F6B20543A006F6B204284
:103A70003A00504944204175746F74756E65206634
:103A800061696C6564212054656D7065726174753F
:103A9000726520746F6F206869676800204B643A14
:103AA0002000204B693A2000204B703A2000204330
:103AB0006C617369632050494420002054753A209A
:103AC00000204B753A2000206D61783A2000206D6F
:103AD000696E3A200020643A200020626961733ADE
:103AE0002000000000006700010054010700DD0114
:103AF0000F0094021500C1031C00EC042400FC0814
:103B00003E0020116E00A312780015148200951556
:103B10008C00E91696007518A000E519AA00661B2E
:103B2000B400C11CBE00311EC800921FD200032188
:103B3000DC004122E600C723F0003D48F40102000A
:103B4000002100240027002A002D0030003300014E
:103B5000010000040107010A0100002200250028DD
:103B6000002B002E00310034000201000005010886
:103B7000010B01000020002300260029002C002F4B
:103B800000320000010000030106010901050505DE
:103B900005070508080808020202020A0A080804C4
:103BA00004040401010101010101010303030303F2
:103BB000030303040707070C0C0C0C0C0C0C0C0281
:103BC00002020206060606060606060B0B0B0B0B88
:103BD0000B0B0B0102102020080810204010204081
:103BE00080020102010804020101020408102040C1
:103BF00080804020100804020180040201804020DF
:103C00001008040201080402010102040810204007
:103C10008001020408102040800000090A02080BFD
:103C20000C0D070603040100000000000000000066
:103C30000000000000000000000000000000000084
:103C4000000000000011100F000000000000000044
:103C5000000000000000000000000000000000491B
:103C60004E46494E4954594E414ECDCCCC3D0AD7D3
:103C7000233C17B7D13877CC2B329595E6241FB16A
:103C80004F0A000020410000C84200401C4620BCF2
:103C9000BE4CCA1B0E5AAEC59D7400407A10F35A32
:103CA00000A0724E18090010A5D4E80000E876487C
:103CB000170000E40B54020000CA9A3B000000E128
:103CC000F505000080969800000040420F000000BB
:103CD000A08601000000102700000000E80300009B
:103CE00000006400000000000A0000000000010065
:103CF000000000002C76D888DC674F0823DFC1DF86
:103D0000AE59E1B1B796E5E3E453C63AE651997688
:103D100096E8E6C28426EB898C9B62ED407C6FFCC2
:103D2000EFBC9C9F40F2BAA56FA5F490055A2AF704
:103D30005C936B6CF9676DC11BFCE0E40D47FEF50D
:103D400020E6B500D0ED902E030094357705008075
:103D5000841E080000204E0A000000C80C333333D4
:103D6000330F986E12831141EF8D2114893BE65574
:103D700016CFFEE6DB18D1844B381BF77C1D901D57
:103D8000A4BBE424203284725E228100C9F124ECB9
:103D9000A1E53D270D9478360D9417370D94200436
:103DA0000D9413370D948D020D940D140D9422175C
:103DB0000D9427040D9454030D94D6360D947D086C
:103DC0000D94DE360D948E160D945D130D946706DA
:103DD0000D9482040D9442090D94470C0D941B37E9
:103DE0000D94F4360D943D120D94C6360D94113792
:103DF0000D9495120D94810F0D9496360D945F04D9
:103E00000D9415370D94340A0D94021C0D94BE3692
:103E10000D9401370D946D050D9419370D942E29CD
:103E20000D94D30A0D9443230D94E9360D949E36D8
:103E30000D940F370D945A110D94591C0D94E511E2
:103E40000D9486360D940D370D94B3090D945420BE
:103E50000D94A3360D94D70A0D94330B0D940B28B3
:103E60000D94161E0D942B260D94DB010D94401617
:103E70000D940B370D9405370D94E31C0D94DE0F54
:103E80000D944E0F0D94B10A0D9475360D948A362B
:103E90000D9443010D94062A0D94AD0A0D941D371F
:103EA0000D94290F0D9437180D9403370D94A836EF
:103EB0000D9425130D94AE360D94B6360D94990AD3
:103EC0000D9407370D94D07F0D941F370D94430B3D
:103ED0000D942E050D94DD290D949A360D94CE3651
:103EE0000D9484070D9409370D94391B0D94923667
:103EF0000D9437260D948E3671343C3837381124A2
:103F00001FBECFEFD1E2DEBFCDBF00E00CBF14E09B
:103F1000A0E0B2E0EEEFFAE103E00BBF02C00790D1
:103F20000D92AC3AB107D9F71BBE1AE1ACEAB4E086
:103F300001C01D92A93FB107E1F71EE3CCEFDEE31C
:103F400004C02297FE010F94258DC83FD107C9F701
:103F50000F9442410D94738D0C940000EF92FF92E8
:103F60000F931F93F22FF02E47FD02C0E4E001C033
:103F7000E4E1242F332727FD309537FF03C0309528
:103F800021953F4F4F2D512F0F2FEE2E00D68F2D05
:103F9000912F1F910F91FF90EF900895A0E0B0E056
:103FA000E4EDFFE10D94428DEC015B0161157105BB
:103FB00019F0FB0191838083F9908F2D90E00F948D
:103FC000298D892BC9F7FDE2FF1621F4F990EE2423
:103FD000E39405C02BE2F21609F4F990EE248E0169
:103FE00001501040C8016FE57CE343E050E0C9D2C6
:103FF000892BF9F48E010E5F1F4FC80162E67CE346
:1040000045E050E0BED2892B19F48E01095F1F4FA5
:10401000A114B10419F0F50111830083E0FC04C080
:1040200070E090E080E813C070E090E080E86FEF0F
:1040300007C1C80167E67CE343E050E0A2D2892BC8
:1040400069F4A114B10429F470E090E080EC6FE70A
:10405000F7C02296F501D183C083F6CF8824992436
:1040600040E050E060E070E0EF2DE053EA30A0F572
:10407000F2E0EF2A8E2D90E09C0128703070E2FE75
:1040800006C0232B79F50894811C911C2BC0232B8F
:1040900019F0089481089108DB01CA0112E0880F29
:1040A000991FAA1FBB1F1A95D1F7480F591F6A1FE6
:1040B0007B1F440F551F661F771F4E0F511D611D3B
:1040C000711D483929E9520729E9620729E1720778
:1040D00048F084E0E82A06C0EE3F31F4E3FC39C042
:1040E00098E0E92AF990C0CFE53311F0E53189F580
:1040F00029912D3219F4E0E1EE2A05C02B3219F096
:1041000081E090E003C0299182E090E0E22FE0534B
:10411000EA3018F0C81BD90B1CC020E030E0FCE0EE
:1041200020383F075CF4C901880F991F880F991F39
:10413000280F391F220F331F2E0F311DE991E05335
:10414000EA3068F3E4FE03C0309521953F4F820EBC
:10415000931ECE2CDD24E1FE07C0A114B10421F092
:104160002197F501D183C083CB01BA010F947E89D9
:104170007B018C01F3E0CF22DD2423E0C216D104C1
:1041800021F417FB109517F9109557016801C80124
:10419000B70120E030E040E050E00F94DE88882353
:1041A00009F44AC097FE0DC02EE7E22E2CE3F22E52
:1041B0009094819491089394C0E2D0E000E010E0E4
:1041C00012C096E9E92E9CE3F92EF6CFF70125916E
:1041D000359145915491C601B5010F94BE8B5B0199
:1041E0006C018C1A9D0A8C169D0684F7D595C7958F
:1041F0000F5F1F4F0630110529F08CEF9FEFE80E7F
:10420000F91EF1CFC501D6017C018D018C2D880FDF
:104210008D2D881F8F3F51F0C601B50120E030E0A1
:1042200040E050E00F94DE88882331F482E290E091
:104230009093F81A8093F71A7E2D9F2D802F612F6F
:10424000272F392F482F562FB901CA01CDB7DEB716
:10425000ECE00D945E8D2F923F925F926F927F9271
:104260008F929F92AF92BF92CF92DF92EF92FF9286
:104270000F931F93CF93DF938C011B01EA0161150C
:10428000710519F0FB0191838083209749F0CE01DD
:104290000297839728F020E030E040E050E0F6C03D
:1042A000F801A1908F018A2D90E00F94298D892B20
:1042B000B9F7FDE2AF1631F4F801A1908F01552452
:1042C000539407C0FBE2AF1619F4F801A1908F01D7
:1042D0005524209719F0C031D105C1F4F0E3AF1691
:1042E00079F4F8018081883711F0883549F4F801B4
:1042F000A1800E5F1F4FF2E05F2AC0E1D0E006C050
:10430000209721F480E3A816E9F427C0C830D1052E
:1043100031F1C930D10524F4C230D10531F50CC0DA
:10432000CA30D10589F0C031D105F9F4C12CD12CA6
:10433000E12CB8E0FB2E28C0C12CD12CE12CA0E44C
:10434000FA2E22C0CAE0D0E0FCECCF2EFCECDF2E2F
:10435000FCECEF2EFCE0FF2E17C0C8E0D0E0C12C33
:10436000D12CE12CE0E1FE2E0FC09E01442737FD49
:104370004095542F60E070E080E090E80F94D28C7C
:10438000C901DA016C017D0120E030E040E050E03D
:1043900060E03E01882477FC8094982C70EDB72E65
:1043A000BA0CE9E0EB1570F48A2D81548A3118F4C7
:1043B00099ECB92E06C08A2D81568A3150F589EACA
:1043C000B82EBA0C8B2D90E08C179D0714F56F3F1B
:1043D000E1F0C216D306E406F506B0F0CA01B90151
:1043E000A40193010F94948C9B01AC012B0D311D02
:1043F000411D511D2130F0E03F07F0E04F07F0E88C
:104400005F0710F461E001C06FEFF801A1908F0128
:10441000C5CF2114310481F0662331F001501040E2
:10442000F1011183008308C051FE1AC002501040F0
:10443000F1011183008314C067FF12C050FC05C056
:104440002FEF3FEF4FEF5FE704C020E030E040E0A8
:1044500050E882E290E09093F81A8093F71A16C021
:1044600050FE08C050954095309521953F4F4F4FD5
:104470005F4F0CC057FF0AC082E290E09093F81A99
:104480008093F71A2FEF3FEF4FEF5FE7B901CA01B3
:10449000DF91CF911F910F91FF90EF90DF90CF9020
:1044A000BF90AF909F908F907F906F905F903F9064
:1044B0002F900895FC0188279927E89421912032B4
:1044C000E9F3293010F02E30C8F32B3239F02D32B9
:1044D00031F4689403C060D1820F911D2191205363
:1044E0002A30C8F31EF4909581959F4F08951F932D
:1044F000FC0199278827BC01E89411911032E9F357
:10450000193010F01E30C8F31B3249F01D3241F44F
:10451000689405C02CD1610F711D811D911D1191F1
:1045200010531A30B8F33EF49095809570956195CC
:104530007F4F8F4F9F4F1F910895FC0105900616E6
:1045400021F00020D9F7C00108953197CF010895D7
:10455000FB01DC018D91059080190110D9F3990BB5
:104560000895FB01DC0105900D920020E1F708950C
:10457000FC0105900020E9F7809590958E0F9F1F14
:104580000895FB01DC014150504088F08D91813449
:104590001CF08B350CF4805E659161341CF06B353A
:1045A0000CF4605E861B611171F3990B0895881BF2
:1045B000FCCFFB01DC014150504030F08D91059063
:1045C000801919F40020B9F7881B990B0895FB0195
:1045D000DC014150504048F005900D920020C9F791
:1045E00001C01D9241505040E0F70895FB015591E4
:1045F0005523A9F0BF01DC014D9145174111E1F7A9
:1046000059F4CD010590002049F04D91401541111C
:10461000C9F3FB014111EFCF81E090E001970895CC
:10462000FB01DC012150304030F001900D92041666
:10463000C9F7CD010895882799270895FB01DC016A
:1046400004C08D910190801921F441505040C8F769
:10465000881B990B0895FB01DC0102C001900D92AB
:1046600041505040D8F70895FB01DC010D90002027
:10467000E9F7119701900D920020E1F70895FC01F0
:104680008191861721F08823D9F7992708953197CA
:10469000CF010895FB01DC0101900D920020E1F7AC
:1046A0000895FB01DC014150504030F08D910190A4
:1046B000801919F40020B9F7881B990B0895FB01A4
:1046C000DC014150504048F001900D920020C9F7A4
:1046D00001C01D9241505040E0F70895FC01615027
:1046E000704001900110D8F7809590958E0F9F1F14
:1046F0000895FC0181E090E00190061609F4CF01D5
:104700000020D1F701970895FA01CF93FF93EF931B
:10471000223044F1253234F5C22FE894CA3049F4EE
:1047200097FB3EF490958095709561957F4F8F4FE4
:104730009F4F2C2F332744275527FF93EF930F9438
:10474000D28CEF91FF91605D6A330CF0695D6193EB
:10475000B901CA01605070408040904051F716F492
:10476000CDE2C19310828F919F91CF9154C4592F64
:10477000482F372F262F660F771F881F991F660F28
:10478000771F881F991F620F731F841F951F660F65
:10479000771F881F991F08957AE0979F902D879F14
:1047A000802D910D11240895AEE0B0E0EAEDF3E222
:1047B0000D944A8D0E891F898EE08C831A8309839C
:1047C0008FEF9FE79E838D839E01265E3F4FCE0134
:1047D0000196688D798DA9010AD02F813885020F45
:1047E000131FF80110822E96E4E00D94668DABE065
:1047F000B0E0EDEFF3E20D943C8D3C012B015A014A
:10480000FC0117821682838181FD03C06FEF7FEF69
:10481000B9C19AE0892E1E010894211C311CF301B4
:104820002381F20123FD859123FF81912F018823AC
:1048300009F4A5C1853239F423FD859123FF8191C7
:104840002F01853221F490E0B301F5D3E8CF982F02
:10485000FF24EE249924FFE1FF15D0F09B3269F08C
:104860009C3228F4903259F0933291F40EC09D326C
:1048700049F0903369F441E024C052E0F52A84E025
:10488000F82A28C098E0F92A25C0E0E1FE2A22C0D3
:10489000F7FC29C0892F80538A3070F4F6FE05C0DA
:1048A000989C902C1124980E15C0E89CE02C1124A3
:1048B000E80EF0E2FF2A0EC09E3229F4F6FC5FC13A
:1048C00040E4F42A07C09C3619F450E8F52A02C0E7
:1048D000983649F4F20123FD959123FF91912F0120
:1048E000992309F0B8CF892F8554833018F080526E
:1048F000833038F444E050E0A40EB51E5FE35983E2
:104900000FC0933631F0933779F0933509F052C0E8
:104910001FC0F5018081898342E050E0A40EB51EDE
:10492000610101E010E011C0F501C080D180F6FC0A
:1049300003C06FEF7FEF02C0692D70E042E050E0EE
:10494000A40EB51EC601CADE8C015FE7F52213C0B6
:10495000F501C080D180F6FC03C06FEF7FEF02C08D
:10496000692D70E042E050E0A40EB51EC60148D3A8
:104970008C0150E8F52AF3FE06C018C080E290E0F2
:10498000B30159D3EA948E2D90E008171907B0F3BC
:104990000DC0F601F7FC8591F7FE81916F0190E063
:1049A000B30149D3E110EA940150104001151105FB
:1049B00081F7E2C0943611F0993661F5F7FE08C030
:1049C000F501208131814281538184E090E00AC069
:1049D000F501808191819C01442737FD4095542F3A
:1049E00082E090E0A80EB91E9FE6F92257FF09C0A9
:1049F00050954095309521953F4F4F4F5F4FE0E8E0
:104A0000FE2ACA01B901A1012AE030E040D3D82E24
:104A1000D2183FC0953729F41F2D1F7E2AE030E0C1
:104A20001DC01F2D197F9F3661F0903720F49835F7
:104A300009F0A5C00FC0903739F0983709F09FC032
:104A400004C028E030E00AC0106114FD146020E1C9
:104A500030E004C014FD166020E132E017FF08C00A
:104A6000F501608171818281938144E050E008C04A
:104A7000F50180819181BC0180E090E042E050E04E
:104A8000A40EB51EA10103D3D82ED2188FE7F82E9D
:104A9000F122F6FE0BC05EEFF522D91438F4F4FED5
:104AA00007C0F2FC05C08FEEF82202C01D2D01C028
:104AB000192DF4FE0DC0FE01ED0DF11D8081803336
:104AC00019F499EEF92208C01F5FF2FE05C003C079
:104AD0008F2D867809F01F5F0F2DF3FC13C0F0FEB9
:104AE0000EC01E1510F09D2C0AC09D2C9E0C911A14
:104AF0001E2D05C080E290E0B3019DD21F5F1E1500
:104B0000C8F304C01E1510F4E11A01C0EE2404FF1E
:104B10000EC080E390E0B3018ED202FF1BC001FD06
:104B200003C088E790E00EC088E590E00BC0802FBE
:104B3000867881F001FF02C08BE201C080E2F7FCC1
:104B40008DE290E0B30177D205C080E390E0B3013D
:104B500072D29A94D914C8F3DA94F101ED0DF11DD3
:104B6000808190E0B30167D2DD20B1F705C080E21B
:104B700090E0B30160D2EA94EE20C9F750CEF30181
:104B800066817781CB012B96E2E10D94588DA9E0E7
:104B9000B0E0EDECF5E20D94408D6A01122FA02EED
:104BA000BE2C2BE3201718F42CE3922E02C0902E7B
:104BB0009394AE014F5F5F4F27E0092D49D1BC01AF
:104BC0008981E82EFF24C70189709070019711F444
:104BD000ADE209C0B1FE02C0ABE205C0B0FC02C04C
:104BE000A0E001C0A0E2E3FE3BC0AA2311F423E051
:104BF00001C024E0211710F020E002C0121B212F79
:104C0000EB2CB4FE02C0322F0AC0F601322F80E234
:104C100002C0819331503323E1F7C20ED11CAA2385
:104C200019F0F601A1936F01F6013196E2FE05C07D
:104C30009EE4D6019C9381E404C09EE6D6019C9339
:104C400081E611968C9391833296DF01832F90E257
:104C500002C09D9381508823E1F7E30FF11D40C00E
:104C6000E2FE42C0AA2311F423E001C024E0211790
:104C700010F020E002C0121B212FEB2CB4FE02C06A
:104C8000922F0AC0F601922F80E202C081939150C8
:104C90009923E1F7C20ED11CAA2319F0F601A193C2
:104CA0006F01F6013196E2FE08C089E4D6018C93CB
:104CB0008EE411968C9386E407C089E6D6018C9326
:104CC0008EE611968C9386E681833296DF01892FDA
:104CD00020E202C02D9381508823E1F7E90FF11DF6
:104CE00010822EEF3FEFAFC0161617061CF041E002
:104CF00050E003C0AB014F5F5F4FAA2019F480E082
:104D000090E003C08A2D90E0019620E030E0AA23D5
:104D100011F021E030E0240F351F280F391F812FBB
:104D200090E02817390714F020E002C0121B212F51
:104D30004B2D50E0CA0180719070B4FC0DC0B3FCE3
:104D40000BC0F601322F40E202C0419331503323B1
:104D5000E1F7C20ED11C01C0322FAA2319F0F601CF
:104D6000A1936F01892B11F0132F0AC0F601132FA5
:104D700080E302C0819311501123E1F7C30ED11CCF
:104D8000092D060FBA8090E1892E912C8E209F204C
:104D9000E4FE04C0F1E3BF1609F40150101614F04C
:104DA00001E003C0093008F008E09B0177FF02C072
:104DB00020E030E0CB010196821B930BFE0131967F
:104DC000E80FF91F8EE2F82E3B01601A71088A2D58
:104DD00090E044275527481B590B8FEF2F3F38078A
:104DE00019F4D601FD926D01621773072CF062165B
:104DF000730614F4808101C080E321503040319665
:104E00002417350724F0D6018D936D01E6CF2617C0
:104E1000370749F4B5E3BB1528F0BB1621F481141C
:104E2000910409F481E3F6018193D601812F90E288
:104E300002C09C93815011968823D9F7E10FF11D90
:104E4000108220E030E0C9012996EEE00D945C8DDF
:104E5000283008F027E03327DA01990F311D87FD4C
:104E6000916000966105710539F432602E5F3D93C3
:104E700030E32A95E1F708959F3F30F080387105BF
:104E8000610509F03C5F3C5F3D93913008F080681C
:104E9000911DDF93CF931F930F93FF92EF92192FE2
:104EA000987F9695E92F96959695E90FFF27EC50F8
:104EB000F34C99273327EE24FF24A701E70105903F
:104EC0000894079428F4360FE71EF81E491F511D59
:104ED000660F771F881F991F0694A1F70590079406
:104EE00028F4E70EF81E491F561FC11D770F881FB3
:104EF000991F661F0694A1F70590079428F4F80EF1
:104F0000491F561FC71FD11D880F991F661F771F86
:104F10000694A1F70590079420F4490F561FC71F68
:104F2000D81F990F661F771F881F0694A9F78491D1
:104F30001095177041F0D695C79557954795F794FA
:104F4000E7941A95C1F7EAE9FCE368941590159186
:104F500035916591959105907FE27395E118F10A7D
:104F6000430B560BC90BD009C0F7E10CF11E431FD0
:104F7000561FC91FD01D7EF4703311F48A95E6CFF9
:104F8000E894015030F0080F0AF40027021708F4E3
:104F9000202F2395022F7A3328F079E37D932A95E9
:104FA000E9F710C07D932A9589F606949795679541
:104FB000379517951794E118F10A430B560BC90B57
:104FC000D00998F023957E9173957A3308F070E3B9
:104FD0007C932013B8F77E9170617D9330F08395B8
:104FE00071E37D9370E32A95E1F71124EF90FF9030
:104FF0000F911F91CF91DF91992787FD909508958B
:10500000FC010590615070400110D8F78095909593
:105010008E0F9F1F0895DC01FC01672F719177238C
:10502000E1F7329704C07C916D9370836291AE1763
:10503000BF07C8F308950F931F93CF93DF938C019D
:10504000EB018B8181FF1BC082FF0DC02E813F8150
:105050008C819D812817390764F4E881F9810193D7
:10506000F983E88306C0E885F985802F1995892B97
:1050700031F48E819F8101969F838E8302C00FEF52
:105080001FEFC801DF91CF911F910F910895FA0191
:10509000AA27283051F1203181F1E8946F936E7F77
:1050A0006E5F7F4F8F4F9F4FAF4FB1E03ED0B4E068
:1050B0003CD0670F781F891F9A1FA11D680F791FA9
:1050C0008A1F911DA11D6A0F711D811D911DA11DBA
:1050D00020D009F468943F912AE0269F11243019CA
:1050E000305D3193DEF6CF010895462F4770405D65
:1050F0004193B3E00FD0C9F7F6CF462F4F70405D14
:105100004A3318F0495D31FD4052419302D0A9F76E
:10511000EACFB4E0A6959795879577956795BA9568
:10512000C9F700976105710508959B01AC010A2E2E
:1051300006945795479537952795BA95C9F7620F05
:10514000731F841F951FA01D0895DC01FB018D9125
:105150009C9111972081F999FECF1FBA92BD81BD14
:1051600020BD0FB6F894FA9AF99A0FBE01961196DF
:105170009C938E934150504011F03196E8CF0895A2
:10518000FC01DB0120813181F999FECF32BD21BDC7
:10519000F89A80B58C938081918101969183808368
:1051A0004150504011F01196EDCF0895DF93CF9309
:1051B000CDB7DEB764970FB6F894DEBF0FBECDBF94
:1051C0008091000290910102A0910202B09103022D
:1051D0008D879E87AF87B88BFE013D9624E630E031
:1051E0008081F999FECF1FBA32BD21BD80BD0FB6B7
:1051F000F894FA9AF99A0FBE2F5F3F4F283631057F
:1052000011F03196EDCFE1ECF4E18081F999FECF18
:105210001FBA32BD21BD80BD0FB6F894FA9AF99A33
:105220000FBE2F5F3F4F2837310511F03196EDCF7C
:10523000E1EBF4E18081F999FECF1FBA32BD21BDC7
:1052400080BD0FB6F894FA9AF99A0FBE2F5F3F4FC0
:105250002838310511F03196EDCFE5EDF4E180818C
:10526000F999FECF1FBA32BD21BD80BD0FB6F894AB
:10527000FA9AF99A0FBE2F5F3F4F2839310511F086
:105280003196EDCFE9EEF4E18081F999FECF1FBAB6
:1052900032BD21BD80BD0FB6F894FA9AF99A0FBEBF
:1052A0002F5F3F4F2C39310511F03196EDCFEDEEE8
:1052B000F4E18081F999FECF1FBA32BD21BD80BDD6
:1052C0000FB6F894FA9AF99A0FBE2F5F3F4F203A23
:1052D000310511F03196EDCFE5EEF4E18081F999D9
:1052E000FECF1FBA32BD21BD80BD0FB6F894FA9A29
:1052F000F99A0FBE2F5F3F4F243A310511F03196D6
:10530000EDCFEDEFF4E18081F999FECF1FBA32BD08
:1053100021BD80BD0FB6F894FA9AF99A0FBE2F5F9F
:105320003F4F283A310511F03196EDCFEDEAF4E127
:105330008081F999FECF1FBA32BD21BD80BD0FB665
:10534000F894FA9AF99A0FBE2F5F3F4F2C3A310525
:1053500011F03196EDCFE1EFF4E18081F999FECFC4
:105360001FBA32BD21BD80BD0FB6F894FA9AF99AE2
:105370000FBE2F5F3F4F203B310511F03196EDCF2F
:10538000E5EFF4E18081F999FECF1FBA32BD21BD6E
:1053900080BD0FB6F894FA9AF99A0FBE2F5F3F4F6F
:1053A000243B310511F03196EDCFE9EFF4E1808136
:1053B000F999FECF1FBA32BD21BD80BD0FB6F8945A
:1053C000FA9AF99A0FBE2F5F3F4F283B310511F033
:1053D0003196EDCFE5E4F7E08081F999FECF1FBA71
:1053E00032BD21BD80BD0FB6F894FA9AF99A0FBE6E
:1053F0002F5F3F4F243C310511F03196EDCF8CEDFE
:1054000090E09A83898386E490E09C838B831E825C
:105410001D8280EF90E098878F8384E690E09A87E2
:1054200089871C861B86FE0131968081F999FECF03
:105430001FBA32BD21BD80BD0FB6F894FA9AF99A11
:105440000FBE2F5F3F4F263C310571F7FE013396AB
:105450008081F999FECF1FBA32BD21BD80BD0FB644
:10546000F894FA9AF99A0FBE2F5F3F4F283C310506
:1054700011F03196EDCFFE0135968081F999FECF7E
:105480001FBA32BD21BD80BD0FB6F894FA9AF99AC1
:105490000FBE2F5F3F4F2A3C310511F03196EDCF03
:1054A000FE0137968081F999FECF1FBA32BD21BD2A
:1054B00080BD0FB6F894FA9AF99A0FBE2F5F3F4F4E
:1054C0002C3C310511F03196EDCFFE0139968081EB
:1054D000F999FECF1FBA32BD21BD80BD0FB6F89439
:1054E000FA9AF99A0FBE2F5F3F4F2E3C310511F00B
:1054F0003196EDCFFE013B968081F999FECF1FBA20
:1055000032BD21BD80BD0FB6F894FA9AF99A0FBE4C
:105510002F5F3F4F203D310511F03196EDCFE4E193
:10552000F4E08081F999FECF1FBA32BD21BD80BD64
:105530000FB6F894FA9AF99A0FBE2F5F3F4F243DA9
:10554000310511F03196EDCFE8E1F4E08081F99971
:10555000FECF1FBA32BD21BD80BD0FB6F894FA9AB6
:10556000F99A0FBE2F5F3F4F283D310511F031965C
:10557000EDCFECE1F4E08081F999FECF1FBA32BDA6
:1055800021BD80BD0FB6F894FA9AF99A0FBE2B3D53
:10559000310521F02F5F3F4F3196EDCF2091EB0386
:1055A000F999FECF1FBA8CED90E092BD81BD20BD70
:1055B0000FB6F894FA9AF99A0FBE20918A0EF999CB
:1055C000FECF1FBA8DED90E092BD81BD20BD0FB61C
:1055D000F894FA9AF99A0FBEE8E0F4E18EED90E0C3
:1055E0002081F999FECF1FBA92BD81BD20BD0FB6B3
:1055F000F894FA9AF99A0FBE0196823E910511F03D
:105600003196EECFECE0F4E12081F999FECF1FBA9C
:1056100092BD81BD20BD0FB6F894FA9AF99A0FBEDB
:105620000196863E910511F03196EECFEBEFF3E057
:105630002081F999FECF1FBA92BD81BD20BD0FB662
:10564000F894FA9AF99A0FBE01968A3E910511F0E4
:105650003196EECFEEE1FAE02081F999FECF1FBA44
:1056600092BD81BD20BD0FB6F894FA9AF99A0FBE8B
:1056700001968E3E910511F03196EECFE0E1F4E116
:105680002081F999FECF1FBA92BD81BD20BD0FB612
:10569000F894FA9AF99A0FBE0196823F910511F09B
:1056A0003196EECFE4E1F4E12081F999FECF1FBA03
:1056B00092BD81BD20BD0FB6F894FA9AF99A0FBE3B
:1056C0000196863F910511F03196EECFEFEFF3E0B2
:1056D0002081F999FECF1FBA92BD81BD20BD0FB6C2
:1056E000F894FA9AF99A0FBE01968A3F910511F043
:1056F0003196EECFE0E2F4E12081F999FECF1FBAB6
:1057000092BD81BD20BD0FB6F894FA9AF99A0FBEEA
:10571000019621E08231920711F03196EDCFE0ED54
:10572000F3E02081F999FECF1FBA92BD81BD20BD63
:105730000FB6F894FA9AF99A0FBE019621E08631D5
:10574000920711F03196EDCFE4EDF3E02081F99965
:10575000FECF1FBA92BD81BD20BD0FB6F894FA9A54
:10576000F99A0FBE019621E08A31920711F0319625
:10577000EDCFECEDF3E02081F999FECF1FBA92BD99
:1057800081BD20BD0FB6F894FA9AF99A0FBE21E0B8
:105790008D31920719F001963196EDCF8091040278
:1057A00090910502A0910602B0910702898B9A8B15
:1057B000AB8BBC8BFE01719684E690E02081F99959
:1057C000FECF1FBA92BD81BD20BD0FB6F894FA9AE4
:1057D000F99A0FBE8736910519F001963196EECFF2
:1057E000EDE7F1E0949108C08091C00085FFFCCF07
:1057F0009093C600319694919923B1F7E8ECF3E0C9
:10580000949108C08091C00085FFFCCF9093C600A2
:10581000319694919923B1F78091C00085FFFCCF18
:105820008AE08093C60064960FB6F894DEBF0FBE80
:10583000CDBFCF91DF910895DF93CF93CDB7DEB782
:10584000E0970FB6F894DEBF0FBECDBFDE01119614
:10585000E1E5F4E080E101900D928150E1F7DE0195
:105860005196E1E4F4E080E101900D928150E1F77E
:10587000DE019196E1E3F4E080E101900D92815028
:10588000E1F789819A81AB81BC818093C1149093A7
:10589000C214A093C314B093C41489899A89AB89A4
:1058A000BC898093B1149093B214A093B314B093B5
:1058B000B41489A19AA1ABA1BCA18093D5149093F3
:1058C000D614A093D714B093D8148D819E81AF8144
:1058D000B8858093C5149093C614A093C714B09351
:1058E000C8148D899E89AF89B88D8093B514909323
:1058F000B614A093B714B093B8148DA19EA1AFA114
:10590000B8A58093D9149093DA14A093DB14B093C4
:10591000DC1489859A85AB85BC858093C9149093E6
:10592000CA14A093CB14B093CC14898D9A8DAB8DEF
:10593000BC8D8093B9149093BA14A093BB14B09308
:10594000BC1489A59AA5ABA5BCA58093DD14909342
:10595000DE14A093DF14B093E0148D859E85AF858F
:10596000B8898093CD149093CE14A093CF14B093A4
:10597000D0148D8D9E8DAF8DB8A18093BD14909362
:10598000BE14A093BF14B093C0148DA59EA5AFA55F
:10599000B8A98093E1149093E214A093E314B09318
:1059A000E4140F94384680E090E0A6E9B4E48093D4
:1059B000E9149093EA14A093EB14B093EC1480E0F4
:1059C00090E8ABE3B5E48093ED149093EE14A093CC
:1059D000EF14B093F01420E030E040E050E020936A
:1059E000E5143093E6144093E7145093E81480E2F2
:1059F0009EE4A0E0B0E08093AD149093AE14A09329
:105A0000AF14B093B0142093FD143093FE14409360
:105A1000FF145093001580E090E0A0E2B1E4809381
:105A2000F1149093F214A093F314B093F4148093B0
:105A3000F5149093F614A093F714B093F81480E043
:105A400090E0A0EAB0E48093F9149093FA14A09344
:105A5000FB14B093FC1420934D0730934E074093F2
:105A60004F07509350072093490730934A074093BC
:105A70004B0750934C0720934507309346074093BC
:105A80004707509348078DE39AE0A7E6B0E4809378
:105A9000140490931504A0931604B09317046EEAAF
:105AA00077E481E69EE30F9410716093180470937D
:105AB000190480931A0490931B046CE57FE882E735
:105AC00091E40F941C7160931C0470931D048093E7
:105AD0001E0490931F040F94DE7080E090E0A0E815
